{"abi":[{"inputs":[{"internalType":"uint256","name":"minimum","type":"uint256"},{"internalType":"string","name":"name","type":"string"},{"internalType":"string","name":"description","type":"string"},{"internalType":"string","name":"imageUrl","type":"string"}],"name":"createCampaign","outputs":[],"stateMutability":"nonpayable","type":"function"},{"inputs":[{"internalType":"uint256","name":"","type":"uint256"}],"name":"deployedCampaigns","outputs":[{"internalType":"address","name":"","type":"address"}],"stateMutability":"view","type":"function"},{"inputs":[],"name":"getDeployedCampaigns","outputs":[{"internalType":"address[]","name":"","type":"address[]"}],"stateMutability":"view","type":"function"}],"devdoc":{"kind":"dev","methods":{},"version":1},"evm":{"assembly":"    /* \"Campaign.sol\":60:534  contract CampaignFactory {... */\n  mstore(0x40, 0x80)\n  callvalue\n  dup1\n  iszero\n  tag_1\n  jumpi\n  0x00\n  dup1\n  revert\ntag_1:\n  pop\n  dataSize(sub_0)\n  dup1\n  dataOffset(sub_0)\n  0x00\n  codecopy\n  0x00\n  return\nstop\n\nsub_0: assembly {\n        /* \"Campaign.sol\":60:534  contract CampaignFactory {... */\n      mstore(0x40, 0x80)\n      callvalue\n      dup1\n      iszero\n      tag_1\n      jumpi\n      0x00\n      dup1\n      revert\n    tag_1:\n      pop\n      jumpi(tag_2, lt(calldatasize, 0x04))\n      shr(0xe0, calldataload(0x00))\n      dup1\n      0x339d50a5\n      eq\n      tag_3\n      jumpi\n      dup1\n      0x4acb9d4f\n      eq\n      tag_4\n      jumpi\n      dup1\n      0x8ef03928\n      eq\n      tag_5\n      jumpi\n    tag_2:\n      0x00\n      dup1\n      revert\n        /* \"Campaign.sol\":92:126  address[] public deployedCampaigns */\n    tag_3:\n      tag_6\n      0x04\n      dup1\n      calldatasize\n      sub\n      dup2\n      add\n      swap1\n      tag_7\n      swap2\n      swap1\n      tag_8\n      jump\t// in\n    tag_7:\n      tag_9\n      jump\t// in\n    tag_6:\n      mload(0x40)\n      tag_10\n      swap2\n      swap1\n      tag_11\n      jump\t// in\n    tag_10:\n      mload(0x40)\n      dup1\n      swap2\n      sub\n      swap1\n      return\n        /* \"Campaign.sol\":418:531  function getDeployedCampaigns() public view returns (address[] memory){... */\n    tag_4:\n      tag_12\n      tag_13\n      jump\t// in\n    tag_12:\n      mload(0x40)\n      tag_14\n      swap2\n      swap1\n      tag_15\n      jump\t// in\n    tag_14:\n      mload(0x40)\n      dup1\n      swap2\n      sub\n      swap1\n      return\n        /* \"Campaign.sol\":135:410  function createCampaign(uint minimum, string memory name, string memory description, string memory imageUrl) public {... */\n    tag_5:\n      tag_16\n      0x04\n      dup1\n      calldatasize\n      sub\n      dup2\n      add\n      swap1\n      tag_17\n      swap2\n      swap1\n      tag_18\n      jump\t// in\n    tag_17:\n      tag_19\n      jump\t// in\n    tag_16:\n      stop\n        /* \"Campaign.sol\":92:126  address[] public deployedCampaigns */\n    tag_9:\n      0x00\n      dup2\n      dup2\n      sload\n      dup2\n      lt\n      tag_20\n      jumpi\n      0x00\n      dup1\n      revert\n    tag_20:\n      swap1\n      0x00\n      mstore\n      keccak256(0x00, 0x20)\n      add\n      0x00\n      swap2\n      pop\n      sload\n      swap1\n      0x0100\n      exp\n      swap1\n      div\n      0xffffffffffffffffffffffffffffffffffffffff\n      and\n      dup2\n      jump\t// out\n        /* \"Campaign.sol\":418:531  function getDeployedCampaigns() public view returns (address[] memory){... */\n    tag_13:\n        /* \"Campaign.sol\":471:487  address[] memory */\n      0x60\n        /* \"Campaign.sol\":506:523  deployedCampaigns */\n      0x00\n        /* \"Campaign.sol\":499:523  return deployedCampaigns */\n      dup1\n      sload\n      dup1\n      0x20\n      mul\n      0x20\n      add\n      mload(0x40)\n      swap1\n      dup2\n      add\n      0x40\n      mstore\n      dup1\n      swap3\n      swap2\n      swap1\n      dup2\n      dup2\n      mstore\n      0x20\n      add\n      dup3\n      dup1\n      sload\n      dup1\n      iszero\n      tag_23\n      jumpi\n      0x20\n      mul\n      dup3\n      add\n      swap2\n      swap1\n      0x00\n      mstore\n      keccak256(0x00, 0x20)\n      swap1\n    tag_24:\n      dup2\n      0x00\n      swap1\n      sload\n      swap1\n      0x0100\n      exp\n      swap1\n      div\n      0xffffffffffffffffffffffffffffffffffffffff\n      and\n      0xffffffffffffffffffffffffffffffffffffffff\n      and\n      dup2\n      mstore\n      0x20\n      add\n      swap1\n      0x01\n      add\n      swap1\n      dup1\n      dup4\n      gt\n      tag_24\n      jumpi\n    tag_23:\n      pop\n      pop\n      pop\n      pop\n      pop\n      swap1\n      pop\n        /* \"Campaign.sol\":418:531  function getDeployedCampaigns() public view returns (address[] memory){... */\n      swap1\n      jump\t// out\n        /* \"Campaign.sol\":135:410  function createCampaign(uint minimum, string memory name, string memory description, string memory imageUrl) public {... */\n    tag_19:\n        /* \"Campaign.sol\":262:282  Campaign newCampaign */\n      0x00\n        /* \"Campaign.sol\":298:305  minimum */\n      dup5\n        /* \"Campaign.sol\":307:317  msg.sender */\n      caller\n        /* \"Campaign.sol\":319:323  name */\n      dup6\n        /* \"Campaign.sol\":325:336  description */\n      dup6\n        /* \"Campaign.sol\":338:346  imageUrl */\n      dup6\n        /* \"Campaign.sol\":285:347  new Campaign(minimum, msg.sender, name, description, imageUrl) */\n      mload(0x40)\n      tag_26\n      swap1\n      tag_27\n      jump\t// in\n    tag_26:\n      tag_28\n      swap6\n      swap5\n      swap4\n      swap3\n      swap2\n      swap1\n      tag_29\n      jump\t// in\n    tag_28:\n      mload(0x40)\n      dup1\n      swap2\n      sub\n      swap1\n      0x00\n      create\n      dup1\n      iszero\n      dup1\n      iszero\n      tag_30\n      jumpi\n      returndatasize\n      0x00\n      dup1\n      returndatacopy\n      revert(0x00, returndatasize)\n    tag_30:\n      pop\n        /* \"Campaign.sol\":262:347  Campaign newCampaign = new Campaign(minimum, msg.sender, name, description, imageUrl) */\n      swap1\n      pop\n        /* \"Campaign.sol\":358:375  deployedCampaigns */\n      0x00\n        /* \"Campaign.sol\":389:400  newCampaign */\n      dup2\n        /* \"Campaign.sol\":358:402  deployedCampaigns.push(address(newCampaign)) */\n      swap1\n      dup1\n      0x01\n      dup2\n      sload\n      add\n      dup1\n      dup3\n      sstore\n      dup1\n      swap2\n      pop\n      pop\n      0x01\n      swap1\n      sub\n      swap1\n      0x00\n      mstore\n      keccak256(0x00, 0x20)\n      add\n      0x00\n      swap1\n      swap2\n      swap1\n      swap2\n      swap1\n      swap2\n      0x0100\n      exp\n      dup2\n      sload\n      dup2\n      0xffffffffffffffffffffffffffffffffffffffff\n      mul\n      not\n      and\n      swap1\n      dup4\n      0xffffffffffffffffffffffffffffffffffffffff\n      and\n      mul\n      or\n      swap1\n      sstore\n      pop\n        /* \"Campaign.sol\":251:410  {... */\n      pop\n        /* \"Campaign.sol\":135:410  function createCampaign(uint minimum, string memory name, string memory description, string memory imageUrl) public {... */\n      pop\n      pop\n      pop\n      pop\n      jump\t// out\n    tag_27:\n      dataSize(sub_0)\n      dup1\n      dataOffset(sub_0)\n      dup4\n      codecopy\n      add\n      swap1\n      jump\t// out\n        /* \"#utility.yul\":7:82   */\n    tag_32:\n        /* \"#utility.yul\":40:46   */\n      0x00\n        /* \"#utility.yul\":73:75   */\n      0x40\n        /* \"#utility.yul\":67:76   */\n      mload\n        /* \"#utility.yul\":57:76   */\n      swap1\n      pop\n        /* \"#utility.yul\":7:82   */\n      swap1\n      jump\t// out\n        /* \"#utility.yul\":88:205   */\n    tag_33:\n        /* \"#utility.yul\":197:198   */\n      0x00\n        /* \"#utility.yul\":194:195   */\n      dup1\n        /* \"#utility.yul\":187:199   */\n      revert\n        /* \"#utility.yul\":211:328   */\n    tag_34:\n        /* \"#utility.yul\":320:321   */\n      0x00\n        /* \"#utility.yul\":317:318   */\n      dup1\n        /* \"#utility.yul\":310:322   */\n      revert\n        /* \"#utility.yul\":334:411   */\n    tag_35:\n        /* \"#utility.yul\":371:378   */\n      0x00\n        /* \"#utility.yul\":400:405   */\n      dup2\n        /* \"#utility.yul\":389:405   */\n      swap1\n      pop\n        /* \"#utility.yul\":334:411   */\n      swap2\n      swap1\n      pop\n      jump\t// out\n        /* \"#utility.yul\":417:539   */\n    tag_36:\n        /* \"#utility.yul\":490:514   */\n      tag_69\n        /* \"#utility.yul\":508:513   */\n      dup2\n        /* \"#utility.yul\":490:514   */\n      tag_35\n      jump\t// in\n    tag_69:\n        /* \"#utility.yul\":483:488   */\n      dup2\n        /* \"#utility.yul\":480:515   */\n      eq\n        /* \"#utility.yul\":470:533   */\n      tag_70\n      jumpi\n        /* \"#utility.yul\":529:530   */\n      0x00\n        /* \"#utility.yul\":526:527   */\n      dup1\n        /* \"#utility.yul\":519:531   */\n      revert\n        /* \"#utility.yul\":470:533   */\n    tag_70:\n        /* \"#utility.yul\":417:539   */\n      pop\n      jump\t// out\n        /* \"#utility.yul\":545:684   */\n    tag_37:\n        /* \"#utility.yul\":591:596   */\n      0x00\n        /* \"#utility.yul\":629:635   */\n      dup2\n        /* \"#utility.yul\":616:636   */\n      calldataload\n        /* \"#utility.yul\":607:636   */\n      swap1\n      pop\n        /* \"#utility.yul\":645:678   */\n      tag_72\n        /* \"#utility.yul\":672:677   */\n      dup2\n        /* \"#utility.yul\":645:678   */\n      tag_36\n      jump\t// in\n    tag_72:\n        /* \"#utility.yul\":545:684   */\n      swap3\n      swap2\n      pop\n      pop\n      jump\t// out\n        /* \"#utility.yul\":690:1019   */\n    tag_8:\n        /* \"#utility.yul\":749:755   */\n      0x00\n        /* \"#utility.yul\":798:800   */\n      0x20\n        /* \"#utility.yul\":786:795   */\n      dup3\n        /* \"#utility.yul\":777:784   */\n      dup5\n        /* \"#utility.yul\":773:796   */\n      sub\n        /* \"#utility.yul\":769:801   */\n      slt\n        /* \"#utility.yul\":766:885   */\n      iszero\n      tag_74\n      jumpi\n        /* \"#utility.yul\":804:883   */\n      tag_75\n      tag_33\n      jump\t// in\n    tag_75:\n        /* \"#utility.yul\":766:885   */\n    tag_74:\n        /* \"#utility.yul\":924:925   */\n      0x00\n        /* \"#utility.yul\":949:1002   */\n      tag_76\n        /* \"#utility.yul\":994:1001   */\n      dup5\n        /* \"#utility.yul\":985:991   */\n      dup3\n        /* \"#utility.yul\":974:983   */\n      dup6\n        /* \"#utility.yul\":970:992   */\n      add\n        /* \"#utility.yul\":949:1002   */\n      tag_37\n      jump\t// in\n    tag_76:\n        /* \"#utility.yul\":939:1002   */\n      swap2\n      pop\n        /* \"#utility.yul\":895:1012   */\n      pop\n        /* \"#utility.yul\":690:1019   */\n      swap3\n      swap2\n      pop\n      pop\n      jump\t// out\n        /* \"#utility.yul\":1025:1151   */\n    tag_38:\n        /* \"#utility.yul\":1062:1069   */\n      0x00\n        /* \"#utility.yul\":1102:1144   */\n      0xffffffffffffffffffffffffffffffffffffffff\n        /* \"#utility.yul\":1095:1100   */\n      dup3\n        /* \"#utility.yul\":1091:1145   */\n      and\n        /* \"#utility.yul\":1080:1145   */\n      swap1\n      pop\n        /* \"#utility.yul\":1025:1151   */\n      swap2\n      swap1\n      pop\n      jump\t// out\n        /* \"#utility.yul\":1157:1253   */\n    tag_39:\n        /* \"#utility.yul\":1194:1201   */\n      0x00\n        /* \"#utility.yul\":1223:1247   */\n      tag_79\n        /* \"#utility.yul\":1241:1246   */\n      dup3\n        /* \"#utility.yul\":1223:1247   */\n      tag_38\n      jump\t// in\n    tag_79:\n        /* \"#utility.yul\":1212:1247   */\n      swap1\n      pop\n        /* \"#utility.yul\":1157:1253   */\n      swap2\n      swap1\n      pop\n      jump\t// out\n        /* \"#utility.yul\":1259:1377   */\n    tag_40:\n        /* \"#utility.yul\":1346:1370   */\n      tag_81\n        /* \"#utility.yul\":1364:1369   */\n      dup2\n        /* \"#utility.yul\":1346:1370   */\n      tag_39\n      jump\t// in\n    tag_81:\n        /* \"#utility.yul\":1341:1344   */\n      dup3\n        /* \"#utility.yul\":1334:1371   */\n      mstore\n        /* \"#utility.yul\":1259:1377   */\n      pop\n      pop\n      jump\t// out\n        /* \"#utility.yul\":1383:1605   */\n    tag_11:\n        /* \"#utility.yul\":1476:1480   */\n      0x00\n        /* \"#utility.yul\":1514:1516   */\n      0x20\n        /* \"#utility.yul\":1503:1512   */\n      dup3\n        /* \"#utility.yul\":1499:1517   */\n      add\n        /* \"#utility.yul\":1491:1517   */\n      swap1\n      pop\n        /* \"#utility.yul\":1527:1598   */\n      tag_83\n        /* \"#utility.yul\":1595:1596   */\n      0x00\n        /* \"#utility.yul\":1584:1593   */\n      dup4\n        /* \"#utility.yul\":1580:1597   */\n      add\n        /* \"#utility.yul\":1571:1577   */\n      dup5\n        /* \"#utility.yul\":1527:1598   */\n      tag_40\n      jump\t// in\n    tag_83:\n        /* \"#utility.yul\":1383:1605   */\n      swap3\n      swap2\n      pop\n      pop\n      jump\t// out\n        /* \"#utility.yul\":1611:1725   */\n    tag_41:\n        /* \"#utility.yul\":1678:1684   */\n      0x00\n        /* \"#utility.yul\":1712:1717   */\n      dup2\n        /* \"#utility.yul\":1706:1718   */\n      mload\n        /* \"#utility.yul\":1696:1718   */\n      swap1\n      pop\n        /* \"#utility.yul\":1611:1725   */\n      swap2\n      swap1\n      pop\n      jump\t// out\n        /* \"#utility.yul\":1731:1915   */\n    tag_42:\n        /* \"#utility.yul\":1830:1841   */\n      0x00\n        /* \"#utility.yul\":1864:1870   */\n      dup3\n        /* \"#utility.yul\":1859:1862   */\n      dup3\n        /* \"#utility.yul\":1852:1871   */\n      mstore\n        /* \"#utility.yul\":1904:1908   */\n      0x20\n        /* \"#utility.yul\":1899:1902   */\n      dup3\n        /* \"#utility.yul\":1895:1909   */\n      add\n        /* \"#utility.yul\":1880:1909   */\n      swap1\n      pop\n        /* \"#utility.yul\":1731:1915   */\n      swap3\n      swap2\n      pop\n      pop\n      jump\t// out\n        /* \"#utility.yul\":1921:2053   */\n    tag_43:\n        /* \"#utility.yul\":1988:1992   */\n      0x00\n        /* \"#utility.yul\":2011:2014   */\n      dup2\n        /* \"#utility.yul\":2003:2014   */\n      swap1\n      pop\n        /* \"#utility.yul\":2041:2045   */\n      0x20\n        /* \"#utility.yul\":2036:2039   */\n      dup3\n        /* \"#utility.yul\":2032:2046   */\n      add\n        /* \"#utility.yul\":2024:2046   */\n      swap1\n      pop\n        /* \"#utility.yul\":1921:2053   */\n      swap2\n      swap1\n      pop\n      jump\t// out\n        /* \"#utility.yul\":2059:2167   */\n    tag_44:\n        /* \"#utility.yul\":2136:2160   */\n      tag_88\n        /* \"#utility.yul\":2154:2159   */\n      dup2\n        /* \"#utility.yul\":2136:2160   */\n      tag_39\n      jump\t// in\n    tag_88:\n        /* \"#utility.yul\":2131:2134   */\n      dup3\n        /* \"#utility.yul\":2124:2161   */\n      mstore\n        /* \"#utility.yul\":2059:2167   */\n      pop\n      pop\n      jump\t// out\n        /* \"#utility.yul\":2173:2352   */\n    tag_45:\n        /* \"#utility.yul\":2242:2252   */\n      0x00\n        /* \"#utility.yul\":2263:2309   */\n      tag_90\n        /* \"#utility.yul\":2305:2308   */\n      dup4\n        /* \"#utility.yul\":2297:2303   */\n      dup4\n        /* \"#utility.yul\":2263:2309   */\n      tag_44\n      jump\t// in\n    tag_90:\n        /* \"#utility.yul\":2341:2345   */\n      0x20\n        /* \"#utility.yul\":2336:2339   */\n      dup4\n        /* \"#utility.yul\":2332:2346   */\n      add\n        /* \"#utility.yul\":2318:2346   */\n      swap1\n      pop\n        /* \"#utility.yul\":2173:2352   */\n      swap3\n      swap2\n      pop\n      pop\n      jump\t// out\n        /* \"#utility.yul\":2358:2471   */\n    tag_46:\n        /* \"#utility.yul\":2428:2432   */\n      0x00\n        /* \"#utility.yul\":2460:2464   */\n      0x20\n        /* \"#utility.yul\":2455:2458   */\n      dup3\n        /* \"#utility.yul\":2451:2465   */\n      add\n        /* \"#utility.yul\":2443:2465   */\n      swap1\n      pop\n        /* \"#utility.yul\":2358:2471   */\n      swap2\n      swap1\n      pop\n      jump\t// out\n        /* \"#utility.yul\":2507:3239   */\n    tag_47:\n        /* \"#utility.yul\":2626:2629   */\n      0x00\n        /* \"#utility.yul\":2655:2709   */\n      tag_93\n        /* \"#utility.yul\":2703:2708   */\n      dup3\n        /* \"#utility.yul\":2655:2709   */\n      tag_41\n      jump\t// in\n    tag_93:\n        /* \"#utility.yul\":2725:2811   */\n      tag_94\n        /* \"#utility.yul\":2804:2810   */\n      dup2\n        /* \"#utility.yul\":2799:2802   */\n      dup6\n        /* \"#utility.yul\":2725:2811   */\n      tag_42\n      jump\t// in\n    tag_94:\n        /* \"#utility.yul\":2718:2811   */\n      swap4\n      pop\n        /* \"#utility.yul\":2835:2891   */\n      tag_95\n        /* \"#utility.yul\":2885:2890   */\n      dup4\n        /* \"#utility.yul\":2835:2891   */\n      tag_43\n      jump\t// in\n    tag_95:\n        /* \"#utility.yul\":2914:2921   */\n      dup1\n        /* \"#utility.yul\":2945:2946   */\n      0x00\n        /* \"#utility.yul\":2930:3214   */\n    tag_96:\n        /* \"#utility.yul\":2955:2961   */\n      dup4\n        /* \"#utility.yul\":2952:2953   */\n      dup2\n        /* \"#utility.yul\":2949:2962   */\n      lt\n        /* \"#utility.yul\":2930:3214   */\n      iszero\n      tag_98\n      jumpi\n        /* \"#utility.yul\":3031:3037   */\n      dup2\n        /* \"#utility.yul\":3025:3038   */\n      mload\n        /* \"#utility.yul\":3058:3121   */\n      tag_99\n        /* \"#utility.yul\":3117:3120   */\n      dup9\n        /* \"#utility.yul\":3102:3115   */\n      dup3\n        /* \"#utility.yul\":3058:3121   */\n      tag_45\n      jump\t// in\n    tag_99:\n        /* \"#utility.yul\":3051:3121   */\n      swap8\n      pop\n        /* \"#utility.yul\":3144:3204   */\n      tag_100\n        /* \"#utility.yul\":3197:3203   */\n      dup4\n        /* \"#utility.yul\":3144:3204   */\n      tag_46\n      jump\t// in\n    tag_100:\n        /* \"#utility.yul\":3134:3204   */\n      swap3\n      pop\n        /* \"#utility.yul\":2990:3214   */\n      pop\n        /* \"#utility.yul\":2977:2978   */\n      0x01\n        /* \"#utility.yul\":2974:2975   */\n      dup2\n        /* \"#utility.yul\":2970:2979   */\n      add\n        /* \"#utility.yul\":2965:2979   */\n      swap1\n      pop\n        /* \"#utility.yul\":2930:3214   */\n      jump(tag_96)\n    tag_98:\n        /* \"#utility.yul\":2934:2948   */\n      pop\n        /* \"#utility.yul\":3230:3233   */\n      dup6\n        /* \"#utility.yul\":3223:3233   */\n      swap4\n      pop\n        /* \"#utility.yul\":2631:3239   */\n      pop\n      pop\n      pop\n        /* \"#utility.yul\":2507:3239   */\n      swap3\n      swap2\n      pop\n      pop\n      jump\t// out\n        /* \"#utility.yul\":3245:3618   */\n    tag_15:\n        /* \"#utility.yul\":3388:3392   */\n      0x00\n        /* \"#utility.yul\":3426:3428   */\n      0x20\n        /* \"#utility.yul\":3415:3424   */\n      dup3\n        /* \"#utility.yul\":3411:3429   */\n      add\n        /* \"#utility.yul\":3403:3429   */\n      swap1\n      pop\n        /* \"#utility.yul\":3475:3484   */\n      dup2\n        /* \"#utility.yul\":3469:3473   */\n      dup2\n        /* \"#utility.yul\":3465:3485   */\n      sub\n        /* \"#utility.yul\":3461:3462   */\n      0x00\n        /* \"#utility.yul\":3450:3459   */\n      dup4\n        /* \"#utility.yul\":3446:3463   */\n      add\n        /* \"#utility.yul\":3439:3486   */\n      mstore\n        /* \"#utility.yul\":3503:3611   */\n      tag_102\n        /* \"#utility.yul\":3606:3610   */\n      dup2\n        /* \"#utility.yul\":3597:3603   */\n      dup5\n        /* \"#utility.yul\":3503:3611   */\n      tag_47\n      jump\t// in\n    tag_102:\n        /* \"#utility.yul\":3495:3611   */\n      swap1\n      pop\n        /* \"#utility.yul\":3245:3618   */\n      swap3\n      swap2\n      pop\n      pop\n      jump\t// out\n        /* \"#utility.yul\":3624:3741   */\n    tag_48:\n        /* \"#utility.yul\":3733:3734   */\n      0x00\n        /* \"#utility.yul\":3730:3731   */\n      dup1\n        /* \"#utility.yul\":3723:3735   */\n      revert\n        /* \"#utility.yul\":3747:3864   */\n    tag_49:\n        /* \"#utility.yul\":3856:3857   */\n      0x00\n        /* \"#utility.yul\":3853:3854   */\n      dup1\n        /* \"#utility.yul\":3846:3858   */\n      revert\n        /* \"#utility.yul\":3870:3972   */\n    tag_50:\n        /* \"#utility.yul\":3911:3917   */\n      0x00\n        /* \"#utility.yul\":3962:3964   */\n      0x1f\n        /* \"#utility.yul\":3958:3965   */\n      not\n        /* \"#utility.yul\":3953:3955   */\n      0x1f\n        /* \"#utility.yul\":3946:3951   */\n      dup4\n        /* \"#utility.yul\":3942:3956   */\n      add\n        /* \"#utility.yul\":3938:3966   */\n      and\n        /* \"#utility.yul\":3928:3966   */\n      swap1\n      pop\n        /* \"#utility.yul\":3870:3972   */\n      swap2\n      swap1\n      pop\n      jump\t// out\n        /* \"#utility.yul\":3978:4158   */\n    tag_51:\n        /* \"#utility.yul\":4026:4103   */\n      0x4e487b7100000000000000000000000000000000000000000000000000000000\n        /* \"#utility.yul\":4023:4024   */\n      0x00\n        /* \"#utility.yul\":4016:4104   */\n      mstore\n        /* \"#utility.yul\":4123:4127   */\n      0x41\n        /* \"#utility.yul\":4120:4121   */\n      0x04\n        /* \"#utility.yul\":4113:4128   */\n      mstore\n        /* \"#utility.yul\":4147:4151   */\n      0x24\n        /* \"#utility.yul\":4144:4145   */\n      0x00\n        /* \"#utility.yul\":4137:4152   */\n      revert\n        /* \"#utility.yul\":4164:4445   */\n    tag_52:\n        /* \"#utility.yul\":4247:4274   */\n      tag_108\n        /* \"#utility.yul\":4269:4273   */\n      dup3\n        /* \"#utility.yul\":4247:4274   */\n      tag_50\n      jump\t// in\n    tag_108:\n        /* \"#utility.yul\":4239:4245   */\n      dup2\n        /* \"#utility.yul\":4235:4275   */\n      add\n        /* \"#utility.yul\":4377:4383   */\n      dup2\n        /* \"#utility.yul\":4365:4375   */\n      dup2\n        /* \"#utility.yul\":4362:4384   */\n      lt\n        /* \"#utility.yul\":4341:4359   */\n      0xffffffffffffffff\n        /* \"#utility.yul\":4329:4339   */\n      dup3\n        /* \"#utility.yul\":4326:4360   */\n      gt\n        /* \"#utility.yul\":4323:4385   */\n      or\n        /* \"#utility.yul\":4320:4408   */\n      iszero\n      tag_109\n      jumpi\n        /* \"#utility.yul\":4388:4406   */\n      tag_110\n      tag_51\n      jump\t// in\n    tag_110:\n        /* \"#utility.yul\":4320:4408   */\n    tag_109:\n        /* \"#utility.yul\":4428:4438   */\n      dup1\n        /* \"#utility.yul\":4424:4426   */\n      0x40\n        /* \"#utility.yul\":4417:4439   */\n      mstore\n        /* \"#utility.yul\":4207:4445   */\n      pop\n        /* \"#utility.yul\":4164:4445   */\n      pop\n      pop\n      jump\t// out\n        /* \"#utility.yul\":4451:4580   */\n    tag_53:\n        /* \"#utility.yul\":4485:4491   */\n      0x00\n        /* \"#utility.yul\":4512:4532   */\n      tag_112\n      tag_32\n      jump\t// in\n    tag_112:\n        /* \"#utility.yul\":4502:4532   */\n      swap1\n      pop\n        /* \"#utility.yul\":4541:4574   */\n      tag_113\n        /* \"#utility.yul\":4569:4573   */\n      dup3\n        /* \"#utility.yul\":4561:4567   */\n      dup3\n        /* \"#utility.yul\":4541:4574   */\n      tag_52\n      jump\t// in\n    tag_113:\n        /* \"#utility.yul\":4451:4580   */\n      swap2\n      swap1\n      pop\n      jump\t// out\n        /* \"#utility.yul\":4586:4894   */\n    tag_54:\n        /* \"#utility.yul\":4648:4652   */\n      0x00\n        /* \"#utility.yul\":4738:4756   */\n      0xffffffffffffffff\n        /* \"#utility.yul\":4730:4736   */\n      dup3\n        /* \"#utility.yul\":4727:4757   */\n      gt\n        /* \"#utility.yul\":4724:4780   */\n      iszero\n      tag_115\n      jumpi\n        /* \"#utility.yul\":4760:4778   */\n      tag_116\n      tag_51\n      jump\t// in\n    tag_116:\n        /* \"#utility.yul\":4724:4780   */\n    tag_115:\n        /* \"#utility.yul\":4798:4827   */\n      tag_117\n        /* \"#utility.yul\":4820:4826   */\n      dup3\n        /* \"#utility.yul\":4798:4827   */\n      tag_50\n      jump\t// in\n    tag_117:\n        /* \"#utility.yul\":4790:4827   */\n      swap1\n      pop\n        /* \"#utility.yul\":4882:4886   */\n      0x20\n        /* \"#utility.yul\":4876:4880   */\n      dup2\n        /* \"#utility.yul\":4872:4887   */\n      add\n        /* \"#utility.yul\":4864:4887   */\n      swap1\n      pop\n        /* \"#utility.yul\":4586:4894   */\n      swap2\n      swap1\n      pop\n      jump\t// out\n        /* \"#utility.yul\":4900:5054   */\n    tag_55:\n        /* \"#utility.yul\":4984:4990   */\n      dup3\n        /* \"#utility.yul\":4979:4982   */\n      dup2\n        /* \"#utility.yul\":4974:4977   */\n      dup4\n        /* \"#utility.yul\":4961:4991   */\n      calldatacopy\n        /* \"#utility.yul\":5046:5047   */\n      0x00\n        /* \"#utility.yul\":5037:5043   */\n      dup4\n        /* \"#utility.yul\":5032:5035   */\n      dup4\n        /* \"#utility.yul\":5028:5044   */\n      add\n        /* \"#utility.yul\":5021:5048   */\n      mstore\n        /* \"#utility.yul\":4900:5054   */\n      pop\n      pop\n      pop\n      jump\t// out\n        /* \"#utility.yul\":5060:5472   */\n    tag_56:\n        /* \"#utility.yul\":5138:5143   */\n      0x00\n        /* \"#utility.yul\":5163:5229   */\n      tag_120\n        /* \"#utility.yul\":5179:5228   */\n      tag_121\n        /* \"#utility.yul\":5221:5227   */\n      dup5\n        /* \"#utility.yul\":5179:5228   */\n      tag_54\n      jump\t// in\n    tag_121:\n        /* \"#utility.yul\":5163:5229   */\n      tag_53\n      jump\t// in\n    tag_120:\n        /* \"#utility.yul\":5154:5229   */\n      swap1\n      pop\n        /* \"#utility.yul\":5252:5258   */\n      dup3\n        /* \"#utility.yul\":5245:5250   */\n      dup2\n        /* \"#utility.yul\":5238:5259   */\n      mstore\n        /* \"#utility.yul\":5290:5294   */\n      0x20\n        /* \"#utility.yul\":5283:5288   */\n      dup2\n        /* \"#utility.yul\":5279:5295   */\n      add\n        /* \"#utility.yul\":5328:5331   */\n      dup5\n        /* \"#utility.yul\":5319:5325   */\n      dup5\n        /* \"#utility.yul\":5314:5317   */\n      dup5\n        /* \"#utility.yul\":5310:5326   */\n      add\n        /* \"#utility.yul\":5307:5332   */\n      gt\n        /* \"#utility.yul\":5304:5416   */\n      iszero\n      tag_122\n      jumpi\n        /* \"#utility.yul\":5335:5414   */\n      tag_123\n      tag_49\n      jump\t// in\n    tag_123:\n        /* \"#utility.yul\":5304:5416   */\n    tag_122:\n        /* \"#utility.yul\":5425:5466   */\n      tag_124\n        /* \"#utility.yul\":5459:5465   */\n      dup5\n        /* \"#utility.yul\":5454:5457   */\n      dup3\n        /* \"#utility.yul\":5449:5452   */\n      dup6\n        /* \"#utility.yul\":5425:5466   */\n      tag_55\n      jump\t// in\n    tag_124:\n        /* \"#utility.yul\":5144:5472   */\n      pop\n        /* \"#utility.yul\":5060:5472   */\n      swap4\n      swap3\n      pop\n      pop\n      pop\n      jump\t// out\n        /* \"#utility.yul\":5492:5832   */\n    tag_57:\n        /* \"#utility.yul\":5548:5553   */\n      0x00\n        /* \"#utility.yul\":5597:5600   */\n      dup3\n        /* \"#utility.yul\":5590:5594   */\n      0x1f\n        /* \"#utility.yul\":5582:5588   */\n      dup4\n        /* \"#utility.yul\":5578:5595   */\n      add\n        /* \"#utility.yul\":5574:5601   */\n      slt\n        /* \"#utility.yul\":5564:5686   */\n      tag_126\n      jumpi\n        /* \"#utility.yul\":5605:5684   */\n      tag_127\n      tag_48\n      jump\t// in\n    tag_127:\n        /* \"#utility.yul\":5564:5686   */\n    tag_126:\n        /* \"#utility.yul\":5722:5728   */\n      dup2\n        /* \"#utility.yul\":5709:5729   */\n      calldataload\n        /* \"#utility.yul\":5747:5826   */\n      tag_128\n        /* \"#utility.yul\":5822:5825   */\n      dup5\n        /* \"#utility.yul\":5814:5820   */\n      dup3\n        /* \"#utility.yul\":5807:5811   */\n      0x20\n        /* \"#utility.yul\":5799:5805   */\n      dup7\n        /* \"#utility.yul\":5795:5812   */\n      add\n        /* \"#utility.yul\":5747:5826   */\n      tag_56\n      jump\t// in\n    tag_128:\n        /* \"#utility.yul\":5738:5826   */\n      swap2\n      pop\n        /* \"#utility.yul\":5554:5832   */\n      pop\n        /* \"#utility.yul\":5492:5832   */\n      swap3\n      swap2\n      pop\n      pop\n      jump\t// out\n        /* \"#utility.yul\":5838:7143   */\n    tag_18:\n        /* \"#utility.yul\":5954:5960   */\n      0x00\n        /* \"#utility.yul\":5962:5968   */\n      dup1\n        /* \"#utility.yul\":5970:5976   */\n      0x00\n        /* \"#utility.yul\":5978:5984   */\n      dup1\n        /* \"#utility.yul\":6027:6030   */\n      0x80\n        /* \"#utility.yul\":6015:6024   */\n      dup6\n        /* \"#utility.yul\":6006:6013   */\n      dup8\n        /* \"#utility.yul\":6002:6025   */\n      sub\n        /* \"#utility.yul\":5998:6031   */\n      slt\n        /* \"#utility.yul\":5995:6115   */\n      iszero\n      tag_130\n      jumpi\n        /* \"#utility.yul\":6034:6113   */\n      tag_131\n      tag_33\n      jump\t// in\n    tag_131:\n        /* \"#utility.yul\":5995:6115   */\n    tag_130:\n        /* \"#utility.yul\":6154:6155   */\n      0x00\n        /* \"#utility.yul\":6179:6232   */\n      tag_132\n        /* \"#utility.yul\":6224:6231   */\n      dup8\n        /* \"#utility.yul\":6215:6221   */\n      dup3\n        /* \"#utility.yul\":6204:6213   */\n      dup9\n        /* \"#utility.yul\":6200:6222   */\n      add\n        /* \"#utility.yul\":6179:6232   */\n      tag_37\n      jump\t// in\n    tag_132:\n        /* \"#utility.yul\":6169:6232   */\n      swap5\n      pop\n        /* \"#utility.yul\":6125:6242   */\n      pop\n        /* \"#utility.yul\":6309:6311   */\n      0x20\n        /* \"#utility.yul\":6298:6307   */\n      dup6\n        /* \"#utility.yul\":6294:6312   */\n      add\n        /* \"#utility.yul\":6281:6313   */\n      calldataload\n        /* \"#utility.yul\":6340:6358   */\n      0xffffffffffffffff\n        /* \"#utility.yul\":6332:6338   */\n      dup2\n        /* \"#utility.yul\":6329:6359   */\n      gt\n        /* \"#utility.yul\":6326:6443   */\n      iszero\n      tag_133\n      jumpi\n        /* \"#utility.yul\":6362:6441   */\n      tag_134\n      tag_34\n      jump\t// in\n    tag_134:\n        /* \"#utility.yul\":6326:6443   */\n    tag_133:\n        /* \"#utility.yul\":6467:6530   */\n      tag_135\n        /* \"#utility.yul\":6522:6529   */\n      dup8\n        /* \"#utility.yul\":6513:6519   */\n      dup3\n        /* \"#utility.yul\":6502:6511   */\n      dup9\n        /* \"#utility.yul\":6498:6520   */\n      add\n        /* \"#utility.yul\":6467:6530   */\n      tag_57\n      jump\t// in\n    tag_135:\n        /* \"#utility.yul\":6457:6530   */\n      swap4\n      pop\n        /* \"#utility.yul\":6252:6540   */\n      pop\n        /* \"#utility.yul\":6607:6609   */\n      0x40\n        /* \"#utility.yul\":6596:6605   */\n      dup6\n        /* \"#utility.yul\":6592:6610   */\n      add\n        /* \"#utility.yul\":6579:6611   */\n      calldataload\n        /* \"#utility.yul\":6638:6656   */\n      0xffffffffffffffff\n        /* \"#utility.yul\":6630:6636   */\n      dup2\n        /* \"#utility.yul\":6627:6657   */\n      gt\n        /* \"#utility.yul\":6624:6741   */\n      iszero\n      tag_136\n      jumpi\n        /* \"#utility.yul\":6660:6739   */\n      tag_137\n      tag_34\n      jump\t// in\n    tag_137:\n        /* \"#utility.yul\":6624:6741   */\n    tag_136:\n        /* \"#utility.yul\":6765:6828   */\n      tag_138\n        /* \"#utility.yul\":6820:6827   */\n      dup8\n        /* \"#utility.yul\":6811:6817   */\n      dup3\n        /* \"#utility.yul\":6800:6809   */\n      dup9\n        /* \"#utility.yul\":6796:6818   */\n      add\n        /* \"#utility.yul\":6765:6828   */\n      tag_57\n      jump\t// in\n    tag_138:\n        /* \"#utility.yul\":6755:6828   */\n      swap3\n      pop\n        /* \"#utility.yul\":6550:6838   */\n      pop\n        /* \"#utility.yul\":6905:6907   */\n      0x60\n        /* \"#utility.yul\":6894:6903   */\n      dup6\n        /* \"#utility.yul\":6890:6908   */\n      add\n        /* \"#utility.yul\":6877:6909   */\n      calldataload\n        /* \"#utility.yul\":6936:6954   */\n      0xffffffffffffffff\n        /* \"#utility.yul\":6928:6934   */\n      dup2\n        /* \"#utility.yul\":6925:6955   */\n      gt\n        /* \"#utility.yul\":6922:7039   */\n      iszero\n      tag_139\n      jumpi\n        /* \"#utility.yul\":6958:7037   */\n      tag_140\n      tag_34\n      jump\t// in\n    tag_140:\n        /* \"#utility.yul\":6922:7039   */\n    tag_139:\n        /* \"#utility.yul\":7063:7126   */\n      tag_141\n        /* \"#utility.yul\":7118:7125   */\n      dup8\n        /* \"#utility.yul\":7109:7115   */\n      dup3\n        /* \"#utility.yul\":7098:7107   */\n      dup9\n        /* \"#utility.yul\":7094:7116   */\n      add\n        /* \"#utility.yul\":7063:7126   */\n      tag_57\n      jump\t// in\n    tag_141:\n        /* \"#utility.yul\":7053:7126   */\n      swap2\n      pop\n        /* \"#utility.yul\":6848:7136   */\n      pop\n        /* \"#utility.yul\":5838:7143   */\n      swap3\n      swap6\n      swap2\n      swap5\n      pop\n      swap3\n      pop\n      jump\t// out\n        /* \"#utility.yul\":7149:7267   */\n    tag_58:\n        /* \"#utility.yul\":7236:7260   */\n      tag_143\n        /* \"#utility.yul\":7254:7259   */\n      dup2\n        /* \"#utility.yul\":7236:7260   */\n      tag_35\n      jump\t// in\n    tag_143:\n        /* \"#utility.yul\":7231:7234   */\n      dup3\n        /* \"#utility.yul\":7224:7261   */\n      mstore\n        /* \"#utility.yul\":7149:7267   */\n      pop\n      pop\n      jump\t// out\n        /* \"#utility.yul\":7273:7372   */\n    tag_59:\n        /* \"#utility.yul\":7325:7331   */\n      0x00\n        /* \"#utility.yul\":7359:7364   */\n      dup2\n        /* \"#utility.yul\":7353:7365   */\n      mload\n        /* \"#utility.yul\":7343:7365   */\n      swap1\n      pop\n        /* \"#utility.yul\":7273:7372   */\n      swap2\n      swap1\n      pop\n      jump\t// out\n        /* \"#utility.yul\":7378:7547   */\n    tag_60:\n        /* \"#utility.yul\":7462:7473   */\n      0x00\n        /* \"#utility.yul\":7496:7502   */\n      dup3\n        /* \"#utility.yul\":7491:7494   */\n      dup3\n        /* \"#utility.yul\":7484:7503   */\n      mstore\n        /* \"#utility.yul\":7536:7540   */\n      0x20\n        /* \"#utility.yul\":7531:7534   */\n      dup3\n        /* \"#utility.yul\":7527:7541   */\n      add\n        /* \"#utility.yul\":7512:7541   */\n      swap1\n      pop\n        /* \"#utility.yul\":7378:7547   */\n      swap3\n      swap2\n      pop\n      pop\n      jump\t// out\n        /* \"#utility.yul\":7553:7860   */\n    tag_61:\n        /* \"#utility.yul\":7621:7622   */\n      0x00\n        /* \"#utility.yul\":7631:7744   */\n    tag_147:\n        /* \"#utility.yul\":7645:7651   */\n      dup4\n        /* \"#utility.yul\":7642:7643   */\n      dup2\n        /* \"#utility.yul\":7639:7652   */\n      lt\n        /* \"#utility.yul\":7631:7744   */\n      iszero\n      tag_149\n      jumpi\n        /* \"#utility.yul\":7730:7731   */\n      dup1\n        /* \"#utility.yul\":7725:7728   */\n      dup3\n        /* \"#utility.yul\":7721:7732   */\n      add\n        /* \"#utility.yul\":7715:7733   */\n      mload\n        /* \"#utility.yul\":7711:7712   */\n      dup2\n        /* \"#utility.yul\":7706:7709   */\n      dup5\n        /* \"#utility.yul\":7702:7713   */\n      add\n        /* \"#utility.yul\":7695:7734   */\n      mstore\n        /* \"#utility.yul\":7667:7669   */\n      0x20\n        /* \"#utility.yul\":7664:7665   */\n      dup2\n        /* \"#utility.yul\":7660:7670   */\n      add\n        /* \"#utility.yul\":7655:7670   */\n      swap1\n      pop\n        /* \"#utility.yul\":7631:7744   */\n      jump(tag_147)\n    tag_149:\n        /* \"#utility.yul\":7762:7768   */\n      dup4\n        /* \"#utility.yul\":7759:7760   */\n      dup2\n        /* \"#utility.yul\":7756:7769   */\n      gt\n        /* \"#utility.yul\":7753:7854   */\n      iszero\n      tag_150\n      jumpi\n        /* \"#utility.yul\":7842:7843   */\n      0x00\n        /* \"#utility.yul\":7833:7839   */\n      dup5\n        /* \"#utility.yul\":7828:7831   */\n      dup5\n        /* \"#utility.yul\":7824:7840   */\n      add\n        /* \"#utility.yul\":7817:7844   */\n      mstore\n        /* \"#utility.yul\":7753:7854   */\n    tag_150:\n        /* \"#utility.yul\":7602:7860   */\n      pop\n        /* \"#utility.yul\":7553:7860   */\n      pop\n      pop\n      pop\n      jump\t// out\n        /* \"#utility.yul\":7866:8230   */\n    tag_62:\n        /* \"#utility.yul\":7954:7957   */\n      0x00\n        /* \"#utility.yul\":7982:8021   */\n      tag_152\n        /* \"#utility.yul\":8015:8020   */\n      dup3\n        /* \"#utility.yul\":7982:8021   */\n      tag_59\n      jump\t// in\n    tag_152:\n        /* \"#utility.yul\":8037:8108   */\n      tag_153\n        /* \"#utility.yul\":8101:8107   */\n      dup2\n        /* \"#utility.yul\":8096:8099   */\n      dup6\n        /* \"#utility.yul\":8037:8108   */\n      tag_60\n      jump\t// in\n    tag_153:\n        /* \"#utility.yul\":8030:8108   */\n      swap4\n      pop\n        /* \"#utility.yul\":8117:8169   */\n      tag_154\n        /* \"#utility.yul\":8162:8168   */\n      dup2\n        /* \"#utility.yul\":8157:8160   */\n      dup6\n        /* \"#utility.yul\":8150:8154   */\n      0x20\n        /* \"#utility.yul\":8143:8148   */\n      dup7\n        /* \"#utility.yul\":8139:8155   */\n      add\n        /* \"#utility.yul\":8117:8169   */\n      tag_61\n      jump\t// in\n    tag_154:\n        /* \"#utility.yul\":8194:8223   */\n      tag_155\n        /* \"#utility.yul\":8216:8222   */\n      dup2\n        /* \"#utility.yul\":8194:8223   */\n      tag_50\n      jump\t// in\n    tag_155:\n        /* \"#utility.yul\":8189:8192   */\n      dup5\n        /* \"#utility.yul\":8185:8224   */\n      add\n        /* \"#utility.yul\":8178:8224   */\n      swap2\n      pop\n        /* \"#utility.yul\":7958:8230   */\n      pop\n        /* \"#utility.yul\":7866:8230   */\n      swap3\n      swap2\n      pop\n      pop\n      jump\t// out\n        /* \"#utility.yul\":8236:9173   */\n    tag_29:\n        /* \"#utility.yul\":8501:8505   */\n      0x00\n        /* \"#utility.yul\":8539:8542   */\n      0xa0\n        /* \"#utility.yul\":8528:8537   */\n      dup3\n        /* \"#utility.yul\":8524:8543   */\n      add\n        /* \"#utility.yul\":8516:8543   */\n      swap1\n      pop\n        /* \"#utility.yul\":8553:8624   */\n      tag_157\n        /* \"#utility.yul\":8621:8622   */\n      0x00\n        /* \"#utility.yul\":8610:8619   */\n      dup4\n        /* \"#utility.yul\":8606:8623   */\n      add\n        /* \"#utility.yul\":8597:8603   */\n      dup9\n        /* \"#utility.yul\":8553:8624   */\n      tag_58\n      jump\t// in\n    tag_157:\n        /* \"#utility.yul\":8634:8706   */\n      tag_158\n        /* \"#utility.yul\":8702:8704   */\n      0x20\n        /* \"#utility.yul\":8691:8700   */\n      dup4\n        /* \"#utility.yul\":8687:8705   */\n      add\n        /* \"#utility.yul\":8678:8684   */\n      dup8\n        /* \"#utility.yul\":8634:8706   */\n      tag_40\n      jump\t// in\n    tag_158:\n        /* \"#utility.yul\":8753:8762   */\n      dup2\n        /* \"#utility.yul\":8747:8751   */\n      dup2\n        /* \"#utility.yul\":8743:8763   */\n      sub\n        /* \"#utility.yul\":8738:8740   */\n      0x40\n        /* \"#utility.yul\":8727:8736   */\n      dup4\n        /* \"#utility.yul\":8723:8741   */\n      add\n        /* \"#utility.yul\":8716:8764   */\n      mstore\n        /* \"#utility.yul\":8781:8859   */\n      tag_159\n        /* \"#utility.yul\":8854:8858   */\n      dup2\n        /* \"#utility.yul\":8845:8851   */\n      dup7\n        /* \"#utility.yul\":8781:8859   */\n      tag_62\n      jump\t// in\n    tag_159:\n        /* \"#utility.yul\":8773:8859   */\n      swap1\n      pop\n        /* \"#utility.yul\":8906:8915   */\n      dup2\n        /* \"#utility.yul\":8900:8904   */\n      dup2\n        /* \"#utility.yul\":8896:8916   */\n      sub\n        /* \"#utility.yul\":8891:8893   */\n      0x60\n        /* \"#utility.yul\":8880:8889   */\n      dup4\n        /* \"#utility.yul\":8876:8894   */\n      add\n        /* \"#utility.yul\":8869:8917   */\n      mstore\n        /* \"#utility.yul\":8934:9012   */\n      tag_160\n        /* \"#utility.yul\":9007:9011   */\n      dup2\n        /* \"#utility.yul\":8998:9004   */\n      dup6\n        /* \"#utility.yul\":8934:9012   */\n      tag_62\n      jump\t// in\n    tag_160:\n        /* \"#utility.yul\":8926:9012   */\n      swap1\n      pop\n        /* \"#utility.yul\":9060:9069   */\n      dup2\n        /* \"#utility.yul\":9054:9058   */\n      dup2\n        /* \"#utility.yul\":9050:9070   */\n      sub\n        /* \"#utility.yul\":9044:9047   */\n      0x80\n        /* \"#utility.yul\":9033:9042   */\n      dup4\n        /* \"#utility.yul\":9029:9048   */\n      add\n        /* \"#utility.yul\":9022:9071   */\n      mstore\n        /* \"#utility.yul\":9088:9166   */\n      tag_161\n        /* \"#utility.yul\":9161:9165   */\n      dup2\n        /* \"#utility.yul\":9152:9158   */\n      dup5\n        /* \"#utility.yul\":9088:9166   */\n      tag_62\n      jump\t// in\n    tag_161:\n        /* \"#utility.yul\":9080:9166   */\n      swap1\n      pop\n        /* \"#utility.yul\":8236:9173   */\n      swap7\n      swap6\n      pop\n      pop\n      pop\n      pop\n      pop\n      pop\n      jump\t// out\n    stop\n\n    sub_0: assembly {\n            /* \"Campaign.sol\":538:4074  contract Campaign {... */\n          mstore(0x40, 0x80)\n            /* \"Campaign.sol\":1160:1462  constructor(uint minimum, address creator, string memory name, string memory description, string memory imageUrl) {... */\n          callvalue\n          dup1\n          iszero\n          tag_1\n          jumpi\n          0x00\n          dup1\n          revert\n        tag_1:\n          pop\n          mload(0x40)\n          sub(codesize, bytecodeSize)\n          dup1\n          bytecodeSize\n          dup4\n          codecopy\n          dup2\n          dup2\n          add\n          0x40\n          mstore\n          dup2\n          add\n          swap1\n          tag_2\n          swap2\n          swap1\n          tag_3\n          jump\t// in\n        tag_2:\n            /* \"Campaign.sol\":1307:1314  minimum */\n          dup5\n            /* \"Campaign.sol\":1285:1304  minimumContribution */\n          0x02\n            /* \"Campaign.sol\":1285:1314  minimumContribution = minimum */\n          dup2\n          swap1\n          sstore\n          pop\n            /* \"Campaign.sol\":1335:1342  creator */\n          dup4\n            /* \"Campaign.sol\":1325:1332  manager */\n          0x01\n          0x00\n            /* \"Campaign.sol\":1325:1342  manager = creator */\n          0x0100\n          exp\n          dup2\n          sload\n          dup2\n          0xffffffffffffffffffffffffffffffffffffffff\n          mul\n          not\n          and\n          swap1\n          dup4\n          0xffffffffffffffffffffffffffffffffffffffff\n          and\n          mul\n          or\n          swap1\n          sstore\n          pop\n            /* \"Campaign.sol\":1368:1372  name */\n          dup3\n            /* \"Campaign.sol\":1353:1365  campaignName */\n          0x05\n            /* \"Campaign.sol\":1353:1372  campaignName = name */\n          swap1\n          dup1\n          mload\n          swap1\n          0x20\n          add\n          swap1\n          tag_6\n          swap3\n          swap2\n          swap1\n          tag_7\n          jump\t// in\n        tag_6:\n          pop\n            /* \"Campaign.sol\":1405:1416  description */\n          dup2\n            /* \"Campaign.sol\":1383:1402  campaignDescription */\n          0x06\n            /* \"Campaign.sol\":1383:1416  campaignDescription = description */\n          swap1\n          dup1\n          mload\n          swap1\n          0x20\n          add\n          swap1\n          tag_8\n          swap3\n          swap2\n          swap1\n          tag_7\n          jump\t// in\n        tag_8:\n          pop\n            /* \"Campaign.sol\":1446:1454  imageUrl */\n          dup1\n            /* \"Campaign.sol\":1427:1443  campaignImageUrl */\n          0x07\n            /* \"Campaign.sol\":1427:1454  campaignImageUrl = imageUrl */\n          swap1\n          dup1\n          mload\n          swap1\n          0x20\n          add\n          swap1\n          tag_9\n          swap3\n          swap2\n          swap1\n          tag_7\n          jump\t// in\n        tag_9:\n          pop\n            /* \"Campaign.sol\":1160:1462  constructor(uint minimum, address creator, string memory name, string memory description, string memory imageUrl) {... */\n          pop\n          pop\n          pop\n          pop\n          pop\n            /* \"Campaign.sol\":538:4074  contract Campaign {... */\n          jump(tag_10)\n        tag_7:\n          dup3\n          dup1\n          sload\n          tag_11\n          swap1\n          tag_12\n          jump\t// in\n        tag_11:\n          swap1\n          0x00\n          mstore\n          keccak256(0x00, 0x20)\n          swap1\n          0x1f\n          add\n          0x20\n          swap1\n          div\n          dup2\n          add\n          swap3\n          dup3\n          tag_14\n          jumpi\n          0x00\n          dup6\n          sstore\n          jump(tag_13)\n        tag_14:\n          dup3\n          0x1f\n          lt\n          tag_15\n          jumpi\n          dup1\n          mload\n          not(0xff)\n          and\n          dup4\n          dup1\n          add\n          or\n          dup6\n          sstore\n          jump(tag_13)\n        tag_15:\n          dup3\n          dup1\n          add\n          0x01\n          add\n          dup6\n          sstore\n          dup3\n          iszero\n          tag_13\n          jumpi\n          swap2\n          dup3\n          add\n        tag_16:\n          dup3\n          dup2\n          gt\n          iszero\n          tag_17\n          jumpi\n          dup3\n          mload\n          dup3\n          sstore\n          swap2\n          0x20\n          add\n          swap2\n          swap1\n          0x01\n          add\n          swap1\n          jump(tag_16)\n        tag_17:\n        tag_13:\n          pop\n          swap1\n          pop\n          tag_18\n          swap2\n          swap1\n          tag_19\n          jump\t// in\n        tag_18:\n          pop\n          swap1\n          jump\t// out\n        tag_19:\n        tag_20:\n          dup1\n          dup3\n          gt\n          iszero\n          tag_21\n          jumpi\n          0x00\n          dup2\n          0x00\n          swap1\n          sstore\n          pop\n          0x01\n          add\n          jump(tag_20)\n        tag_21:\n          pop\n          swap1\n          jump\t// out\n            /* \"#utility.yul\":7:82   */\n        tag_22:\n            /* \"#utility.yul\":40:46   */\n          0x00\n            /* \"#utility.yul\":73:75   */\n          0x40\n            /* \"#utility.yul\":67:76   */\n          mload\n            /* \"#utility.yul\":57:76   */\n          swap1\n          pop\n            /* \"#utility.yul\":7:82   */\n          swap1\n          jump\t// out\n            /* \"#utility.yul\":88:205   */\n        tag_23:\n            /* \"#utility.yul\":197:198   */\n          0x00\n            /* \"#utility.yul\":194:195   */\n          dup1\n            /* \"#utility.yul\":187:199   */\n          revert\n            /* \"#utility.yul\":211:328   */\n        tag_24:\n            /* \"#utility.yul\":320:321   */\n          0x00\n            /* \"#utility.yul\":317:318   */\n          dup1\n            /* \"#utility.yul\":310:322   */\n          revert\n            /* \"#utility.yul\":334:411   */\n        tag_25:\n            /* \"#utility.yul\":371:378   */\n          0x00\n            /* \"#utility.yul\":400:405   */\n          dup2\n            /* \"#utility.yul\":389:405   */\n          swap1\n          pop\n            /* \"#utility.yul\":334:411   */\n          swap2\n          swap1\n          pop\n          jump\t// out\n            /* \"#utility.yul\":417:539   */\n        tag_26:\n            /* \"#utility.yul\":490:514   */\n          tag_49\n            /* \"#utility.yul\":508:513   */\n          dup2\n            /* \"#utility.yul\":490:514   */\n          tag_25\n          jump\t// in\n        tag_49:\n            /* \"#utility.yul\":483:488   */\n          dup2\n            /* \"#utility.yul\":480:515   */\n          eq\n            /* \"#utility.yul\":470:533   */\n          tag_50\n          jumpi\n            /* \"#utility.yul\":529:530   */\n          0x00\n            /* \"#utility.yul\":526:527   */\n          dup1\n            /* \"#utility.yul\":519:531   */\n          revert\n            /* \"#utility.yul\":470:533   */\n        tag_50:\n            /* \"#utility.yul\":417:539   */\n          pop\n          jump\t// out\n            /* \"#utility.yul\":545:688   */\n        tag_27:\n            /* \"#utility.yul\":602:607   */\n          0x00\n            /* \"#utility.yul\":633:639   */\n          dup2\n            /* \"#utility.yul\":627:640   */\n          mload\n            /* \"#utility.yul\":618:640   */\n          swap1\n          pop\n            /* \"#utility.yul\":649:682   */\n          tag_52\n            /* \"#utility.yul\":676:681   */\n          dup2\n            /* \"#utility.yul\":649:682   */\n          tag_26\n          jump\t// in\n        tag_52:\n            /* \"#utility.yul\":545:688   */\n          swap3\n          swap2\n          pop\n          pop\n          jump\t// out\n            /* \"#utility.yul\":694:820   */\n        tag_28:\n            /* \"#utility.yul\":731:738   */\n          0x00\n            /* \"#utility.yul\":771:813   */\n          0xffffffffffffffffffffffffffffffffffffffff\n            /* \"#utility.yul\":764:769   */\n          dup3\n            /* \"#utility.yul\":760:814   */\n          and\n            /* \"#utility.yul\":749:814   */\n          swap1\n          pop\n            /* \"#utility.yul\":694:820   */\n          swap2\n          swap1\n          pop\n          jump\t// out\n            /* \"#utility.yul\":826:922   */\n        tag_29:\n            /* \"#utility.yul\":863:870   */\n          0x00\n            /* \"#utility.yul\":892:916   */\n          tag_55\n            /* \"#utility.yul\":910:915   */\n          dup3\n            /* \"#utility.yul\":892:916   */\n          tag_28\n          jump\t// in\n        tag_55:\n            /* \"#utility.yul\":881:916   */\n          swap1\n          pop\n            /* \"#utility.yul\":826:922   */\n          swap2\n          swap1\n          pop\n          jump\t// out\n            /* \"#utility.yul\":928:1050   */\n        tag_30:\n            /* \"#utility.yul\":1001:1025   */\n          tag_57\n            /* \"#utility.yul\":1019:1024   */\n          dup2\n            /* \"#utility.yul\":1001:1025   */\n          tag_29\n          jump\t// in\n        tag_57:\n            /* \"#utility.yul\":994:999   */\n          dup2\n            /* \"#utility.yul\":991:1026   */\n          eq\n            /* \"#utility.yul\":981:1044   */\n          tag_58\n          jumpi\n            /* \"#utility.yul\":1040:1041   */\n          0x00\n            /* \"#utility.yul\":1037:1038   */\n          dup1\n            /* \"#utility.yul\":1030:1042   */\n          revert\n            /* \"#utility.yul\":981:1044   */\n        tag_58:\n            /* \"#utility.yul\":928:1050   */\n          pop\n          jump\t// out\n            /* \"#utility.yul\":1056:1199   */\n        tag_31:\n            /* \"#utility.yul\":1113:1118   */\n          0x00\n            /* \"#utility.yul\":1144:1150   */\n          dup2\n            /* \"#utility.yul\":1138:1151   */\n          mload\n            /* \"#utility.yul\":1129:1151   */\n          swap1\n          pop\n            /* \"#utility.yul\":1160:1193   */\n          tag_60\n            /* \"#utility.yul\":1187:1192   */\n          dup2\n            /* \"#utility.yul\":1160:1193   */\n          tag_30\n          jump\t// in\n        tag_60:\n            /* \"#utility.yul\":1056:1199   */\n          swap3\n          swap2\n          pop\n          pop\n          jump\t// out\n            /* \"#utility.yul\":1205:1322   */\n        tag_32:\n            /* \"#utility.yul\":1314:1315   */\n          0x00\n            /* \"#utility.yul\":1311:1312   */\n          dup1\n            /* \"#utility.yul\":1304:1316   */\n          revert\n            /* \"#utility.yul\":1328:1445   */\n        tag_33:\n            /* \"#utility.yul\":1437:1438   */\n          0x00\n            /* \"#utility.yul\":1434:1435   */\n          dup1\n            /* \"#utility.yul\":1427:1439   */\n          revert\n            /* \"#utility.yul\":1451:1553   */\n        tag_34:\n            /* \"#utility.yul\":1492:1498   */\n          0x00\n            /* \"#utility.yul\":1543:1545   */\n          0x1f\n            /* \"#utility.yul\":1539:1546   */\n          not\n            /* \"#utility.yul\":1534:1536   */\n          0x1f\n            /* \"#utility.yul\":1527:1532   */\n          dup4\n            /* \"#utility.yul\":1523:1537   */\n          add\n            /* \"#utility.yul\":1519:1547   */\n          and\n            /* \"#utility.yul\":1509:1547   */\n          swap1\n          pop\n            /* \"#utility.yul\":1451:1553   */\n          swap2\n          swap1\n          pop\n          jump\t// out\n            /* \"#utility.yul\":1559:1739   */\n        tag_35:\n            /* \"#utility.yul\":1607:1684   */\n          0x4e487b7100000000000000000000000000000000000000000000000000000000\n            /* \"#utility.yul\":1604:1605   */\n          0x00\n            /* \"#utility.yul\":1597:1685   */\n          mstore\n            /* \"#utility.yul\":1704:1708   */\n          0x41\n            /* \"#utility.yul\":1701:1702   */\n          0x04\n            /* \"#utility.yul\":1694:1709   */\n          mstore\n            /* \"#utility.yul\":1728:1732   */\n          0x24\n            /* \"#utility.yul\":1725:1726   */\n          0x00\n            /* \"#utility.yul\":1718:1733   */\n          revert\n            /* \"#utility.yul\":1745:2026   */\n        tag_36:\n            /* \"#utility.yul\":1828:1855   */\n          tag_66\n            /* \"#utility.yul\":1850:1854   */\n          dup3\n            /* \"#utility.yul\":1828:1855   */\n          tag_34\n          jump\t// in\n        tag_66:\n            /* \"#utility.yul\":1820:1826   */\n          dup2\n            /* \"#utility.yul\":1816:1856   */\n          add\n            /* \"#utility.yul\":1958:1964   */\n          dup2\n            /* \"#utility.yul\":1946:1956   */\n          dup2\n            /* \"#utility.yul\":1943:1965   */\n          lt\n            /* \"#utility.yul\":1922:1940   */\n          0xffffffffffffffff\n            /* \"#utility.yul\":1910:1920   */\n          dup3\n            /* \"#utility.yul\":1907:1941   */\n          gt\n            /* \"#utility.yul\":1904:1966   */\n          or\n            /* \"#utility.yul\":1901:1989   */\n          iszero\n          tag_67\n          jumpi\n            /* \"#utility.yul\":1969:1987   */\n          tag_68\n          tag_35\n          jump\t// in\n        tag_68:\n            /* \"#utility.yul\":1901:1989   */\n        tag_67:\n            /* \"#utility.yul\":2009:2019   */\n          dup1\n            /* \"#utility.yul\":2005:2007   */\n          0x40\n            /* \"#utility.yul\":1998:2020   */\n          mstore\n            /* \"#utility.yul\":1788:2026   */\n          pop\n            /* \"#utility.yul\":1745:2026   */\n          pop\n          pop\n          jump\t// out\n            /* \"#utility.yul\":2032:2161   */\n        tag_37:\n            /* \"#utility.yul\":2066:2072   */\n          0x00\n            /* \"#utility.yul\":2093:2113   */\n          tag_70\n          tag_22\n          jump\t// in\n        tag_70:\n            /* \"#utility.yul\":2083:2113   */\n          swap1\n          pop\n            /* \"#utility.yul\":2122:2155   */\n          tag_71\n            /* \"#utility.yul\":2150:2154   */\n          dup3\n            /* \"#utility.yul\":2142:2148   */\n          dup3\n            /* \"#utility.yul\":2122:2155   */\n          tag_36\n          jump\t// in\n        tag_71:\n            /* \"#utility.yul\":2032:2161   */\n          swap2\n          swap1\n          pop\n          jump\t// out\n            /* \"#utility.yul\":2167:2475   */\n        tag_38:\n            /* \"#utility.yul\":2229:2233   */\n          0x00\n            /* \"#utility.yul\":2319:2337   */\n          0xffffffffffffffff\n            /* \"#utility.yul\":2311:2317   */\n          dup3\n            /* \"#utility.yul\":2308:2338   */\n          gt\n            /* \"#utility.yul\":2305:2361   */\n          iszero\n          tag_73\n          jumpi\n            /* \"#utility.yul\":2341:2359   */\n          tag_74\n          tag_35\n          jump\t// in\n        tag_74:\n            /* \"#utility.yul\":2305:2361   */\n        tag_73:\n            /* \"#utility.yul\":2379:2408   */\n          tag_75\n            /* \"#utility.yul\":2401:2407   */\n          dup3\n            /* \"#utility.yul\":2379:2408   */\n          tag_34\n          jump\t// in\n        tag_75:\n            /* \"#utility.yul\":2371:2408   */\n          swap1\n          pop\n            /* \"#utility.yul\":2463:2467   */\n          0x20\n            /* \"#utility.yul\":2457:2461   */\n          dup2\n            /* \"#utility.yul\":2453:2468   */\n          add\n            /* \"#utility.yul\":2445:2468   */\n          swap1\n          pop\n            /* \"#utility.yul\":2167:2475   */\n          swap2\n          swap1\n          pop\n          jump\t// out\n            /* \"#utility.yul\":2481:2788   */\n        tag_39:\n            /* \"#utility.yul\":2549:2550   */\n          0x00\n            /* \"#utility.yul\":2559:2672   */\n        tag_77:\n            /* \"#utility.yul\":2573:2579   */\n          dup4\n            /* \"#utility.yul\":2570:2571   */\n          dup2\n            /* \"#utility.yul\":2567:2580   */\n          lt\n            /* \"#utility.yul\":2559:2672   */\n          iszero\n          tag_79\n          jumpi\n            /* \"#utility.yul\":2658:2659   */\n          dup1\n            /* \"#utility.yul\":2653:2656   */\n          dup3\n            /* \"#utility.yul\":2649:2660   */\n          add\n            /* \"#utility.yul\":2643:2661   */\n          mload\n            /* \"#utility.yul\":2639:2640   */\n          dup2\n            /* \"#utility.yul\":2634:2637   */\n          dup5\n            /* \"#utility.yul\":2630:2641   */\n          add\n            /* \"#utility.yul\":2623:2662   */\n          mstore\n            /* \"#utility.yul\":2595:2597   */\n          0x20\n            /* \"#utility.yul\":2592:2593   */\n          dup2\n            /* \"#utility.yul\":2588:2598   */\n          add\n            /* \"#utility.yul\":2583:2598   */\n          swap1\n          pop\n            /* \"#utility.yul\":2559:2672   */\n          jump(tag_77)\n        tag_79:\n            /* \"#utility.yul\":2690:2696   */\n          dup4\n            /* \"#utility.yul\":2687:2688   */\n          dup2\n            /* \"#utility.yul\":2684:2697   */\n          gt\n            /* \"#utility.yul\":2681:2782   */\n          iszero\n          tag_80\n          jumpi\n            /* \"#utility.yul\":2770:2771   */\n          0x00\n            /* \"#utility.yul\":2761:2767   */\n          dup5\n            /* \"#utility.yul\":2756:2759   */\n          dup5\n            /* \"#utility.yul\":2752:2768   */\n          add\n            /* \"#utility.yul\":2745:2772   */\n          mstore\n            /* \"#utility.yul\":2681:2782   */\n        tag_80:\n            /* \"#utility.yul\":2530:2788   */\n          pop\n            /* \"#utility.yul\":2481:2788   */\n          pop\n          pop\n          pop\n          jump\t// out\n            /* \"#utility.yul\":2794:3215   */\n        tag_40:\n            /* \"#utility.yul\":2883:2888   */\n          0x00\n            /* \"#utility.yul\":2908:2974   */\n          tag_82\n            /* \"#utility.yul\":2924:2973   */\n          tag_83\n            /* \"#utility.yul\":2966:2972   */\n          dup5\n            /* \"#utility.yul\":2924:2973   */\n          tag_38\n          jump\t// in\n        tag_83:\n            /* \"#utility.yul\":2908:2974   */\n          tag_37\n          jump\t// in\n        tag_82:\n            /* \"#utility.yul\":2899:2974   */\n          swap1\n          pop\n            /* \"#utility.yul\":2997:3003   */\n          dup3\n            /* \"#utility.yul\":2990:2995   */\n          dup2\n            /* \"#utility.yul\":2983:3004   */\n          mstore\n            /* \"#utility.yul\":3035:3039   */\n          0x20\n            /* \"#utility.yul\":3028:3033   */\n          dup2\n            /* \"#utility.yul\":3024:3040   */\n          add\n            /* \"#utility.yul\":3073:3076   */\n          dup5\n            /* \"#utility.yul\":3064:3070   */\n          dup5\n            /* \"#utility.yul\":3059:3062   */\n          dup5\n            /* \"#utility.yul\":3055:3071   */\n          add\n            /* \"#utility.yul\":3052:3077   */\n          gt\n            /* \"#utility.yul\":3049:3161   */\n          iszero\n          tag_84\n          jumpi\n            /* \"#utility.yul\":3080:3159   */\n          tag_85\n          tag_33\n          jump\t// in\n        tag_85:\n            /* \"#utility.yul\":3049:3161   */\n        tag_84:\n            /* \"#utility.yul\":3170:3209   */\n          tag_86\n            /* \"#utility.yul\":3202:3208   */\n          dup5\n            /* \"#utility.yul\":3197:3200   */\n          dup3\n            /* \"#utility.yul\":3192:3195   */\n          dup6\n            /* \"#utility.yul\":3170:3209   */\n          tag_39\n          jump\t// in\n        tag_86:\n            /* \"#utility.yul\":2889:3215   */\n          pop\n            /* \"#utility.yul\":2794:3215   */\n          swap4\n          swap3\n          pop\n          pop\n          pop\n          jump\t// out\n            /* \"#utility.yul\":3235:3590   */\n        tag_41:\n            /* \"#utility.yul\":3302:3307   */\n          0x00\n            /* \"#utility.yul\":3351:3354   */\n          dup3\n            /* \"#utility.yul\":3344:3348   */\n          0x1f\n            /* \"#utility.yul\":3336:3342   */\n          dup4\n            /* \"#utility.yul\":3332:3349   */\n          add\n            /* \"#utility.yul\":3328:3355   */\n          slt\n            /* \"#utility.yul\":3318:3440   */\n          tag_88\n          jumpi\n            /* \"#utility.yul\":3359:3438   */\n          tag_89\n          tag_32\n          jump\t// in\n        tag_89:\n            /* \"#utility.yul\":3318:3440   */\n        tag_88:\n            /* \"#utility.yul\":3469:3475   */\n          dup2\n            /* \"#utility.yul\":3463:3476   */\n          mload\n            /* \"#utility.yul\":3494:3584   */\n          tag_90\n            /* \"#utility.yul\":3580:3583   */\n          dup5\n            /* \"#utility.yul\":3572:3578   */\n          dup3\n            /* \"#utility.yul\":3565:3569   */\n          0x20\n            /* \"#utility.yul\":3557:3563   */\n          dup7\n            /* \"#utility.yul\":3553:3570   */\n          add\n            /* \"#utility.yul\":3494:3584   */\n          tag_40\n          jump\t// in\n        tag_90:\n            /* \"#utility.yul\":3485:3584   */\n          swap2\n          pop\n            /* \"#utility.yul\":3308:3590   */\n          pop\n            /* \"#utility.yul\":3235:3590   */\n          swap3\n          swap2\n          pop\n          pop\n          jump\t// out\n            /* \"#utility.yul\":3596:5092   */\n        tag_3:\n            /* \"#utility.yul\":3732:3738   */\n          0x00\n            /* \"#utility.yul\":3740:3746   */\n          dup1\n            /* \"#utility.yul\":3748:3754   */\n          0x00\n            /* \"#utility.yul\":3756:3762   */\n          dup1\n            /* \"#utility.yul\":3764:3770   */\n          0x00\n            /* \"#utility.yul\":3813:3816   */\n          0xa0\n            /* \"#utility.yul\":3801:3810   */\n          dup7\n            /* \"#utility.yul\":3792:3799   */\n          dup9\n            /* \"#utility.yul\":3788:3811   */\n          sub\n            /* \"#utility.yul\":3784:3817   */\n          slt\n            /* \"#utility.yul\":3781:3901   */\n          iszero\n          tag_92\n          jumpi\n            /* \"#utility.yul\":3820:3899   */\n          tag_93\n          tag_23\n          jump\t// in\n        tag_93:\n            /* \"#utility.yul\":3781:3901   */\n        tag_92:\n            /* \"#utility.yul\":3940:3941   */\n          0x00\n            /* \"#utility.yul\":3965:4029   */\n          tag_94\n            /* \"#utility.yul\":4021:4028   */\n          dup9\n            /* \"#utility.yul\":4012:4018   */\n          dup3\n            /* \"#utility.yul\":4001:4010   */\n          dup10\n            /* \"#utility.yul\":3997:4019   */\n          add\n            /* \"#utility.yul\":3965:4029   */\n          tag_27\n          jump\t// in\n        tag_94:\n            /* \"#utility.yul\":3955:4029   */\n          swap6\n          pop\n            /* \"#utility.yul\":3911:4039   */\n          pop\n            /* \"#utility.yul\":4078:4080   */\n          0x20\n            /* \"#utility.yul\":4104:4168   */\n          tag_95\n            /* \"#utility.yul\":4160:4167   */\n          dup9\n            /* \"#utility.yul\":4151:4157   */\n          dup3\n            /* \"#utility.yul\":4140:4149   */\n          dup10\n            /* \"#utility.yul\":4136:4158   */\n          add\n            /* \"#utility.yul\":4104:4168   */\n          tag_31\n          jump\t// in\n        tag_95:\n            /* \"#utility.yul\":4094:4168   */\n          swap5\n          pop\n            /* \"#utility.yul\":4049:4178   */\n          pop\n            /* \"#utility.yul\":4238:4240   */\n          0x40\n            /* \"#utility.yul\":4227:4236   */\n          dup7\n            /* \"#utility.yul\":4223:4241   */\n          add\n            /* \"#utility.yul\":4217:4242   */\n          mload\n            /* \"#utility.yul\":4269:4287   */\n          0xffffffffffffffff\n            /* \"#utility.yul\":4261:4267   */\n          dup2\n            /* \"#utility.yul\":4258:4288   */\n          gt\n            /* \"#utility.yul\":4255:4372   */\n          iszero\n          tag_96\n          jumpi\n            /* \"#utility.yul\":4291:4370   */\n          tag_97\n          tag_24\n          jump\t// in\n        tag_97:\n            /* \"#utility.yul\":4255:4372   */\n        tag_96:\n            /* \"#utility.yul\":4396:4470   */\n          tag_98\n            /* \"#utility.yul\":4462:4469   */\n          dup9\n            /* \"#utility.yul\":4453:4459   */\n          dup3\n            /* \"#utility.yul\":4442:4451   */\n          dup10\n            /* \"#utility.yul\":4438:4460   */\n          add\n            /* \"#utility.yul\":4396:4470   */\n          tag_41\n          jump\t// in\n        tag_98:\n            /* \"#utility.yul\":4386:4470   */\n          swap4\n          pop\n            /* \"#utility.yul\":4188:4480   */\n          pop\n            /* \"#utility.yul\":4540:4542   */\n          0x60\n            /* \"#utility.yul\":4529:4538   */\n          dup7\n            /* \"#utility.yul\":4525:4543   */\n          add\n            /* \"#utility.yul\":4519:4544   */\n          mload\n            /* \"#utility.yul\":4571:4589   */\n          0xffffffffffffffff\n            /* \"#utility.yul\":4563:4569   */\n          dup2\n            /* \"#utility.yul\":4560:4590   */\n          gt\n            /* \"#utility.yul\":4557:4674   */\n          iszero\n          tag_99\n          jumpi\n            /* \"#utility.yul\":4593:4672   */\n          tag_100\n          tag_24\n          jump\t// in\n        tag_100:\n            /* \"#utility.yul\":4557:4674   */\n        tag_99:\n            /* \"#utility.yul\":4698:4772   */\n          tag_101\n            /* \"#utility.yul\":4764:4771   */\n          dup9\n            /* \"#utility.yul\":4755:4761   */\n          dup3\n            /* \"#utility.yul\":4744:4753   */\n          dup10\n            /* \"#utility.yul\":4740:4762   */\n          add\n            /* \"#utility.yul\":4698:4772   */\n          tag_41\n          jump\t// in\n        tag_101:\n            /* \"#utility.yul\":4688:4772   */\n          swap3\n          pop\n            /* \"#utility.yul\":4490:4782   */\n          pop\n            /* \"#utility.yul\":4842:4845   */\n          0x80\n            /* \"#utility.yul\":4831:4840   */\n          dup7\n            /* \"#utility.yul\":4827:4846   */\n          add\n            /* \"#utility.yul\":4821:4847   */\n          mload\n            /* \"#utility.yul\":4874:4892   */\n          0xffffffffffffffff\n            /* \"#utility.yul\":4866:4872   */\n          dup2\n            /* \"#utility.yul\":4863:4893   */\n          gt\n            /* \"#utility.yul\":4860:4977   */\n          iszero\n          tag_102\n          jumpi\n            /* \"#utility.yul\":4896:4975   */\n          tag_103\n          tag_24\n          jump\t// in\n        tag_103:\n            /* \"#utility.yul\":4860:4977   */\n        tag_102:\n            /* \"#utility.yul\":5001:5075   */\n          tag_104\n            /* \"#utility.yul\":5067:5074   */\n          dup9\n            /* \"#utility.yul\":5058:5064   */\n          dup3\n            /* \"#utility.yul\":5047:5056   */\n          dup10\n            /* \"#utility.yul\":5043:5065   */\n          add\n            /* \"#utility.yul\":5001:5075   */\n          tag_41\n          jump\t// in\n        tag_104:\n            /* \"#utility.yul\":4991:5075   */\n          swap2\n          pop\n            /* \"#utility.yul\":4792:5085   */\n          pop\n            /* \"#utility.yul\":3596:5092   */\n          swap3\n          swap6\n          pop\n          swap3\n          swap6\n          swap1\n          swap4\n          pop\n          jump\t// out\n            /* \"#utility.yul\":5098:5278   */\n        tag_42:\n            /* \"#utility.yul\":5146:5223   */\n          0x4e487b7100000000000000000000000000000000000000000000000000000000\n            /* \"#utility.yul\":5143:5144   */\n          0x00\n            /* \"#utility.yul\":5136:5224   */\n          mstore\n            /* \"#utility.yul\":5243:5247   */\n          0x22\n            /* \"#utility.yul\":5240:5241   */\n          0x04\n            /* \"#utility.yul\":5233:5248   */\n          mstore\n            /* \"#utility.yul\":5267:5271   */\n          0x24\n            /* \"#utility.yul\":5264:5265   */\n          0x00\n            /* \"#utility.yul\":5257:5272   */\n          revert\n            /* \"#utility.yul\":5284:5604   */\n        tag_12:\n            /* \"#utility.yul\":5328:5334   */\n          0x00\n            /* \"#utility.yul\":5365:5366   */\n          0x02\n            /* \"#utility.yul\":5359:5363   */\n          dup3\n            /* \"#utility.yul\":5355:5367   */\n          div\n            /* \"#utility.yul\":5345:5367   */\n          swap1\n          pop\n            /* \"#utility.yul\":5412:5413   */\n          0x01\n            /* \"#utility.yul\":5406:5410   */\n          dup3\n            /* \"#utility.yul\":5402:5414   */\n          and\n            /* \"#utility.yul\":5433:5451   */\n          dup1\n            /* \"#utility.yul\":5423:5504   */\n          tag_107\n          jumpi\n            /* \"#utility.yul\":5489:5493   */\n          0x7f\n            /* \"#utility.yul\":5481:5487   */\n          dup3\n            /* \"#utility.yul\":5477:5494   */\n          and\n            /* \"#utility.yul\":5467:5494   */\n          swap2\n          pop\n            /* \"#utility.yul\":5423:5504   */\n        tag_107:\n            /* \"#utility.yul\":5551:5553   */\n          0x20\n            /* \"#utility.yul\":5543:5549   */\n          dup3\n            /* \"#utility.yul\":5540:5554   */\n          lt\n            /* \"#utility.yul\":5520:5538   */\n          dup2\n            /* \"#utility.yul\":5517:5555   */\n          sub\n            /* \"#utility.yul\":5514:5598   */\n          tag_108\n          jumpi\n            /* \"#utility.yul\":5570:5588   */\n          tag_109\n          tag_42\n          jump\t// in\n        tag_109:\n            /* \"#utility.yul\":5514:5598   */\n        tag_108:\n            /* \"#utility.yul\":5335:5604   */\n          pop\n            /* \"#utility.yul\":5284:5604   */\n          swap2\n          swap1\n          pop\n          jump\t// out\n            /* \"Campaign.sol\":538:4074  contract Campaign {... */\n        tag_10:\n          dataSize(sub_0)\n          dup1\n          dataOffset(sub_0)\n          0x00\n          codecopy\n          0x00\n          return\n        stop\n\n        sub_0: assembly {\n                /* \"Campaign.sol\":538:4074  contract Campaign {... */\n              mstore(0x40, 0x80)\n              jumpi(tag_1, lt(calldatasize, 0x04))\n              shr(0xe0, calldataload(0x00))\n              dup1\n              0x7b6c8078\n              gt\n              tag_17\n              jumpi\n              dup1\n              0x937e09b1\n              gt\n              tag_18\n              jumpi\n              dup1\n              0x937e09b1\n              eq\n              tag_13\n              jumpi\n              dup1\n              0xaf06f5f7\n              eq\n              tag_14\n              jumpi\n              dup1\n              0xd7bb99ba\n              eq\n              tag_15\n              jumpi\n              dup1\n              0xd7d1bbdb\n              eq\n              tag_16\n              jumpi\n              jump(tag_1)\n            tag_18:\n              dup1\n              0x7b6c8078\n              eq\n              tag_9\n              jumpi\n              dup1\n              0x81d12c58\n              eq\n              tag_10\n              jumpi\n              dup1\n              0x82fde093\n              eq\n              tag_11\n              jumpi\n              dup1\n              0x8a9cfd55\n              eq\n              tag_12\n              jumpi\n              jump(tag_1)\n            tag_17:\n              dup1\n              0x110842cb\n              gt\n              tag_19\n              jumpi\n              dup1\n              0x110842cb\n              eq\n              tag_5\n              jumpi\n              dup1\n              0x3410452a\n              eq\n              tag_6\n              jumpi\n              dup1\n              0x4051ddac\n              eq\n              tag_7\n              jumpi\n              dup1\n              0x481c6a75\n              eq\n              tag_8\n              jumpi\n              jump(tag_1)\n            tag_19:\n              dup1\n              0x03441006\n              eq\n              tag_2\n              jumpi\n              dup1\n              0x0724fda9\n              eq\n              tag_3\n              jumpi\n              dup1\n              0x0a144391\n              eq\n              tag_4\n              jumpi\n            tag_1:\n              0x00\n              dup1\n              revert\n                /* \"Campaign.sol\":2591:3224  function finalizeRequest(uint indexOfRequest) public requireManager {... */\n            tag_2:\n              callvalue\n              dup1\n              iszero\n              tag_20\n              jumpi\n              0x00\n              dup1\n              revert\n            tag_20:\n              pop\n              tag_21\n              0x04\n              dup1\n              calldatasize\n              sub\n              dup2\n              add\n              swap1\n              tag_22\n              swap2\n              swap1\n              tag_23\n              jump\t// in\n            tag_22:\n              tag_24\n              jump\t// in\n            tag_21:\n              stop\n                /* \"Campaign.sol\":950:976  string public campaignName */\n            tag_3:\n              callvalue\n              dup1\n              iszero\n              tag_25\n              jumpi\n              0x00\n              dup1\n              revert\n            tag_25:\n              pop\n              tag_26\n              tag_27\n              jump\t// in\n            tag_26:\n              mload(0x40)\n              tag_28\n              swap2\n              swap1\n              tag_29\n              jump\t// in\n            tag_28:\n              mload(0x40)\n              dup1\n              swap2\n              sub\n              swap1\n              return\n                /* \"Campaign.sol\":869:910  mapping(address => bool) public approvers */\n            tag_4:\n              callvalue\n              dup1\n              iszero\n              tag_30\n              jumpi\n              0x00\n              dup1\n              revert\n            tag_30:\n              pop\n              tag_31\n              0x04\n              dup1\n              calldatasize\n              sub\n              dup2\n              add\n              swap1\n              tag_32\n              swap2\n              swap1\n              tag_33\n              jump\t// in\n            tag_32:\n              tag_34\n              jump\t// in\n            tag_31:\n              mload(0x40)\n              tag_35\n              swap2\n              swap1\n              tag_36\n              jump\t// in\n            tag_35:\n              mload(0x40)\n              dup1\n              swap2\n              sub\n              swap1\n              return\n                /* \"Campaign.sol\":983:1016  string public campaignDescription */\n            tag_5:\n              callvalue\n              dup1\n              iszero\n              tag_37\n              jumpi\n              0x00\n              dup1\n              revert\n            tag_37:\n              pop\n              tag_38\n              tag_39\n              jump\t// in\n            tag_38:\n              mload(0x40)\n              tag_40\n              swap2\n              swap1\n              tag_29\n              jump\t// in\n            tag_40:\n              mload(0x40)\n              dup1\n              swap2\n              sub\n              swap1\n              return\n                /* \"Campaign.sol\":3758:3854  function getRequestsCount() public view returns (uint) {... */\n            tag_6:\n              callvalue\n              dup1\n              iszero\n              tag_41\n              jumpi\n              0x00\n              dup1\n              revert\n            tag_41:\n              pop\n              tag_42\n              tag_43\n              jump\t// in\n            tag_42:\n              mload(0x40)\n              tag_44\n              swap2\n              swap1\n              tag_45\n              jump\t// in\n            tag_44:\n              mload(0x40)\n              dup1\n              swap2\n              sub\n              swap1\n              return\n                /* \"Campaign.sol\":3349:3750  function getSummary() public view returns (uint, uint, uint, uint, address, string memory, string memory, string memory) {... */\n            tag_7:\n              callvalue\n              dup1\n              iszero\n              tag_46\n              jumpi\n              0x00\n              dup1\n              revert\n            tag_46:\n              pop\n              tag_47\n              tag_48\n              jump\t// in\n            tag_47:\n              mload(0x40)\n              tag_49\n              swap9\n              swap8\n              swap7\n              swap6\n              swap5\n              swap4\n              swap3\n              swap2\n              swap1\n              tag_50\n              jump\t// in\n            tag_49:\n              mload(0x40)\n              dup1\n              swap2\n              sub\n              swap1\n              return\n                /* \"Campaign.sol\":802:824  address public manager */\n            tag_8:\n              callvalue\n              dup1\n              iszero\n              tag_51\n              jumpi\n              0x00\n              dup1\n              revert\n            tag_51:\n              pop\n              tag_52\n              tag_53\n              jump\t// in\n            tag_52:\n              mload(0x40)\n              tag_54\n              swap2\n              swap1\n              tag_55\n              jump\t// in\n            tag_54:\n              mload(0x40)\n              dup1\n              swap2\n              sub\n              swap1\n              return\n                /* \"Campaign.sol\":3232:3341  function getCampaignCurrentValue() public view returns (uint) {... */\n            tag_9:\n              callvalue\n              dup1\n              iszero\n              tag_56\n              jumpi\n              0x00\n              dup1\n              revert\n            tag_56:\n              pop\n              tag_57\n              tag_58\n              jump\t// in\n            tag_57:\n              mload(0x40)\n              tag_59\n              swap2\n              swap1\n              tag_45\n              jump\t// in\n            tag_59:\n              mload(0x40)\n              dup1\n              swap2\n              sub\n              swap1\n              return\n                /* \"Campaign.sol\":770:795  Request[] public requests */\n            tag_10:\n              callvalue\n              dup1\n              iszero\n              tag_60\n              jumpi\n              0x00\n              dup1\n              revert\n            tag_60:\n              pop\n              tag_61\n              0x04\n              dup1\n              calldatasize\n              sub\n              dup2\n              add\n              swap1\n              tag_62\n              swap2\n              swap1\n              tag_23\n              jump\t// in\n            tag_62:\n              tag_63\n              jump\t// in\n            tag_61:\n              mload(0x40)\n              tag_64\n              swap6\n              swap5\n              swap4\n              swap3\n              swap2\n              swap1\n              tag_65\n              jump\t// in\n            tag_64:\n              mload(0x40)\n              dup1\n              swap2\n              sub\n              swap1\n              return\n                /* \"Campaign.sol\":917:943  uint public approversCount */\n            tag_11:\n              callvalue\n              dup1\n              iszero\n              tag_66\n              jumpi\n              0x00\n              dup1\n              revert\n            tag_66:\n              pop\n              tag_67\n              tag_68\n              jump\t// in\n            tag_67:\n              mload(0x40)\n              tag_69\n              swap2\n              swap1\n              tag_45\n              jump\t// in\n            tag_69:\n              mload(0x40)\n              dup1\n              swap2\n              sub\n              swap1\n              return\n                /* \"Campaign.sol\":1700:2068  function createRequest(string memory description, uint value, address recipient) public requireManager {... */\n            tag_12:\n              callvalue\n              dup1\n              iszero\n              tag_70\n              jumpi\n              0x00\n              dup1\n              revert\n            tag_70:\n              pop\n              tag_71\n              0x04\n              dup1\n              calldatasize\n              sub\n              dup2\n              add\n              swap1\n              tag_72\n              swap2\n              swap1\n              tag_73\n              jump\t// in\n            tag_72:\n              tag_74\n              jump\t// in\n            tag_71:\n              stop\n                /* \"Campaign.sol\":831:862  uint public minimumContribution */\n            tag_13:\n              callvalue\n              dup1\n              iszero\n              tag_75\n              jumpi\n              0x00\n              dup1\n              revert\n            tag_75:\n              pop\n              tag_76\n              tag_77\n              jump\t// in\n            tag_76:\n              mload(0x40)\n              tag_78\n              swap2\n              swap1\n              tag_45\n              jump\t// in\n            tag_78:\n              mload(0x40)\n              dup1\n              swap2\n              sub\n              swap1\n              return\n                /* \"Campaign.sol\":1023:1053  string public campaignImageUrl */\n            tag_14:\n              callvalue\n              dup1\n              iszero\n              tag_79\n              jumpi\n              0x00\n              dup1\n              revert\n            tag_79:\n              pop\n              tag_80\n              tag_81\n              jump\t// in\n            tag_80:\n              mload(0x40)\n              tag_82\n              swap2\n              swap1\n              tag_29\n              jump\t// in\n            tag_82:\n              mload(0x40)\n              dup1\n              swap2\n              sub\n              swap1\n              return\n                /* \"Campaign.sol\":1470:1692  function contribute() public payable{... */\n            tag_15:\n              tag_83\n              tag_84\n              jump\t// in\n            tag_83:\n              stop\n                /* \"Campaign.sol\":2076:2583  function approveRequest(uint indexOfRequest) public {... */\n            tag_16:\n              callvalue\n              dup1\n              iszero\n              tag_85\n              jumpi\n              0x00\n              dup1\n              revert\n            tag_85:\n              pop\n              tag_86\n              0x04\n              dup1\n              calldatasize\n              sub\n              dup2\n              add\n              swap1\n              tag_87\n              swap2\n              swap1\n              tag_23\n              jump\t// in\n            tag_87:\n              tag_88\n              jump\t// in\n            tag_86:\n              stop\n                /* \"Campaign.sol\":2591:3224  function finalizeRequest(uint indexOfRequest) public requireManager {... */\n            tag_24:\n                /* \"Campaign.sol\":1120:1127  manager */\n              0x01\n              0x00\n              swap1\n              sload\n              swap1\n              0x0100\n              exp\n              swap1\n              div\n              0xffffffffffffffffffffffffffffffffffffffff\n              and\n                /* \"Campaign.sol\":1106:1127  msg.sender == manager */\n              0xffffffffffffffffffffffffffffffffffffffff\n              and\n                /* \"Campaign.sol\":1106:1116  msg.sender */\n              caller\n                /* \"Campaign.sol\":1106:1127  msg.sender == manager */\n              0xffffffffffffffffffffffffffffffffffffffff\n              and\n              eq\n                /* \"Campaign.sol\":1098:1128  require(msg.sender == manager) */\n              tag_90\n              jumpi\n              0x00\n              dup1\n              revert\n            tag_90:\n                /* \"Campaign.sol\":2670:2706  confirmRequestExists(indexOfRequest) */\n              tag_92\n                /* \"Campaign.sol\":2691:2705  indexOfRequest */\n              dup2\n                /* \"Campaign.sol\":2670:2690  confirmRequestExists */\n              tag_93\n                /* \"Campaign.sol\":2670:2706  confirmRequestExists(indexOfRequest) */\n              jump\t// in\n            tag_92:\n                /* \"Campaign.sol\":2719:2742  Request storage request */\n              0x00\n                /* \"Campaign.sol\":2745:2753  requests */\n              dup1\n                /* \"Campaign.sol\":2754:2768  indexOfRequest */\n              dup3\n                /* \"Campaign.sol\":2745:2769  requests[indexOfRequest] */\n              dup2\n              sload\n              dup2\n              lt\n              tag_94\n              jumpi\n              tag_95\n              tag_96\n              jump\t// in\n            tag_95:\n            tag_94:\n              swap1\n              0x00\n              mstore\n              keccak256(0x00, 0x20)\n              swap1\n              0x05\n              mul\n              add\n                /* \"Campaign.sol\":2719:2769  Request storage request = requests[indexOfRequest] */\n              swap1\n              pop\n                /* \"Campaign.sol\":2916:2917  2 */\n              0x02\n                /* \"Campaign.sol\":2899:2913  approversCount */\n              sload(0x04)\n                /* \"Campaign.sol\":2899:2917  approversCount / 2 */\n              tag_98\n              swap2\n              swap1\n              tag_99\n              jump\t// in\n            tag_98:\n                /* \"Campaign.sol\":2874:2881  request */\n              dup2\n                /* \"Campaign.sol\":2874:2895  request.approvalCount */\n              0x03\n              add\n              sload\n                /* \"Campaign.sol\":2874:2918  request.approvalCount > (approversCount / 2) */\n              gt\n                /* \"Campaign.sol\":2866:2919  require(request.approvalCount > (approversCount / 2)) */\n              tag_100\n              jumpi\n              0x00\n              dup1\n              revert\n            tag_100:\n                /* \"Campaign.sol\":3011:3018  request */\n              dup1\n                /* \"Campaign.sol\":3011:3027  request.complete */\n              0x02\n              add\n              0x14\n              swap1\n              sload\n              swap1\n              0x0100\n              exp\n              swap1\n              div\n              0xff\n              and\n                /* \"Campaign.sol\":3010:3027  !request.complete */\n              iszero\n                /* \"Campaign.sol\":3002:3028  require(!request.complete) */\n              tag_101\n              jumpi\n              0x00\n              dup1\n              revert\n            tag_101:\n                /* \"Campaign.sol\":3140:3147  request */\n              dup1\n                /* \"Campaign.sol\":3140:3157  request.recipient */\n              0x02\n              add\n              0x00\n              swap1\n              sload\n              swap1\n              0x0100\n              exp\n              swap1\n              div\n              0xffffffffffffffffffffffffffffffffffffffff\n              and\n                /* \"Campaign.sol\":3132:3167  payable(request.recipient).transfer */\n              0xffffffffffffffffffffffffffffffffffffffff\n              and\n                /* \"Campaign.sol\":3132:3182  payable(request.recipient).transfer(request.value) */\n              0x08fc\n                /* \"Campaign.sol\":3168:3175  request */\n              dup3\n                /* \"Campaign.sol\":3168:3181  request.value */\n              0x01\n              add\n              sload\n                /* \"Campaign.sol\":3132:3182  payable(request.recipient).transfer(request.value) */\n              swap1\n              dup2\n              iszero\n              mul\n              swap1\n              mload(0x40)\n              0x00\n              mload(0x40)\n              dup1\n              dup4\n              sub\n              dup2\n              dup6\n              dup9\n              dup9\n              call\n              swap4\n              pop\n              pop\n              pop\n              pop\n              iszero\n              dup1\n              iszero\n              tag_103\n              jumpi\n              returndatasize\n              0x00\n              dup1\n              returndatacopy\n              revert(0x00, returndatasize)\n            tag_103:\n              pop\n                /* \"Campaign.sol\":3212:3216  true */\n              0x01\n                /* \"Campaign.sol\":3193:3200  request */\n              dup2\n                /* \"Campaign.sol\":3193:3209  request.complete */\n              0x02\n              add\n              0x14\n                /* \"Campaign.sol\":3193:3216  request.complete = true */\n              0x0100\n              exp\n              dup2\n              sload\n              dup2\n              0xff\n              mul\n              not\n              and\n              swap1\n              dup4\n              iszero\n              iszero\n              mul\n              or\n              swap1\n              sstore\n              pop\n                /* \"Campaign.sol\":2659:3224  {... */\n              pop\n                /* \"Campaign.sol\":2591:3224  function finalizeRequest(uint indexOfRequest) public requireManager {... */\n              pop\n              jump\t// out\n                /* \"Campaign.sol\":950:976  string public campaignName */\n            tag_27:\n              0x05\n              dup1\n              sload\n              tag_104\n              swap1\n              tag_105\n              jump\t// in\n            tag_104:\n              dup1\n              0x1f\n              add\n              0x20\n              dup1\n              swap2\n              div\n              mul\n              0x20\n              add\n              mload(0x40)\n              swap1\n              dup2\n              add\n              0x40\n              mstore\n              dup1\n              swap3\n              swap2\n              swap1\n              dup2\n              dup2\n              mstore\n              0x20\n              add\n              dup3\n              dup1\n              sload\n              tag_106\n              swap1\n              tag_105\n              jump\t// in\n            tag_106:\n              dup1\n              iszero\n              tag_107\n              jumpi\n              dup1\n              0x1f\n              lt\n              tag_108\n              jumpi\n              0x0100\n              dup1\n              dup4\n              sload\n              div\n              mul\n              dup4\n              mstore\n              swap2\n              0x20\n              add\n              swap2\n              jump(tag_107)\n            tag_108:\n              dup3\n              add\n              swap2\n              swap1\n              0x00\n              mstore\n              keccak256(0x00, 0x20)\n              swap1\n            tag_109:\n              dup2\n              sload\n              dup2\n              mstore\n              swap1\n              0x01\n              add\n              swap1\n              0x20\n              add\n              dup1\n              dup4\n              gt\n              tag_109\n              jumpi\n              dup3\n              swap1\n              sub\n              0x1f\n              and\n              dup3\n              add\n              swap2\n            tag_107:\n              pop\n              pop\n              pop\n              pop\n              pop\n              dup2\n              jump\t// out\n                /* \"Campaign.sol\":869:910  mapping(address => bool) public approvers */\n            tag_34:\n              mstore(0x20, 0x03)\n              dup1\n              0x00\n              mstore\n              keccak256(0x00, 0x40)\n              0x00\n              swap2\n              pop\n              sload\n              swap1\n              0x0100\n              exp\n              swap1\n              div\n              0xff\n              and\n              dup2\n              jump\t// out\n                /* \"Campaign.sol\":983:1016  string public campaignDescription */\n            tag_39:\n              0x06\n              dup1\n              sload\n              tag_110\n              swap1\n              tag_105\n              jump\t// in\n            tag_110:\n              dup1\n              0x1f\n              add\n              0x20\n              dup1\n              swap2\n              div\n              mul\n              0x20\n              add\n              mload(0x40)\n              swap1\n              dup2\n              add\n              0x40\n              mstore\n              dup1\n              swap3\n              swap2\n              swap1\n              dup2\n              dup2\n              mstore\n              0x20\n              add\n              dup3\n              dup1\n              sload\n              tag_111\n              swap1\n              tag_105\n              jump\t// in\n            tag_111:\n              dup1\n              iszero\n              tag_112\n              jumpi\n              dup1\n              0x1f\n              lt\n              tag_113\n              jumpi\n              0x0100\n              dup1\n              dup4\n              sload\n              div\n              mul\n              dup4\n              mstore\n              swap2\n              0x20\n              add\n              swap2\n              jump(tag_112)\n            tag_113:\n              dup3\n              add\n              swap2\n              swap1\n              0x00\n              mstore\n              keccak256(0x00, 0x20)\n              swap1\n            tag_114:\n              dup2\n              sload\n              dup2\n              mstore\n              swap1\n              0x01\n              add\n              swap1\n              0x20\n              add\n              dup1\n              dup4\n              gt\n              tag_114\n              jumpi\n              dup3\n              swap1\n              sub\n              0x1f\n              and\n              dup3\n              add\n              swap2\n            tag_112:\n              pop\n              pop\n              pop\n              pop\n              pop\n              dup2\n              jump\t// out\n                /* \"Campaign.sol\":3758:3854  function getRequestsCount() public view returns (uint) {... */\n            tag_43:\n                /* \"Campaign.sol\":3807:3811  uint */\n              0x00\n                /* \"Campaign.sol\":3831:3839  requests */\n              dup1\n                /* \"Campaign.sol\":3831:3846  requests.length */\n              dup1\n              sload\n              swap1\n              pop\n                /* \"Campaign.sol\":3824:3846  return requests.length */\n              swap1\n              pop\n                /* \"Campaign.sol\":3758:3854  function getRequestsCount() public view returns (uint) {... */\n              swap1\n              jump\t// out\n                /* \"Campaign.sol\":3349:3750  function getSummary() public view returns (uint, uint, uint, uint, address, string memory, string memory, string memory) {... */\n            tag_48:\n                /* \"Campaign.sol\":3392:3396  uint */\n              0x00\n                /* \"Campaign.sol\":3398:3402  uint */\n              dup1\n                /* \"Campaign.sol\":3404:3408  uint */\n              0x00\n                /* \"Campaign.sol\":3410:3414  uint */\n              dup1\n                /* \"Campaign.sol\":3416:3423  address */\n              0x00\n                /* \"Campaign.sol\":3425:3438  string memory */\n              0x60\n                /* \"Campaign.sol\":3440:3453  string memory */\n              dup1\n                /* \"Campaign.sol\":3455:3468  string memory */\n              0x60\n                /* \"Campaign.sol\":3503:3522  minimumContribution */\n              sload(0x02)\n                /* \"Campaign.sol\":3537:3558  address(this).balance */\n              selfbalance\n                /* \"Campaign.sol\":3573:3581  requests */\n              0x00\n                /* \"Campaign.sol\":3573:3588  requests.length */\n              dup1\n              sload\n              swap1\n              pop\n                /* \"Campaign.sol\":3603:3617  approversCount */\n              sload(0x04)\n                /* \"Campaign.sol\":3632:3639  manager */\n              0x01\n              0x00\n              swap1\n              sload\n              swap1\n              0x0100\n              exp\n              swap1\n              div\n              0xffffffffffffffffffffffffffffffffffffffff\n              and\n                /* \"Campaign.sol\":3654:3666  campaignName */\n              0x05\n                /* \"Campaign.sol\":3681:3700  campaignDescription */\n              0x06\n                /* \"Campaign.sol\":3715:3731  campaignImageUrl */\n              0x07\n                /* \"Campaign.sol\":3481:3742  return (... */\n              dup3\n              dup1\n              sload\n              tag_117\n              swap1\n              tag_105\n              jump\t// in\n            tag_117:\n              dup1\n              0x1f\n              add\n              0x20\n              dup1\n              swap2\n              div\n              mul\n              0x20\n              add\n              mload(0x40)\n              swap1\n              dup2\n              add\n              0x40\n              mstore\n              dup1\n              swap3\n              swap2\n              swap1\n              dup2\n              dup2\n              mstore\n              0x20\n              add\n              dup3\n              dup1\n              sload\n              tag_118\n              swap1\n              tag_105\n              jump\t// in\n            tag_118:\n              dup1\n              iszero\n              tag_119\n              jumpi\n              dup1\n              0x1f\n              lt\n              tag_120\n              jumpi\n              0x0100\n              dup1\n              dup4\n              sload\n              div\n              mul\n              dup4\n              mstore\n              swap2\n              0x20\n              add\n              swap2\n              jump(tag_119)\n            tag_120:\n              dup3\n              add\n              swap2\n              swap1\n              0x00\n              mstore\n              keccak256(0x00, 0x20)\n              swap1\n            tag_121:\n              dup2\n              sload\n              dup2\n              mstore\n              swap1\n              0x01\n              add\n              swap1\n              0x20\n              add\n              dup1\n              dup4\n              gt\n              tag_121\n              jumpi\n              dup3\n              swap1\n              sub\n              0x1f\n              and\n              dup3\n              add\n              swap2\n            tag_119:\n              pop\n              pop\n              pop\n              pop\n              pop\n              swap3\n              pop\n              dup2\n              dup1\n              sload\n              tag_122\n              swap1\n              tag_105\n              jump\t// in\n            tag_122:\n              dup1\n              0x1f\n              add\n              0x20\n              dup1\n              swap2\n              div\n              mul\n              0x20\n              add\n              mload(0x40)\n              swap1\n              dup2\n              add\n              0x40\n              mstore\n              dup1\n              swap3\n              swap2\n              swap1\n              dup2\n              dup2\n              mstore\n              0x20\n              add\n              dup3\n              dup1\n              sload\n              tag_123\n              swap1\n              tag_105\n              jump\t// in\n            tag_123:\n              dup1\n              iszero\n              tag_124\n              jumpi\n              dup1\n              0x1f\n              lt\n              tag_125\n              jumpi\n              0x0100\n              dup1\n              dup4\n              sload\n              div\n              mul\n              dup4\n              mstore\n              swap2\n              0x20\n              add\n              swap2\n              jump(tag_124)\n            tag_125:\n              dup3\n              add\n              swap2\n              swap1\n              0x00\n              mstore\n              keccak256(0x00, 0x20)\n              swap1\n            tag_126:\n              dup2\n              sload\n              dup2\n              mstore\n              swap1\n              0x01\n              add\n              swap1\n              0x20\n              add\n              dup1\n              dup4\n              gt\n              tag_126\n              jumpi\n              dup3\n              swap1\n              sub\n              0x1f\n              and\n              dup3\n              add\n              swap2\n            tag_124:\n              pop\n              pop\n              pop\n              pop\n              pop\n              swap2\n              pop\n              dup1\n              dup1\n              sload\n              tag_127\n              swap1\n              tag_105\n              jump\t// in\n            tag_127:\n              dup1\n              0x1f\n              add\n              0x20\n              dup1\n              swap2\n              div\n              mul\n              0x20\n              add\n              mload(0x40)\n              swap1\n              dup2\n              add\n              0x40\n              mstore\n              dup1\n              swap3\n              swap2\n              swap1\n              dup2\n              dup2\n              mstore\n              0x20\n              add\n              dup3\n              dup1\n              sload\n              tag_128\n              swap1\n              tag_105\n              jump\t// in\n            tag_128:\n              dup1\n              iszero\n              tag_129\n              jumpi\n              dup1\n              0x1f\n              lt\n              tag_130\n              jumpi\n              0x0100\n              dup1\n              dup4\n              sload\n              div\n              mul\n              dup4\n              mstore\n              swap2\n              0x20\n              add\n              swap2\n              jump(tag_129)\n            tag_130:\n              dup3\n              add\n              swap2\n              swap1\n              0x00\n              mstore\n              keccak256(0x00, 0x20)\n              swap1\n            tag_131:\n              dup2\n              sload\n              dup2\n              mstore\n              swap1\n              0x01\n              add\n              swap1\n              0x20\n              add\n              dup1\n              dup4\n              gt\n              tag_131\n              jumpi\n              dup3\n              swap1\n              sub\n              0x1f\n              and\n              dup3\n              add\n              swap2\n            tag_129:\n              pop\n              pop\n              pop\n              pop\n              pop\n              swap1\n              pop\n              swap8\n              pop\n              swap8\n              pop\n              swap8\n              pop\n              swap8\n              pop\n              swap8\n              pop\n              swap8\n              pop\n              swap8\n              pop\n              swap8\n              pop\n                /* \"Campaign.sol\":3349:3750  function getSummary() public view returns (uint, uint, uint, uint, address, string memory, string memory, string memory) {... */\n              swap1\n              swap2\n              swap3\n              swap4\n              swap5\n              swap6\n              swap7\n              swap8\n              jump\t// out\n                /* \"Campaign.sol\":802:824  address public manager */\n            tag_53:\n              0x01\n              0x00\n              swap1\n              sload\n              swap1\n              0x0100\n              exp\n              swap1\n              div\n              0xffffffffffffffffffffffffffffffffffffffff\n              and\n              dup2\n              jump\t// out\n                /* \"Campaign.sol\":3232:3341  function getCampaignCurrentValue() public view returns (uint) {... */\n            tag_58:\n                /* \"Campaign.sol\":3288:3292  uint */\n              0x00\n                /* \"Campaign.sol\":3312:3333  address(this).balance */\n              selfbalance\n                /* \"Campaign.sol\":3305:3333  return address(this).balance */\n              swap1\n              pop\n                /* \"Campaign.sol\":3232:3341  function getCampaignCurrentValue() public view returns (uint) {... */\n              swap1\n              jump\t// out\n                /* \"Campaign.sol\":770:795  Request[] public requests */\n            tag_63:\n              0x00\n              dup2\n              dup2\n              sload\n              dup2\n              lt\n              tag_133\n              jumpi\n              0x00\n              dup1\n              revert\n            tag_133:\n              swap1\n              0x00\n              mstore\n              keccak256(0x00, 0x20)\n              swap1\n              0x05\n              mul\n              add\n              0x00\n              swap2\n              pop\n              swap1\n              pop\n              dup1\n              0x00\n              add\n              dup1\n              sload\n              tag_135\n              swap1\n              tag_105\n              jump\t// in\n            tag_135:\n              dup1\n              0x1f\n              add\n              0x20\n              dup1\n              swap2\n              div\n              mul\n              0x20\n              add\n              mload(0x40)\n              swap1\n              dup2\n              add\n              0x40\n              mstore\n              dup1\n              swap3\n              swap2\n              swap1\n              dup2\n              dup2\n              mstore\n              0x20\n              add\n              dup3\n              dup1\n              sload\n              tag_136\n              swap1\n              tag_105\n              jump\t// in\n            tag_136:\n              dup1\n              iszero\n              tag_137\n              jumpi\n              dup1\n              0x1f\n              lt\n              tag_138\n              jumpi\n              0x0100\n              dup1\n              dup4\n              sload\n              div\n              mul\n              dup4\n              mstore\n              swap2\n              0x20\n              add\n              swap2\n              jump(tag_137)\n            tag_138:\n              dup3\n              add\n              swap2\n              swap1\n              0x00\n              mstore\n              keccak256(0x00, 0x20)\n              swap1\n            tag_139:\n              dup2\n              sload\n              dup2\n              mstore\n              swap1\n              0x01\n              add\n              swap1\n              0x20\n              add\n              dup1\n              dup4\n              gt\n              tag_139\n              jumpi\n              dup3\n              swap1\n              sub\n              0x1f\n              and\n              dup3\n              add\n              swap2\n            tag_137:\n              pop\n              pop\n              pop\n              pop\n              pop\n              swap1\n              dup1\n              0x01\n              add\n              sload\n              swap1\n              dup1\n              0x02\n              add\n              0x00\n              swap1\n              sload\n              swap1\n              0x0100\n              exp\n              swap1\n              div\n              0xffffffffffffffffffffffffffffffffffffffff\n              and\n              swap1\n              dup1\n              0x02\n              add\n              0x14\n              swap1\n              sload\n              swap1\n              0x0100\n              exp\n              swap1\n              div\n              0xff\n              and\n              swap1\n              dup1\n              0x03\n              add\n              sload\n              swap1\n              pop\n              dup6\n              jump\t// out\n                /* \"Campaign.sol\":917:943  uint public approversCount */\n            tag_68:\n              sload(0x04)\n              dup2\n              jump\t// out\n                /* \"Campaign.sol\":1700:2068  function createRequest(string memory description, uint value, address recipient) public requireManager {... */\n            tag_74:\n                /* \"Campaign.sol\":1120:1127  manager */\n              0x01\n              0x00\n              swap1\n              sload\n              swap1\n              0x0100\n              exp\n              swap1\n              div\n              0xffffffffffffffffffffffffffffffffffffffff\n              and\n                /* \"Campaign.sol\":1106:1127  msg.sender == manager */\n              0xffffffffffffffffffffffffffffffffffffffff\n              and\n                /* \"Campaign.sol\":1106:1116  msg.sender */\n              caller\n                /* \"Campaign.sol\":1106:1127  msg.sender == manager */\n              0xffffffffffffffffffffffffffffffffffffffff\n              and\n              eq\n                /* \"Campaign.sol\":1098:1128  require(msg.sender == manager) */\n              tag_141\n              jumpi\n              0x00\n              dup1\n              revert\n            tag_141:\n                /* \"Campaign.sol\":1814:1840  Request storage newRequest */\n              0x00\n                /* \"Campaign.sol\":1843:1851  requests */\n              dup1\n                /* \"Campaign.sol\":1843:1858  requests.push() */\n              0x01\n              dup2\n              0x01\n              dup2\n              sload\n              add\n              dup1\n              dup3\n              sstore\n              dup1\n              swap2\n              pop\n              pop\n              sub\n              swap1\n              0x00\n              mstore\n              keccak256(0x00, 0x20)\n              swap1\n              0x05\n              mul\n              add\n                /* \"Campaign.sol\":1814:1858  Request storage newRequest = requests.push() */\n              swap1\n              pop\n                /* \"Campaign.sol\":1894:1905  description */\n              dup4\n                /* \"Campaign.sol\":1869:1879  newRequest */\n              dup2\n                /* \"Campaign.sol\":1869:1891  newRequest.description */\n              0x00\n              add\n                /* \"Campaign.sol\":1869:1905  newRequest.description = description */\n              swap1\n              dup1\n              mload\n              swap1\n              0x20\n              add\n              swap1\n              tag_144\n              swap3\n              swap2\n              swap1\n              tag_145\n              jump\t// in\n            tag_144:\n              pop\n                /* \"Campaign.sol\":1935:1940  value */\n              dup3\n                /* \"Campaign.sol\":1916:1926  newRequest */\n              dup2\n                /* \"Campaign.sol\":1916:1932  newRequest.value */\n              0x01\n              add\n                /* \"Campaign.sol\":1916:1940  newRequest.value = value */\n              dup2\n              swap1\n              sstore\n              pop\n                /* \"Campaign.sol\":1974:1983  recipient */\n              dup2\n                /* \"Campaign.sol\":1951:1961  newRequest */\n              dup2\n                /* \"Campaign.sol\":1951:1971  newRequest.recipient */\n              0x02\n              add\n              0x00\n                /* \"Campaign.sol\":1951:1983  newRequest.recipient = recipient */\n              0x0100\n              exp\n              dup2\n              sload\n              dup2\n              0xffffffffffffffffffffffffffffffffffffffff\n              mul\n              not\n              and\n              swap1\n              dup4\n              0xffffffffffffffffffffffffffffffffffffffff\n              and\n              mul\n              or\n              swap1\n              sstore\n              pop\n                /* \"Campaign.sol\":2016:2021  false */\n              0x00\n                /* \"Campaign.sol\":1994:2004  newRequest */\n              dup2\n                /* \"Campaign.sol\":1994:2013  newRequest.complete */\n              0x02\n              add\n              0x14\n                /* \"Campaign.sol\":1994:2021  newRequest.complete = false */\n              0x0100\n              exp\n              dup2\n              sload\n              dup2\n              0xff\n              mul\n              not\n              and\n              swap1\n              dup4\n              iszero\n              iszero\n              mul\n              or\n              swap1\n              sstore\n              pop\n                /* \"Campaign.sol\":2059:2060  0 */\n              0x00\n                /* \"Campaign.sol\":2032:2042  newRequest */\n              dup2\n                /* \"Campaign.sol\":2032:2056  newRequest.approvalCount */\n              0x03\n              add\n                /* \"Campaign.sol\":2032:2060  newRequest.approvalCount = 0 */\n              dup2\n              swap1\n              sstore\n              pop\n                /* \"Campaign.sol\":1803:2068  {... */\n              pop\n                /* \"Campaign.sol\":1700:2068  function createRequest(string memory description, uint value, address recipient) public requireManager {... */\n              pop\n              pop\n              pop\n              jump\t// out\n                /* \"Campaign.sol\":831:862  uint public minimumContribution */\n            tag_77:\n              sload(0x02)\n              dup2\n              jump\t// out\n                /* \"Campaign.sol\":1023:1053  string public campaignImageUrl */\n            tag_81:\n              0x07\n              dup1\n              sload\n              tag_146\n              swap1\n              tag_105\n              jump\t// in\n            tag_146:\n              dup1\n              0x1f\n              add\n              0x20\n              dup1\n              swap2\n              div\n              mul\n              0x20\n              add\n              mload(0x40)\n              swap1\n              dup2\n              add\n              0x40\n              mstore\n              dup1\n              swap3\n              swap2\n              swap1\n              dup2\n              dup2\n              mstore\n              0x20\n              add\n              dup3\n              dup1\n              sload\n              tag_147\n              swap1\n              tag_105\n              jump\t// in\n            tag_147:\n              dup1\n              iszero\n              tag_148\n              jumpi\n              dup1\n              0x1f\n              lt\n              tag_149\n              jumpi\n              0x0100\n              dup1\n              dup4\n              sload\n              div\n              mul\n              dup4\n              mstore\n              swap2\n              0x20\n              add\n              swap2\n              jump(tag_148)\n            tag_149:\n              dup3\n              add\n              swap2\n              swap1\n              0x00\n              mstore\n              keccak256(0x00, 0x20)\n              swap1\n            tag_150:\n              dup2\n              sload\n              dup2\n              mstore\n              swap1\n              0x01\n              add\n              swap1\n              0x20\n              add\n              dup1\n              dup4\n              gt\n              tag_150\n              jumpi\n              dup3\n              swap1\n              sub\n              0x1f\n              and\n              dup3\n              add\n              swap2\n            tag_148:\n              pop\n              pop\n              pop\n              pop\n              pop\n              dup2\n              jump\t// out\n                /* \"Campaign.sol\":1470:1692  function contribute() public payable{... */\n            tag_84:\n                /* \"Campaign.sol\":1537:1556  minimumContribution */\n              sload(0x02)\n                /* \"Campaign.sol\":1525:1534  msg.value */\n              callvalue\n                /* \"Campaign.sol\":1525:1556  msg.value > minimumContribution */\n              gt\n                /* \"Campaign.sol\":1517:1557  require(msg.value > minimumContribution) */\n              tag_152\n              jumpi\n              0x00\n              dup1\n              revert\n            tag_152:\n                /* \"Campaign.sol\":1575:1584  approvers */\n              0x03\n                /* \"Campaign.sol\":1575:1596  approvers[msg.sender] */\n              0x00\n                /* \"Campaign.sol\":1585:1595  msg.sender */\n              caller\n                /* \"Campaign.sol\":1575:1596  approvers[msg.sender] */\n              0xffffffffffffffffffffffffffffffffffffffff\n              and\n              0xffffffffffffffffffffffffffffffffffffffff\n              and\n              dup2\n              mstore\n              0x20\n              add\n              swap1\n              dup2\n              mstore\n              0x20\n              add\n              0x00\n              keccak256\n              0x00\n              swap1\n              sload\n              swap1\n              0x0100\n              exp\n              swap1\n              div\n              0xff\n              and\n                /* \"Campaign.sol\":1570:1685  if (!approvers[msg.sender]){... */\n              tag_153\n              jumpi\n                /* \"Campaign.sol\":1636:1640  true */\n              0x01\n                /* \"Campaign.sol\":1612:1621  approvers */\n              0x03\n                /* \"Campaign.sol\":1612:1633  approvers[msg.sender] */\n              0x00\n                /* \"Campaign.sol\":1622:1632  msg.sender */\n              caller\n                /* \"Campaign.sol\":1612:1633  approvers[msg.sender] */\n              0xffffffffffffffffffffffffffffffffffffffff\n              and\n              0xffffffffffffffffffffffffffffffffffffffff\n              and\n              dup2\n              mstore\n              0x20\n              add\n              swap1\n              dup2\n              mstore\n              0x20\n              add\n              0x00\n              keccak256\n              0x00\n                /* \"Campaign.sol\":1612:1640  approvers[msg.sender] = true */\n              0x0100\n              exp\n              dup2\n              sload\n              dup2\n              0xff\n              mul\n              not\n              and\n              swap1\n              dup4\n              iszero\n              iszero\n              mul\n              or\n              swap1\n              sstore\n              pop\n                /* \"Campaign.sol\":1657:1671  approversCount */\n              0x04\n              0x00\n                /* \"Campaign.sol\":1657:1673  approversCount++ */\n              dup2\n              sload\n              dup1\n              swap3\n              swap2\n              swap1\n              tag_154\n              swap1\n              tag_155\n              jump\t// in\n            tag_154:\n              swap2\n              swap1\n              pop\n              sstore\n              pop\n                /* \"Campaign.sol\":1570:1685  if (!approvers[msg.sender]){... */\n            tag_153:\n                /* \"Campaign.sol\":1470:1692  function contribute() public payable{... */\n              jump\t// out\n                /* \"Campaign.sol\":2076:2583  function approveRequest(uint indexOfRequest) public {... */\n            tag_88:\n                /* \"Campaign.sol\":2139:2175  confirmRequestExists(indexOfRequest) */\n              tag_157\n                /* \"Campaign.sol\":2160:2174  indexOfRequest */\n              dup2\n                /* \"Campaign.sol\":2139:2159  confirmRequestExists */\n              tag_93\n                /* \"Campaign.sol\":2139:2175  confirmRequestExists(indexOfRequest) */\n              jump\t// in\n            tag_157:\n                /* \"Campaign.sol\":2188:2211  Request storage request */\n              0x00\n                /* \"Campaign.sol\":2214:2222  requests */\n              dup1\n                /* \"Campaign.sol\":2223:2237  indexOfRequest */\n              dup3\n                /* \"Campaign.sol\":2214:2238  requests[indexOfRequest] */\n              dup2\n              sload\n              dup2\n              lt\n              tag_158\n              jumpi\n              tag_159\n              tag_96\n              jump\t// in\n            tag_159:\n            tag_158:\n              swap1\n              0x00\n              mstore\n              keccak256(0x00, 0x20)\n              swap1\n              0x05\n              mul\n              add\n                /* \"Campaign.sol\":2188:2238  Request storage request = requests[indexOfRequest] */\n              swap1\n              pop\n                /* \"Campaign.sol\":2311:2320  approvers */\n              0x03\n                /* \"Campaign.sol\":2311:2332  approvers[msg.sender] */\n              0x00\n                /* \"Campaign.sol\":2321:2331  msg.sender */\n              caller\n                /* \"Campaign.sol\":2311:2332  approvers[msg.sender] */\n              0xffffffffffffffffffffffffffffffffffffffff\n              and\n              0xffffffffffffffffffffffffffffffffffffffff\n              and\n              dup2\n              mstore\n              0x20\n              add\n              swap1\n              dup2\n              mstore\n              0x20\n              add\n              0x00\n              keccak256\n              0x00\n              swap1\n              sload\n              swap1\n              0x0100\n              exp\n              swap1\n              div\n              0xff\n              and\n                /* \"Campaign.sol\":2303:2333  require(approvers[msg.sender]) */\n              tag_161\n              jumpi\n              0x00\n              dup1\n              revert\n            tag_161:\n                /* \"Campaign.sol\":2425:2432  request */\n              dup1\n                /* \"Campaign.sol\":2425:2442  request.approvals */\n              0x04\n              add\n                /* \"Campaign.sol\":2425:2454  request.approvals[msg.sender] */\n              0x00\n                /* \"Campaign.sol\":2443:2453  msg.sender */\n              caller\n                /* \"Campaign.sol\":2425:2454  request.approvals[msg.sender] */\n              0xffffffffffffffffffffffffffffffffffffffff\n              and\n              0xffffffffffffffffffffffffffffffffffffffff\n              and\n              dup2\n              mstore\n              0x20\n              add\n              swap1\n              dup2\n              mstore\n              0x20\n              add\n              0x00\n              keccak256\n              0x00\n              swap1\n              sload\n              swap1\n              0x0100\n              exp\n              swap1\n              div\n              0xff\n              and\n                /* \"Campaign.sol\":2424:2454  !request.approvals[msg.sender] */\n              iszero\n                /* \"Campaign.sol\":2416:2455  require(!request.approvals[msg.sender]) */\n              tag_162\n              jumpi\n              0x00\n              dup1\n              revert\n            tag_162:\n                /* \"Campaign.sol\":2537:2541  true */\n              0x01\n                /* \"Campaign.sol\":2505:2512  request */\n              dup2\n                /* \"Campaign.sol\":2505:2522  request.approvals */\n              0x04\n              add\n                /* \"Campaign.sol\":2505:2534  request.approvals[msg.sender] */\n              0x00\n                /* \"Campaign.sol\":2523:2533  msg.sender */\n              caller\n                /* \"Campaign.sol\":2505:2534  request.approvals[msg.sender] */\n              0xffffffffffffffffffffffffffffffffffffffff\n              and\n              0xffffffffffffffffffffffffffffffffffffffff\n              and\n              dup2\n              mstore\n              0x20\n              add\n              swap1\n              dup2\n              mstore\n              0x20\n              add\n              0x00\n              keccak256\n              0x00\n                /* \"Campaign.sol\":2505:2541  request.approvals[msg.sender] = true */\n              0x0100\n              exp\n              dup2\n              sload\n              dup2\n              0xff\n              mul\n              not\n              and\n              swap1\n              dup4\n              iszero\n              iszero\n              mul\n              or\n              swap1\n              sstore\n              pop\n                /* \"Campaign.sol\":2552:2559  request */\n              dup1\n                /* \"Campaign.sol\":2552:2573  request.approvalCount */\n              0x03\n              add\n              0x00\n                /* \"Campaign.sol\":2552:2575  request.approvalCount++ */\n              dup2\n              sload\n              dup1\n              swap3\n              swap2\n              swap1\n              tag_163\n              swap1\n              tag_155\n              jump\t// in\n            tag_163:\n              swap2\n              swap1\n              pop\n              sstore\n              pop\n                /* \"Campaign.sol\":2128:2583  {... */\n              pop\n                /* \"Campaign.sol\":2076:2583  function approveRequest(uint indexOfRequest) public {... */\n              pop\n              jump\t// out\n                /* \"Campaign.sol\":3862:4071  function confirmRequestExists(uint indexOfRequest) private view {... */\n            tag_93:\n                /* \"Campaign.sol\":4004:4005  0 */\n              0x00\n                /* \"Campaign.sol\":3986:3994  requests */\n              dup1\n                /* \"Campaign.sol\":3986:4001  requests.length */\n              dup1\n              sload\n              swap1\n              pop\n                /* \"Campaign.sol\":3986:4005  requests.length > 0 */\n              gt\n                /* \"Campaign.sol\":3978:4006  require(requests.length > 0) */\n              tag_165\n              jumpi\n              0x00\n              dup1\n              revert\n            tag_165:\n                /* \"Campaign.sol\":4061:4062  1 */\n              0x01\n                /* \"Campaign.sol\":4043:4051  requests */\n              0x00\n                /* \"Campaign.sol\":4043:4058  requests.length */\n              dup1\n              sload\n              swap1\n              pop\n                /* \"Campaign.sol\":4043:4062  requests.length - 1 */\n              tag_166\n              swap2\n              swap1\n              tag_167\n              jump\t// in\n            tag_166:\n                /* \"Campaign.sol\":4025:4039  indexOfRequest */\n              dup2\n                /* \"Campaign.sol\":4025:4062  indexOfRequest <= requests.length - 1 */\n              gt\n              iszero\n                /* \"Campaign.sol\":4017:4063  require(indexOfRequest <= requests.length - 1) */\n              tag_168\n              jumpi\n              0x00\n              dup1\n              revert\n            tag_168:\n                /* \"Campaign.sol\":3862:4071  function confirmRequestExists(uint indexOfRequest) private view {... */\n              pop\n              jump\t// out\n            tag_145:\n              dup3\n              dup1\n              sload\n              tag_169\n              swap1\n              tag_105\n              jump\t// in\n            tag_169:\n              swap1\n              0x00\n              mstore\n              keccak256(0x00, 0x20)\n              swap1\n              0x1f\n              add\n              0x20\n              swap1\n              div\n              dup2\n              add\n              swap3\n              dup3\n              tag_171\n              jumpi\n              0x00\n              dup6\n              sstore\n              jump(tag_170)\n            tag_171:\n              dup3\n              0x1f\n              lt\n              tag_172\n              jumpi\n              dup1\n              mload\n              not(0xff)\n              and\n              dup4\n              dup1\n              add\n              or\n              dup6\n              sstore\n              jump(tag_170)\n            tag_172:\n              dup3\n              dup1\n              add\n              0x01\n              add\n              dup6\n              sstore\n              dup3\n              iszero\n              tag_170\n              jumpi\n              swap2\n              dup3\n              add\n            tag_173:\n              dup3\n              dup2\n              gt\n              iszero\n              tag_174\n              jumpi\n              dup3\n              mload\n              dup3\n              sstore\n              swap2\n              0x20\n              add\n              swap2\n              swap1\n              0x01\n              add\n              swap1\n              jump(tag_173)\n            tag_174:\n            tag_170:\n              pop\n              swap1\n              pop\n              tag_175\n              swap2\n              swap1\n              tag_176\n              jump\t// in\n            tag_175:\n              pop\n              swap1\n              jump\t// out\n            tag_176:\n            tag_177:\n              dup1\n              dup3\n              gt\n              iszero\n              tag_178\n              jumpi\n              0x00\n              dup2\n              0x00\n              swap1\n              sstore\n              pop\n              0x01\n              add\n              jump(tag_177)\n            tag_178:\n              pop\n              swap1\n              jump\t// out\n                /* \"#utility.yul\":7:82   */\n            tag_179:\n                /* \"#utility.yul\":40:46   */\n              0x00\n                /* \"#utility.yul\":73:75   */\n              0x40\n                /* \"#utility.yul\":67:76   */\n              mload\n                /* \"#utility.yul\":57:76   */\n              swap1\n              pop\n                /* \"#utility.yul\":7:82   */\n              swap1\n              jump\t// out\n                /* \"#utility.yul\":88:205   */\n            tag_180:\n                /* \"#utility.yul\":197:198   */\n              0x00\n                /* \"#utility.yul\":194:195   */\n              dup1\n                /* \"#utility.yul\":187:199   */\n              revert\n                /* \"#utility.yul\":211:328   */\n            tag_181:\n                /* \"#utility.yul\":320:321   */\n              0x00\n                /* \"#utility.yul\":317:318   */\n              dup1\n                /* \"#utility.yul\":310:322   */\n              revert\n                /* \"#utility.yul\":334:411   */\n            tag_182:\n                /* \"#utility.yul\":371:378   */\n              0x00\n                /* \"#utility.yul\":400:405   */\n              dup2\n                /* \"#utility.yul\":389:405   */\n              swap1\n              pop\n                /* \"#utility.yul\":334:411   */\n              swap2\n              swap1\n              pop\n              jump\t// out\n                /* \"#utility.yul\":417:539   */\n            tag_183:\n                /* \"#utility.yul\":490:514   */\n              tag_216\n                /* \"#utility.yul\":508:513   */\n              dup2\n                /* \"#utility.yul\":490:514   */\n              tag_182\n              jump\t// in\n            tag_216:\n                /* \"#utility.yul\":483:488   */\n              dup2\n                /* \"#utility.yul\":480:515   */\n              eq\n                /* \"#utility.yul\":470:533   */\n              tag_217\n              jumpi\n                /* \"#utility.yul\":529:530   */\n              0x00\n                /* \"#utility.yul\":526:527   */\n              dup1\n                /* \"#utility.yul\":519:531   */\n              revert\n                /* \"#utility.yul\":470:533   */\n            tag_217:\n                /* \"#utility.yul\":417:539   */\n              pop\n              jump\t// out\n                /* \"#utility.yul\":545:684   */\n            tag_184:\n                /* \"#utility.yul\":591:596   */\n              0x00\n                /* \"#utility.yul\":629:635   */\n              dup2\n                /* \"#utility.yul\":616:636   */\n              calldataload\n                /* \"#utility.yul\":607:636   */\n              swap1\n              pop\n                /* \"#utility.yul\":645:678   */\n              tag_219\n                /* \"#utility.yul\":672:677   */\n              dup2\n                /* \"#utility.yul\":645:678   */\n              tag_183\n              jump\t// in\n            tag_219:\n                /* \"#utility.yul\":545:684   */\n              swap3\n              swap2\n              pop\n              pop\n              jump\t// out\n                /* \"#utility.yul\":690:1019   */\n            tag_23:\n                /* \"#utility.yul\":749:755   */\n              0x00\n                /* \"#utility.yul\":798:800   */\n              0x20\n                /* \"#utility.yul\":786:795   */\n              dup3\n                /* \"#utility.yul\":777:784   */\n              dup5\n                /* \"#utility.yul\":773:796   */\n              sub\n                /* \"#utility.yul\":769:801   */\n              slt\n                /* \"#utility.yul\":766:885   */\n              iszero\n              tag_221\n              jumpi\n                /* \"#utility.yul\":804:883   */\n              tag_222\n              tag_180\n              jump\t// in\n            tag_222:\n                /* \"#utility.yul\":766:885   */\n            tag_221:\n                /* \"#utility.yul\":924:925   */\n              0x00\n                /* \"#utility.yul\":949:1002   */\n              tag_223\n                /* \"#utility.yul\":994:1001   */\n              dup5\n                /* \"#utility.yul\":985:991   */\n              dup3\n                /* \"#utility.yul\":974:983   */\n              dup6\n                /* \"#utility.yul\":970:992   */\n              add\n                /* \"#utility.yul\":949:1002   */\n              tag_184\n              jump\t// in\n            tag_223:\n                /* \"#utility.yul\":939:1002   */\n              swap2\n              pop\n                /* \"#utility.yul\":895:1012   */\n              pop\n                /* \"#utility.yul\":690:1019   */\n              swap3\n              swap2\n              pop\n              pop\n              jump\t// out\n                /* \"#utility.yul\":1025:1124   */\n            tag_185:\n                /* \"#utility.yul\":1077:1083   */\n              0x00\n                /* \"#utility.yul\":1111:1116   */\n              dup2\n                /* \"#utility.yul\":1105:1117   */\n              mload\n                /* \"#utility.yul\":1095:1117   */\n              swap1\n              pop\n                /* \"#utility.yul\":1025:1124   */\n              swap2\n              swap1\n              pop\n              jump\t// out\n                /* \"#utility.yul\":1130:1299   */\n            tag_186:\n                /* \"#utility.yul\":1214:1225   */\n              0x00\n                /* \"#utility.yul\":1248:1254   */\n              dup3\n                /* \"#utility.yul\":1243:1246   */\n              dup3\n                /* \"#utility.yul\":1236:1255   */\n              mstore\n                /* \"#utility.yul\":1288:1292   */\n              0x20\n                /* \"#utility.yul\":1283:1286   */\n              dup3\n                /* \"#utility.yul\":1279:1293   */\n              add\n                /* \"#utility.yul\":1264:1293   */\n              swap1\n              pop\n                /* \"#utility.yul\":1130:1299   */\n              swap3\n              swap2\n              pop\n              pop\n              jump\t// out\n                /* \"#utility.yul\":1305:1612   */\n            tag_187:\n                /* \"#utility.yul\":1373:1374   */\n              0x00\n                /* \"#utility.yul\":1383:1496   */\n            tag_227:\n                /* \"#utility.yul\":1397:1403   */\n              dup4\n                /* \"#utility.yul\":1394:1395   */\n              dup2\n                /* \"#utility.yul\":1391:1404   */\n              lt\n                /* \"#utility.yul\":1383:1496   */\n              iszero\n              tag_229\n              jumpi\n                /* \"#utility.yul\":1482:1483   */\n              dup1\n                /* \"#utility.yul\":1477:1480   */\n              dup3\n                /* \"#utility.yul\":1473:1484   */\n              add\n                /* \"#utility.yul\":1467:1485   */\n              mload\n                /* \"#utility.yul\":1463:1464   */\n              dup2\n                /* \"#utility.yul\":1458:1461   */\n              dup5\n                /* \"#utility.yul\":1454:1465   */\n              add\n                /* \"#utility.yul\":1447:1486   */\n              mstore\n                /* \"#utility.yul\":1419:1421   */\n              0x20\n                /* \"#utility.yul\":1416:1417   */\n              dup2\n                /* \"#utility.yul\":1412:1422   */\n              add\n                /* \"#utility.yul\":1407:1422   */\n              swap1\n              pop\n                /* \"#utility.yul\":1383:1496   */\n              jump(tag_227)\n            tag_229:\n                /* \"#utility.yul\":1514:1520   */\n              dup4\n                /* \"#utility.yul\":1511:1512   */\n              dup2\n                /* \"#utility.yul\":1508:1521   */\n              gt\n                /* \"#utility.yul\":1505:1606   */\n              iszero\n              tag_230\n              jumpi\n                /* \"#utility.yul\":1594:1595   */\n              0x00\n                /* \"#utility.yul\":1585:1591   */\n              dup5\n                /* \"#utility.yul\":1580:1583   */\n              dup5\n                /* \"#utility.yul\":1576:1592   */\n              add\n                /* \"#utility.yul\":1569:1596   */\n              mstore\n                /* \"#utility.yul\":1505:1606   */\n            tag_230:\n                /* \"#utility.yul\":1354:1612   */\n              pop\n                /* \"#utility.yul\":1305:1612   */\n              pop\n              pop\n              pop\n              jump\t// out\n                /* \"#utility.yul\":1618:1720   */\n            tag_188:\n                /* \"#utility.yul\":1659:1665   */\n              0x00\n                /* \"#utility.yul\":1710:1712   */\n              0x1f\n                /* \"#utility.yul\":1706:1713   */\n              not\n                /* \"#utility.yul\":1701:1703   */\n              0x1f\n                /* \"#utility.yul\":1694:1699   */\n              dup4\n                /* \"#utility.yul\":1690:1704   */\n              add\n                /* \"#utility.yul\":1686:1714   */\n              and\n                /* \"#utility.yul\":1676:1714   */\n              swap1\n              pop\n                /* \"#utility.yul\":1618:1720   */\n              swap2\n              swap1\n              pop\n              jump\t// out\n                /* \"#utility.yul\":1726:2090   */\n            tag_189:\n                /* \"#utility.yul\":1814:1817   */\n              0x00\n                /* \"#utility.yul\":1842:1881   */\n              tag_233\n                /* \"#utility.yul\":1875:1880   */\n              dup3\n                /* \"#utility.yul\":1842:1881   */\n              tag_185\n              jump\t// in\n            tag_233:\n                /* \"#utility.yul\":1897:1968   */\n              tag_234\n                /* \"#utility.yul\":1961:1967   */\n              dup2\n                /* \"#utility.yul\":1956:1959   */\n              dup6\n                /* \"#utility.yul\":1897:1968   */\n              tag_186\n              jump\t// in\n            tag_234:\n                /* \"#utility.yul\":1890:1968   */\n              swap4\n              pop\n                /* \"#utility.yul\":1977:2029   */\n              tag_235\n                /* \"#utility.yul\":2022:2028   */\n              dup2\n                /* \"#utility.yul\":2017:2020   */\n              dup6\n                /* \"#utility.yul\":2010:2014   */\n              0x20\n                /* \"#utility.yul\":2003:2008   */\n              dup7\n                /* \"#utility.yul\":1999:2015   */\n              add\n                /* \"#utility.yul\":1977:2029   */\n              tag_187\n              jump\t// in\n            tag_235:\n                /* \"#utility.yul\":2054:2083   */\n              tag_236\n                /* \"#utility.yul\":2076:2082   */\n              dup2\n                /* \"#utility.yul\":2054:2083   */\n              tag_188\n              jump\t// in\n            tag_236:\n                /* \"#utility.yul\":2049:2052   */\n              dup5\n                /* \"#utility.yul\":2045:2084   */\n              add\n                /* \"#utility.yul\":2038:2084   */\n              swap2\n              pop\n                /* \"#utility.yul\":1818:2090   */\n              pop\n                /* \"#utility.yul\":1726:2090   */\n              swap3\n              swap2\n              pop\n              pop\n              jump\t// out\n                /* \"#utility.yul\":2096:2409   */\n            tag_29:\n                /* \"#utility.yul\":2209:2213   */\n              0x00\n                /* \"#utility.yul\":2247:2249   */\n              0x20\n                /* \"#utility.yul\":2236:2245   */\n              dup3\n                /* \"#utility.yul\":2232:2250   */\n              add\n                /* \"#utility.yul\":2224:2250   */\n              swap1\n              pop\n                /* \"#utility.yul\":2296:2305   */\n              dup2\n                /* \"#utility.yul\":2290:2294   */\n              dup2\n                /* \"#utility.yul\":2286:2306   */\n              sub\n                /* \"#utility.yul\":2282:2283   */\n              0x00\n                /* \"#utility.yul\":2271:2280   */\n              dup4\n                /* \"#utility.yul\":2267:2284   */\n              add\n                /* \"#utility.yul\":2260:2307   */\n              mstore\n                /* \"#utility.yul\":2324:2402   */\n              tag_238\n                /* \"#utility.yul\":2397:2401   */\n              dup2\n                /* \"#utility.yul\":2388:2394   */\n              dup5\n                /* \"#utility.yul\":2324:2402   */\n              tag_189\n              jump\t// in\n            tag_238:\n                /* \"#utility.yul\":2316:2402   */\n              swap1\n              pop\n                /* \"#utility.yul\":2096:2409   */\n              swap3\n              swap2\n              pop\n              pop\n              jump\t// out\n                /* \"#utility.yul\":2415:2541   */\n            tag_190:\n                /* \"#utility.yul\":2452:2459   */\n              0x00\n                /* \"#utility.yul\":2492:2534   */\n              0xffffffffffffffffffffffffffffffffffffffff\n                /* \"#utility.yul\":2485:2490   */\n              dup3\n                /* \"#utility.yul\":2481:2535   */\n              and\n                /* \"#utility.yul\":2470:2535   */\n              swap1\n              pop\n                /* \"#utility.yul\":2415:2541   */\n              swap2\n              swap1\n              pop\n              jump\t// out\n                /* \"#utility.yul\":2547:2643   */\n            tag_191:\n                /* \"#utility.yul\":2584:2591   */\n              0x00\n                /* \"#utility.yul\":2613:2637   */\n              tag_241\n                /* \"#utility.yul\":2631:2636   */\n              dup3\n                /* \"#utility.yul\":2613:2637   */\n              tag_190\n              jump\t// in\n            tag_241:\n                /* \"#utility.yul\":2602:2637   */\n              swap1\n              pop\n                /* \"#utility.yul\":2547:2643   */\n              swap2\n              swap1\n              pop\n              jump\t// out\n                /* \"#utility.yul\":2649:2771   */\n            tag_192:\n                /* \"#utility.yul\":2722:2746   */\n              tag_243\n                /* \"#utility.yul\":2740:2745   */\n              dup2\n                /* \"#utility.yul\":2722:2746   */\n              tag_191\n              jump\t// in\n            tag_243:\n                /* \"#utility.yul\":2715:2720   */\n              dup2\n                /* \"#utility.yul\":2712:2747   */\n              eq\n                /* \"#utility.yul\":2702:2765   */\n              tag_244\n              jumpi\n                /* \"#utility.yul\":2761:2762   */\n              0x00\n                /* \"#utility.yul\":2758:2759   */\n              dup1\n                /* \"#utility.yul\":2751:2763   */\n              revert\n                /* \"#utility.yul\":2702:2765   */\n            tag_244:\n                /* \"#utility.yul\":2649:2771   */\n              pop\n              jump\t// out\n                /* \"#utility.yul\":2777:2916   */\n            tag_193:\n                /* \"#utility.yul\":2823:2828   */\n              0x00\n                /* \"#utility.yul\":2861:2867   */\n              dup2\n                /* \"#utility.yul\":2848:2868   */\n              calldataload\n                /* \"#utility.yul\":2839:2868   */\n              swap1\n              pop\n                /* \"#utility.yul\":2877:2910   */\n              tag_246\n                /* \"#utility.yul\":2904:2909   */\n              dup2\n                /* \"#utility.yul\":2877:2910   */\n              tag_192\n              jump\t// in\n            tag_246:\n                /* \"#utility.yul\":2777:2916   */\n              swap3\n              swap2\n              pop\n              pop\n              jump\t// out\n                /* \"#utility.yul\":2922:3251   */\n            tag_33:\n                /* \"#utility.yul\":2981:2987   */\n              0x00\n                /* \"#utility.yul\":3030:3032   */\n              0x20\n                /* \"#utility.yul\":3018:3027   */\n              dup3\n                /* \"#utility.yul\":3009:3016   */\n              dup5\n                /* \"#utility.yul\":3005:3028   */\n              sub\n                /* \"#utility.yul\":3001:3033   */\n              slt\n                /* \"#utility.yul\":2998:3117   */\n              iszero\n              tag_248\n              jumpi\n                /* \"#utility.yul\":3036:3115   */\n              tag_249\n              tag_180\n              jump\t// in\n            tag_249:\n                /* \"#utility.yul\":2998:3117   */\n            tag_248:\n                /* \"#utility.yul\":3156:3157   */\n              0x00\n                /* \"#utility.yul\":3181:3234   */\n              tag_250\n                /* \"#utility.yul\":3226:3233   */\n              dup5\n                /* \"#utility.yul\":3217:3223   */\n              dup3\n                /* \"#utility.yul\":3206:3215   */\n              dup6\n                /* \"#utility.yul\":3202:3224   */\n              add\n                /* \"#utility.yul\":3181:3234   */\n              tag_193\n              jump\t// in\n            tag_250:\n                /* \"#utility.yul\":3171:3234   */\n              swap2\n              pop\n                /* \"#utility.yul\":3127:3244   */\n              pop\n                /* \"#utility.yul\":2922:3251   */\n              swap3\n              swap2\n              pop\n              pop\n              jump\t// out\n                /* \"#utility.yul\":3257:3347   */\n            tag_194:\n                /* \"#utility.yul\":3291:3298   */\n              0x00\n                /* \"#utility.yul\":3334:3339   */\n              dup2\n                /* \"#utility.yul\":3327:3340   */\n              iszero\n                /* \"#utility.yul\":3320:3341   */\n              iszero\n                /* \"#utility.yul\":3309:3341   */\n              swap1\n              pop\n                /* \"#utility.yul\":3257:3347   */\n              swap2\n              swap1\n              pop\n              jump\t// out\n                /* \"#utility.yul\":3353:3462   */\n            tag_195:\n                /* \"#utility.yul\":3434:3455   */\n              tag_253\n                /* \"#utility.yul\":3449:3454   */\n              dup2\n                /* \"#utility.yul\":3434:3455   */\n              tag_194\n              jump\t// in\n            tag_253:\n                /* \"#utility.yul\":3429:3432   */\n              dup3\n                /* \"#utility.yul\":3422:3456   */\n              mstore\n                /* \"#utility.yul\":3353:3462   */\n              pop\n              pop\n              jump\t// out\n                /* \"#utility.yul\":3468:3678   */\n            tag_36:\n                /* \"#utility.yul\":3555:3559   */\n              0x00\n                /* \"#utility.yul\":3593:3595   */\n              0x20\n                /* \"#utility.yul\":3582:3591   */\n              dup3\n                /* \"#utility.yul\":3578:3596   */\n              add\n                /* \"#utility.yul\":3570:3596   */\n              swap1\n              pop\n                /* \"#utility.yul\":3606:3671   */\n              tag_255\n                /* \"#utility.yul\":3668:3669   */\n              0x00\n                /* \"#utility.yul\":3657:3666   */\n              dup4\n                /* \"#utility.yul\":3653:3670   */\n              add\n                /* \"#utility.yul\":3644:3650   */\n              dup5\n                /* \"#utility.yul\":3606:3671   */\n              tag_195\n              jump\t// in\n            tag_255:\n                /* \"#utility.yul\":3468:3678   */\n              swap3\n              swap2\n              pop\n              pop\n              jump\t// out\n                /* \"#utility.yul\":3684:3802   */\n            tag_196:\n                /* \"#utility.yul\":3771:3795   */\n              tag_257\n                /* \"#utility.yul\":3789:3794   */\n              dup2\n                /* \"#utility.yul\":3771:3795   */\n              tag_182\n              jump\t// in\n            tag_257:\n                /* \"#utility.yul\":3766:3769   */\n              dup3\n                /* \"#utility.yul\":3759:3796   */\n              mstore\n                /* \"#utility.yul\":3684:3802   */\n              pop\n              pop\n              jump\t// out\n                /* \"#utility.yul\":3808:4030   */\n            tag_45:\n                /* \"#utility.yul\":3901:3905   */\n              0x00\n                /* \"#utility.yul\":3939:3941   */\n              0x20\n                /* \"#utility.yul\":3928:3937   */\n              dup3\n                /* \"#utility.yul\":3924:3942   */\n              add\n                /* \"#utility.yul\":3916:3942   */\n              swap1\n              pop\n                /* \"#utility.yul\":3952:4023   */\n              tag_259\n                /* \"#utility.yul\":4020:4021   */\n              0x00\n                /* \"#utility.yul\":4009:4018   */\n              dup4\n                /* \"#utility.yul\":4005:4022   */\n              add\n                /* \"#utility.yul\":3996:4002   */\n              dup5\n                /* \"#utility.yul\":3952:4023   */\n              tag_196\n              jump\t// in\n            tag_259:\n                /* \"#utility.yul\":3808:4030   */\n              swap3\n              swap2\n              pop\n              pop\n              jump\t// out\n                /* \"#utility.yul\":4036:4154   */\n            tag_197:\n                /* \"#utility.yul\":4123:4147   */\n              tag_261\n                /* \"#utility.yul\":4141:4146   */\n              dup2\n                /* \"#utility.yul\":4123:4147   */\n              tag_191\n              jump\t// in\n            tag_261:\n                /* \"#utility.yul\":4118:4121   */\n              dup3\n                /* \"#utility.yul\":4111:4148   */\n              mstore\n                /* \"#utility.yul\":4036:4154   */\n              pop\n              pop\n              jump\t// out\n                /* \"#utility.yul\":4160:5430   */\n            tag_50:\n                /* \"#utility.yul\":4509:4513   */\n              0x00\n                /* \"#utility.yul\":4547:4550   */\n              0x0100\n                /* \"#utility.yul\":4536:4545   */\n              dup3\n                /* \"#utility.yul\":4532:4551   */\n              add\n                /* \"#utility.yul\":4524:4551   */\n              swap1\n              pop\n                /* \"#utility.yul\":4561:4632   */\n              tag_263\n                /* \"#utility.yul\":4629:4630   */\n              0x00\n                /* \"#utility.yul\":4618:4627   */\n              dup4\n                /* \"#utility.yul\":4614:4631   */\n              add\n                /* \"#utility.yul\":4605:4611   */\n              dup12\n                /* \"#utility.yul\":4561:4632   */\n              tag_196\n              jump\t// in\n            tag_263:\n                /* \"#utility.yul\":4642:4714   */\n              tag_264\n                /* \"#utility.yul\":4710:4712   */\n              0x20\n                /* \"#utility.yul\":4699:4708   */\n              dup4\n                /* \"#utility.yul\":4695:4713   */\n              add\n                /* \"#utility.yul\":4686:4692   */\n              dup11\n                /* \"#utility.yul\":4642:4714   */\n              tag_196\n              jump\t// in\n            tag_264:\n                /* \"#utility.yul\":4724:4796   */\n              tag_265\n                /* \"#utility.yul\":4792:4794   */\n              0x40\n                /* \"#utility.yul\":4781:4790   */\n              dup4\n                /* \"#utility.yul\":4777:4795   */\n              add\n                /* \"#utility.yul\":4768:4774   */\n              dup10\n                /* \"#utility.yul\":4724:4796   */\n              tag_196\n              jump\t// in\n            tag_265:\n                /* \"#utility.yul\":4806:4878   */\n              tag_266\n                /* \"#utility.yul\":4874:4876   */\n              0x60\n                /* \"#utility.yul\":4863:4872   */\n              dup4\n                /* \"#utility.yul\":4859:4877   */\n              add\n                /* \"#utility.yul\":4850:4856   */\n              dup9\n                /* \"#utility.yul\":4806:4878   */\n              tag_196\n              jump\t// in\n            tag_266:\n                /* \"#utility.yul\":4888:4961   */\n              tag_267\n                /* \"#utility.yul\":4956:4959   */\n              0x80\n                /* \"#utility.yul\":4945:4954   */\n              dup4\n                /* \"#utility.yul\":4941:4960   */\n              add\n                /* \"#utility.yul\":4932:4938   */\n              dup8\n                /* \"#utility.yul\":4888:4961   */\n              tag_197\n              jump\t// in\n            tag_267:\n                /* \"#utility.yul\":5009:5018   */\n              dup2\n                /* \"#utility.yul\":5003:5007   */\n              dup2\n                /* \"#utility.yul\":4999:5019   */\n              sub\n                /* \"#utility.yul\":4993:4996   */\n              0xa0\n                /* \"#utility.yul\":4982:4991   */\n              dup4\n                /* \"#utility.yul\":4978:4997   */\n              add\n                /* \"#utility.yul\":4971:5020   */\n              mstore\n                /* \"#utility.yul\":5037:5115   */\n              tag_268\n                /* \"#utility.yul\":5110:5114   */\n              dup2\n                /* \"#utility.yul\":5101:5107   */\n              dup7\n                /* \"#utility.yul\":5037:5115   */\n              tag_189\n              jump\t// in\n            tag_268:\n                /* \"#utility.yul\":5029:5115   */\n              swap1\n              pop\n                /* \"#utility.yul\":5163:5172   */\n              dup2\n                /* \"#utility.yul\":5157:5161   */\n              dup2\n                /* \"#utility.yul\":5153:5173   */\n              sub\n                /* \"#utility.yul\":5147:5150   */\n              0xc0\n                /* \"#utility.yul\":5136:5145   */\n              dup4\n                /* \"#utility.yul\":5132:5151   */\n              add\n                /* \"#utility.yul\":5125:5174   */\n              mstore\n                /* \"#utility.yul\":5191:5269   */\n              tag_269\n                /* \"#utility.yul\":5264:5268   */\n              dup2\n                /* \"#utility.yul\":5255:5261   */\n              dup6\n                /* \"#utility.yul\":5191:5269   */\n              tag_189\n              jump\t// in\n            tag_269:\n                /* \"#utility.yul\":5183:5269   */\n              swap1\n              pop\n                /* \"#utility.yul\":5317:5326   */\n              dup2\n                /* \"#utility.yul\":5311:5315   */\n              dup2\n                /* \"#utility.yul\":5307:5327   */\n              sub\n                /* \"#utility.yul\":5301:5304   */\n              0xe0\n                /* \"#utility.yul\":5290:5299   */\n              dup4\n                /* \"#utility.yul\":5286:5305   */\n              add\n                /* \"#utility.yul\":5279:5328   */\n              mstore\n                /* \"#utility.yul\":5345:5423   */\n              tag_270\n                /* \"#utility.yul\":5418:5422   */\n              dup2\n                /* \"#utility.yul\":5409:5415   */\n              dup5\n                /* \"#utility.yul\":5345:5423   */\n              tag_189\n              jump\t// in\n            tag_270:\n                /* \"#utility.yul\":5337:5423   */\n              swap1\n              pop\n                /* \"#utility.yul\":4160:5430   */\n              swap10\n              swap9\n              pop\n              pop\n              pop\n              pop\n              pop\n              pop\n              pop\n              pop\n              pop\n              jump\t// out\n                /* \"#utility.yul\":5436:5658   */\n            tag_55:\n                /* \"#utility.yul\":5529:5533   */\n              0x00\n                /* \"#utility.yul\":5567:5569   */\n              0x20\n                /* \"#utility.yul\":5556:5565   */\n              dup3\n                /* \"#utility.yul\":5552:5570   */\n              add\n                /* \"#utility.yul\":5544:5570   */\n              swap1\n              pop\n                /* \"#utility.yul\":5580:5651   */\n              tag_272\n                /* \"#utility.yul\":5648:5649   */\n              0x00\n                /* \"#utility.yul\":5637:5646   */\n              dup4\n                /* \"#utility.yul\":5633:5650   */\n              add\n                /* \"#utility.yul\":5624:5630   */\n              dup5\n                /* \"#utility.yul\":5580:5651   */\n              tag_197\n              jump\t// in\n            tag_272:\n                /* \"#utility.yul\":5436:5658   */\n              swap3\n              swap2\n              pop\n              pop\n              jump\t// out\n                /* \"#utility.yul\":5664:6407   */\n            tag_65:\n                /* \"#utility.yul\":5883:5887   */\n              0x00\n                /* \"#utility.yul\":5921:5924   */\n              0xa0\n                /* \"#utility.yul\":5910:5919   */\n              dup3\n                /* \"#utility.yul\":5906:5925   */\n              add\n                /* \"#utility.yul\":5898:5925   */\n              swap1\n              pop\n                /* \"#utility.yul\":5971:5980   */\n              dup2\n                /* \"#utility.yul\":5965:5969   */\n              dup2\n                /* \"#utility.yul\":5961:5981   */\n              sub\n                /* \"#utility.yul\":5957:5958   */\n              0x00\n                /* \"#utility.yul\":5946:5955   */\n              dup4\n                /* \"#utility.yul\":5942:5959   */\n              add\n                /* \"#utility.yul\":5935:5982   */\n              mstore\n                /* \"#utility.yul\":5999:6077   */\n              tag_274\n                /* \"#utility.yul\":6072:6076   */\n              dup2\n                /* \"#utility.yul\":6063:6069   */\n              dup9\n                /* \"#utility.yul\":5999:6077   */\n              tag_189\n              jump\t// in\n            tag_274:\n                /* \"#utility.yul\":5991:6077   */\n              swap1\n              pop\n                /* \"#utility.yul\":6087:6159   */\n              tag_275\n                /* \"#utility.yul\":6155:6157   */\n              0x20\n                /* \"#utility.yul\":6144:6153   */\n              dup4\n                /* \"#utility.yul\":6140:6158   */\n              add\n                /* \"#utility.yul\":6131:6137   */\n              dup8\n                /* \"#utility.yul\":6087:6159   */\n              tag_196\n              jump\t// in\n            tag_275:\n                /* \"#utility.yul\":6169:6241   */\n              tag_276\n                /* \"#utility.yul\":6237:6239   */\n              0x40\n                /* \"#utility.yul\":6226:6235   */\n              dup4\n                /* \"#utility.yul\":6222:6240   */\n              add\n                /* \"#utility.yul\":6213:6219   */\n              dup7\n                /* \"#utility.yul\":6169:6241   */\n              tag_197\n              jump\t// in\n            tag_276:\n                /* \"#utility.yul\":6251:6317   */\n              tag_277\n                /* \"#utility.yul\":6313:6315   */\n              0x60\n                /* \"#utility.yul\":6302:6311   */\n              dup4\n                /* \"#utility.yul\":6298:6316   */\n              add\n                /* \"#utility.yul\":6289:6295   */\n              dup6\n                /* \"#utility.yul\":6251:6317   */\n              tag_195\n              jump\t// in\n            tag_277:\n                /* \"#utility.yul\":6327:6400   */\n              tag_278\n                /* \"#utility.yul\":6395:6398   */\n              0x80\n                /* \"#utility.yul\":6384:6393   */\n              dup4\n                /* \"#utility.yul\":6380:6399   */\n              add\n                /* \"#utility.yul\":6371:6377   */\n              dup5\n                /* \"#utility.yul\":6327:6400   */\n              tag_196\n              jump\t// in\n            tag_278:\n                /* \"#utility.yul\":5664:6407   */\n              swap7\n              swap6\n              pop\n              pop\n              pop\n              pop\n              pop\n              pop\n              jump\t// out\n                /* \"#utility.yul\":6413:6530   */\n            tag_198:\n                /* \"#utility.yul\":6522:6523   */\n              0x00\n                /* \"#utility.yul\":6519:6520   */\n              dup1\n                /* \"#utility.yul\":6512:6524   */\n              revert\n                /* \"#utility.yul\":6536:6653   */\n            tag_199:\n                /* \"#utility.yul\":6645:6646   */\n              0x00\n                /* \"#utility.yul\":6642:6643   */\n              dup1\n                /* \"#utility.yul\":6635:6647   */\n              revert\n                /* \"#utility.yul\":6659:6839   */\n            tag_200:\n                /* \"#utility.yul\":6707:6784   */\n              0x4e487b7100000000000000000000000000000000000000000000000000000000\n                /* \"#utility.yul\":6704:6705   */\n              0x00\n                /* \"#utility.yul\":6697:6785   */\n              mstore\n                /* \"#utility.yul\":6804:6808   */\n              0x41\n                /* \"#utility.yul\":6801:6802   */\n              0x04\n                /* \"#utility.yul\":6794:6809   */\n              mstore\n                /* \"#utility.yul\":6828:6832   */\n              0x24\n                /* \"#utility.yul\":6825:6826   */\n              0x00\n                /* \"#utility.yul\":6818:6833   */\n              revert\n                /* \"#utility.yul\":6845:7126   */\n            tag_201:\n                /* \"#utility.yul\":6928:6955   */\n              tag_283\n                /* \"#utility.yul\":6950:6954   */\n              dup3\n                /* \"#utility.yul\":6928:6955   */\n              tag_188\n              jump\t// in\n            tag_283:\n                /* \"#utility.yul\":6920:6926   */\n              dup2\n                /* \"#utility.yul\":6916:6956   */\n              add\n                /* \"#utility.yul\":7058:7064   */\n              dup2\n                /* \"#utility.yul\":7046:7056   */\n              dup2\n                /* \"#utility.yul\":7043:7065   */\n              lt\n                /* \"#utility.yul\":7022:7040   */\n              0xffffffffffffffff\n                /* \"#utility.yul\":7010:7020   */\n              dup3\n                /* \"#utility.yul\":7007:7041   */\n              gt\n                /* \"#utility.yul\":7004:7066   */\n              or\n                /* \"#utility.yul\":7001:7089   */\n              iszero\n              tag_284\n              jumpi\n                /* \"#utility.yul\":7069:7087   */\n              tag_285\n              tag_200\n              jump\t// in\n            tag_285:\n                /* \"#utility.yul\":7001:7089   */\n            tag_284:\n                /* \"#utility.yul\":7109:7119   */\n              dup1\n                /* \"#utility.yul\":7105:7107   */\n              0x40\n                /* \"#utility.yul\":7098:7120   */\n              mstore\n                /* \"#utility.yul\":6888:7126   */\n              pop\n                /* \"#utility.yul\":6845:7126   */\n              pop\n              pop\n              jump\t// out\n                /* \"#utility.yul\":7132:7261   */\n            tag_202:\n                /* \"#utility.yul\":7166:7172   */\n              0x00\n                /* \"#utility.yul\":7193:7213   */\n              tag_287\n              tag_179\n              jump\t// in\n            tag_287:\n                /* \"#utility.yul\":7183:7213   */\n              swap1\n              pop\n                /* \"#utility.yul\":7222:7255   */\n              tag_288\n                /* \"#utility.yul\":7250:7254   */\n              dup3\n                /* \"#utility.yul\":7242:7248   */\n              dup3\n                /* \"#utility.yul\":7222:7255   */\n              tag_201\n              jump\t// in\n            tag_288:\n                /* \"#utility.yul\":7132:7261   */\n              swap2\n              swap1\n              pop\n              jump\t// out\n                /* \"#utility.yul\":7267:7575   */\n            tag_203:\n                /* \"#utility.yul\":7329:7333   */\n              0x00\n                /* \"#utility.yul\":7419:7437   */\n              0xffffffffffffffff\n                /* \"#utility.yul\":7411:7417   */\n              dup3\n                /* \"#utility.yul\":7408:7438   */\n              gt\n                /* \"#utility.yul\":7405:7461   */\n              iszero\n              tag_290\n              jumpi\n                /* \"#utility.yul\":7441:7459   */\n              tag_291\n              tag_200\n              jump\t// in\n            tag_291:\n                /* \"#utility.yul\":7405:7461   */\n            tag_290:\n                /* \"#utility.yul\":7479:7508   */\n              tag_292\n                /* \"#utility.yul\":7501:7507   */\n              dup3\n                /* \"#utility.yul\":7479:7508   */\n              tag_188\n              jump\t// in\n            tag_292:\n                /* \"#utility.yul\":7471:7508   */\n              swap1\n              pop\n                /* \"#utility.yul\":7563:7567   */\n              0x20\n                /* \"#utility.yul\":7557:7561   */\n              dup2\n                /* \"#utility.yul\":7553:7568   */\n              add\n                /* \"#utility.yul\":7545:7568   */\n              swap1\n              pop\n                /* \"#utility.yul\":7267:7575   */\n              swap2\n              swap1\n              pop\n              jump\t// out\n                /* \"#utility.yul\":7581:7735   */\n            tag_204:\n                /* \"#utility.yul\":7665:7671   */\n              dup3\n                /* \"#utility.yul\":7660:7663   */\n              dup2\n                /* \"#utility.yul\":7655:7658   */\n              dup4\n                /* \"#utility.yul\":7642:7672   */\n              calldatacopy\n                /* \"#utility.yul\":7727:7728   */\n              0x00\n                /* \"#utility.yul\":7718:7724   */\n              dup4\n                /* \"#utility.yul\":7713:7716   */\n              dup4\n                /* \"#utility.yul\":7709:7725   */\n              add\n                /* \"#utility.yul\":7702:7729   */\n              mstore\n                /* \"#utility.yul\":7581:7735   */\n              pop\n              pop\n              pop\n              jump\t// out\n                /* \"#utility.yul\":7741:8153   */\n            tag_205:\n                /* \"#utility.yul\":7819:7824   */\n              0x00\n                /* \"#utility.yul\":7844:7910   */\n              tag_295\n                /* \"#utility.yul\":7860:7909   */\n              tag_296\n                /* \"#utility.yul\":7902:7908   */\n              dup5\n                /* \"#utility.yul\":7860:7909   */\n              tag_203\n              jump\t// in\n            tag_296:\n                /* \"#utility.yul\":7844:7910   */\n              tag_202\n              jump\t// in\n            tag_295:\n                /* \"#utility.yul\":7835:7910   */\n              swap1\n              pop\n                /* \"#utility.yul\":7933:7939   */\n              dup3\n                /* \"#utility.yul\":7926:7931   */\n              dup2\n                /* \"#utility.yul\":7919:7940   */\n              mstore\n                /* \"#utility.yul\":7971:7975   */\n              0x20\n                /* \"#utility.yul\":7964:7969   */\n              dup2\n                /* \"#utility.yul\":7960:7976   */\n              add\n                /* \"#utility.yul\":8009:8012   */\n              dup5\n                /* \"#utility.yul\":8000:8006   */\n              dup5\n                /* \"#utility.yul\":7995:7998   */\n              dup5\n                /* \"#utility.yul\":7991:8007   */\n              add\n                /* \"#utility.yul\":7988:8013   */\n              gt\n                /* \"#utility.yul\":7985:8097   */\n              iszero\n              tag_297\n              jumpi\n                /* \"#utility.yul\":8016:8095   */\n              tag_298\n              tag_199\n              jump\t// in\n            tag_298:\n                /* \"#utility.yul\":7985:8097   */\n            tag_297:\n                /* \"#utility.yul\":8106:8147   */\n              tag_299\n                /* \"#utility.yul\":8140:8146   */\n              dup5\n                /* \"#utility.yul\":8135:8138   */\n              dup3\n                /* \"#utility.yul\":8130:8133   */\n              dup6\n                /* \"#utility.yul\":8106:8147   */\n              tag_204\n              jump\t// in\n            tag_299:\n                /* \"#utility.yul\":7825:8153   */\n              pop\n                /* \"#utility.yul\":7741:8153   */\n              swap4\n              swap3\n              pop\n              pop\n              pop\n              jump\t// out\n                /* \"#utility.yul\":8173:8513   */\n            tag_206:\n                /* \"#utility.yul\":8229:8234   */\n              0x00\n                /* \"#utility.yul\":8278:8281   */\n              dup3\n                /* \"#utility.yul\":8271:8275   */\n              0x1f\n                /* \"#utility.yul\":8263:8269   */\n              dup4\n                /* \"#utility.yul\":8259:8276   */\n              add\n                /* \"#utility.yul\":8255:8282   */\n              slt\n                /* \"#utility.yul\":8245:8367   */\n              tag_301\n              jumpi\n                /* \"#utility.yul\":8286:8365   */\n              tag_302\n              tag_198\n              jump\t// in\n            tag_302:\n                /* \"#utility.yul\":8245:8367   */\n            tag_301:\n                /* \"#utility.yul\":8403:8409   */\n              dup2\n                /* \"#utility.yul\":8390:8410   */\n              calldataload\n                /* \"#utility.yul\":8428:8507   */\n              tag_303\n                /* \"#utility.yul\":8503:8506   */\n              dup5\n                /* \"#utility.yul\":8495:8501   */\n              dup3\n                /* \"#utility.yul\":8488:8492   */\n              0x20\n                /* \"#utility.yul\":8480:8486   */\n              dup7\n                /* \"#utility.yul\":8476:8493   */\n              add\n                /* \"#utility.yul\":8428:8507   */\n              tag_205\n              jump\t// in\n            tag_303:\n                /* \"#utility.yul\":8419:8507   */\n              swap2\n              pop\n                /* \"#utility.yul\":8235:8513   */\n              pop\n                /* \"#utility.yul\":8173:8513   */\n              swap3\n              swap2\n              pop\n              pop\n              jump\t// out\n                /* \"#utility.yul\":8519:9318   */\n            tag_73:\n                /* \"#utility.yul\":8606:8612   */\n              0x00\n                /* \"#utility.yul\":8614:8620   */\n              dup1\n                /* \"#utility.yul\":8622:8628   */\n              0x00\n                /* \"#utility.yul\":8671:8673   */\n              0x60\n                /* \"#utility.yul\":8659:8668   */\n              dup5\n                /* \"#utility.yul\":8650:8657   */\n              dup7\n                /* \"#utility.yul\":8646:8669   */\n              sub\n                /* \"#utility.yul\":8642:8674   */\n              slt\n                /* \"#utility.yul\":8639:8758   */\n              iszero\n              tag_305\n              jumpi\n                /* \"#utility.yul\":8677:8756   */\n              tag_306\n              tag_180\n              jump\t// in\n            tag_306:\n                /* \"#utility.yul\":8639:8758   */\n            tag_305:\n                /* \"#utility.yul\":8825:8826   */\n              0x00\n                /* \"#utility.yul\":8814:8823   */\n              dup5\n                /* \"#utility.yul\":8810:8827   */\n              add\n                /* \"#utility.yul\":8797:8828   */\n              calldataload\n                /* \"#utility.yul\":8855:8873   */\n              0xffffffffffffffff\n                /* \"#utility.yul\":8847:8853   */\n              dup2\n                /* \"#utility.yul\":8844:8874   */\n              gt\n                /* \"#utility.yul\":8841:8958   */\n              iszero\n              tag_307\n              jumpi\n                /* \"#utility.yul\":8877:8956   */\n              tag_308\n              tag_181\n              jump\t// in\n            tag_308:\n                /* \"#utility.yul\":8841:8958   */\n            tag_307:\n                /* \"#utility.yul\":8982:9045   */\n              tag_309\n                /* \"#utility.yul\":9037:9044   */\n              dup7\n                /* \"#utility.yul\":9028:9034   */\n              dup3\n                /* \"#utility.yul\":9017:9026   */\n              dup8\n                /* \"#utility.yul\":9013:9035   */\n              add\n                /* \"#utility.yul\":8982:9045   */\n              tag_206\n              jump\t// in\n            tag_309:\n                /* \"#utility.yul\":8972:9045   */\n              swap4\n              pop\n                /* \"#utility.yul\":8768:9055   */\n              pop\n                /* \"#utility.yul\":9094:9096   */\n              0x20\n                /* \"#utility.yul\":9120:9173   */\n              tag_310\n                /* \"#utility.yul\":9165:9172   */\n              dup7\n                /* \"#utility.yul\":9156:9162   */\n              dup3\n                /* \"#utility.yul\":9145:9154   */\n              dup8\n                /* \"#utility.yul\":9141:9163   */\n              add\n                /* \"#utility.yul\":9120:9173   */\n              tag_184\n              jump\t// in\n            tag_310:\n                /* \"#utility.yul\":9110:9173   */\n              swap3\n              pop\n                /* \"#utility.yul\":9065:9183   */\n              pop\n                /* \"#utility.yul\":9222:9224   */\n              0x40\n                /* \"#utility.yul\":9248:9301   */\n              tag_311\n                /* \"#utility.yul\":9293:9300   */\n              dup7\n                /* \"#utility.yul\":9284:9290   */\n              dup3\n                /* \"#utility.yul\":9273:9282   */\n              dup8\n                /* \"#utility.yul\":9269:9291   */\n              add\n                /* \"#utility.yul\":9248:9301   */\n              tag_193\n              jump\t// in\n            tag_311:\n                /* \"#utility.yul\":9238:9301   */\n              swap2\n              pop\n                /* \"#utility.yul\":9193:9311   */\n              pop\n                /* \"#utility.yul\":8519:9318   */\n              swap3\n              pop\n              swap3\n              pop\n              swap3\n              jump\t// out\n                /* \"#utility.yul\":9324:9504   */\n            tag_96:\n                /* \"#utility.yul\":9372:9449   */\n              0x4e487b7100000000000000000000000000000000000000000000000000000000\n                /* \"#utility.yul\":9369:9370   */\n              0x00\n                /* \"#utility.yul\":9362:9450   */\n              mstore\n                /* \"#utility.yul\":9469:9473   */\n              0x32\n                /* \"#utility.yul\":9466:9467   */\n              0x04\n                /* \"#utility.yul\":9459:9474   */\n              mstore\n                /* \"#utility.yul\":9493:9497   */\n              0x24\n                /* \"#utility.yul\":9490:9491   */\n              0x00\n                /* \"#utility.yul\":9483:9498   */\n              revert\n                /* \"#utility.yul\":9510:9690   */\n            tag_207:\n                /* \"#utility.yul\":9558:9635   */\n              0x4e487b7100000000000000000000000000000000000000000000000000000000\n                /* \"#utility.yul\":9555:9556   */\n              0x00\n                /* \"#utility.yul\":9548:9636   */\n              mstore\n                /* \"#utility.yul\":9655:9659   */\n              0x12\n                /* \"#utility.yul\":9652:9653   */\n              0x04\n                /* \"#utility.yul\":9645:9660   */\n              mstore\n                /* \"#utility.yul\":9679:9683   */\n              0x24\n                /* \"#utility.yul\":9676:9677   */\n              0x00\n                /* \"#utility.yul\":9669:9684   */\n              revert\n                /* \"#utility.yul\":9696:9876   */\n            tag_208:\n                /* \"#utility.yul\":9744:9821   */\n              0x4e487b7100000000000000000000000000000000000000000000000000000000\n                /* \"#utility.yul\":9741:9742   */\n              0x00\n                /* \"#utility.yul\":9734:9822   */\n              mstore\n                /* \"#utility.yul\":9841:9845   */\n              0x11\n                /* \"#utility.yul\":9838:9839   */\n              0x04\n                /* \"#utility.yul\":9831:9846   */\n              mstore\n                /* \"#utility.yul\":9865:9869   */\n              0x24\n                /* \"#utility.yul\":9862:9863   */\n              0x00\n                /* \"#utility.yul\":9855:9870   */\n              revert\n                /* \"#utility.yul\":9882:10067   */\n            tag_99:\n                /* \"#utility.yul\":9922:9923   */\n              0x00\n                /* \"#utility.yul\":9939:9959   */\n              tag_316\n                /* \"#utility.yul\":9957:9958   */\n              dup3\n                /* \"#utility.yul\":9939:9959   */\n              tag_182\n              jump\t// in\n            tag_316:\n                /* \"#utility.yul\":9934:9959   */\n              swap2\n              pop\n                /* \"#utility.yul\":9973:9993   */\n              tag_317\n                /* \"#utility.yul\":9991:9992   */\n              dup4\n                /* \"#utility.yul\":9973:9993   */\n              tag_182\n              jump\t// in\n            tag_317:\n                /* \"#utility.yul\":9968:9993   */\n              swap3\n              pop\n                /* \"#utility.yul\":10012:10013   */\n              dup3\n                /* \"#utility.yul\":10002:10037   */\n              tag_318\n              jumpi\n                /* \"#utility.yul\":10017:10035   */\n              tag_319\n              tag_207\n              jump\t// in\n            tag_319:\n                /* \"#utility.yul\":10002:10037   */\n            tag_318:\n                /* \"#utility.yul\":10059:10060   */\n              dup3\n                /* \"#utility.yul\":10056:10057   */\n              dup3\n                /* \"#utility.yul\":10052:10061   */\n              div\n                /* \"#utility.yul\":10047:10061   */\n              swap1\n              pop\n                /* \"#utility.yul\":9882:10067   */\n              swap3\n              swap2\n              pop\n              pop\n              jump\t// out\n                /* \"#utility.yul\":10073:10253   */\n            tag_209:\n                /* \"#utility.yul\":10121:10198   */\n              0x4e487b7100000000000000000000000000000000000000000000000000000000\n                /* \"#utility.yul\":10118:10119   */\n              0x00\n                /* \"#utility.yul\":10111:10199   */\n              mstore\n                /* \"#utility.yul\":10218:10222   */\n              0x22\n                /* \"#utility.yul\":10215:10216   */\n              0x04\n                /* \"#utility.yul\":10208:10223   */\n              mstore\n                /* \"#utility.yul\":10242:10246   */\n              0x24\n                /* \"#utility.yul\":10239:10240   */\n              0x00\n                /* \"#utility.yul\":10232:10247   */\n              revert\n                /* \"#utility.yul\":10259:10579   */\n            tag_105:\n                /* \"#utility.yul\":10303:10309   */\n              0x00\n                /* \"#utility.yul\":10340:10341   */\n              0x02\n                /* \"#utility.yul\":10334:10338   */\n              dup3\n                /* \"#utility.yul\":10330:10342   */\n              div\n                /* \"#utility.yul\":10320:10342   */\n              swap1\n              pop\n                /* \"#utility.yul\":10387:10388   */\n              0x01\n                /* \"#utility.yul\":10381:10385   */\n              dup3\n                /* \"#utility.yul\":10377:10389   */\n              and\n                /* \"#utility.yul\":10408:10426   */\n              dup1\n                /* \"#utility.yul\":10398:10479   */\n              tag_322\n              jumpi\n                /* \"#utility.yul\":10464:10468   */\n              0x7f\n                /* \"#utility.yul\":10456:10462   */\n              dup3\n                /* \"#utility.yul\":10452:10469   */\n              and\n                /* \"#utility.yul\":10442:10469   */\n              swap2\n              pop\n                /* \"#utility.yul\":10398:10479   */\n            tag_322:\n                /* \"#utility.yul\":10526:10528   */\n              0x20\n                /* \"#utility.yul\":10518:10524   */\n              dup3\n                /* \"#utility.yul\":10515:10529   */\n              lt\n                /* \"#utility.yul\":10495:10513   */\n              dup2\n                /* \"#utility.yul\":10492:10530   */\n              sub\n                /* \"#utility.yul\":10489:10573   */\n              tag_323\n              jumpi\n                /* \"#utility.yul\":10545:10563   */\n              tag_324\n              tag_209\n              jump\t// in\n            tag_324:\n                /* \"#utility.yul\":10489:10573   */\n            tag_323:\n                /* \"#utility.yul\":10310:10579   */\n              pop\n                /* \"#utility.yul\":10259:10579   */\n              swap2\n              swap1\n              pop\n              jump\t// out\n                /* \"#utility.yul\":10585:10818   */\n            tag_155:\n                /* \"#utility.yul\":10624:10627   */\n              0x00\n                /* \"#utility.yul\":10647:10671   */\n              tag_326\n                /* \"#utility.yul\":10665:10670   */\n              dup3\n                /* \"#utility.yul\":10647:10671   */\n              tag_182\n              jump\t// in\n            tag_326:\n                /* \"#utility.yul\":10638:10671   */\n              swap2\n              pop\n                /* \"#utility.yul\":10693:10759   */\n              0xffffffffffffffffffffffffffffffffffffffffffffffffffffffffffffffff\n                /* \"#utility.yul\":10686:10691   */\n              dup3\n                /* \"#utility.yul\":10683:10760   */\n              sub\n                /* \"#utility.yul\":10680:10783   */\n              tag_327\n              jumpi\n                /* \"#utility.yul\":10763:10781   */\n              tag_328\n              tag_208\n              jump\t// in\n            tag_328:\n                /* \"#utility.yul\":10680:10783   */\n            tag_327:\n                /* \"#utility.yul\":10810:10811   */\n              0x01\n                /* \"#utility.yul\":10803:10808   */\n              dup3\n                /* \"#utility.yul\":10799:10812   */\n              add\n                /* \"#utility.yul\":10792:10812   */\n              swap1\n              pop\n                /* \"#utility.yul\":10585:10818   */\n              swap2\n              swap1\n              pop\n              jump\t// out\n                /* \"#utility.yul\":10824:11015   */\n            tag_167:\n                /* \"#utility.yul\":10864:10868   */\n              0x00\n                /* \"#utility.yul\":10884:10904   */\n              tag_330\n                /* \"#utility.yul\":10902:10903   */\n              dup3\n                /* \"#utility.yul\":10884:10904   */\n              tag_182\n              jump\t// in\n            tag_330:\n                /* \"#utility.yul\":10879:10904   */\n              swap2\n              pop\n                /* \"#utility.yul\":10918:10938   */\n              tag_331\n                /* \"#utility.yul\":10936:10937   */\n              dup4\n                /* \"#utility.yul\":10918:10938   */\n              tag_182\n              jump\t// in\n            tag_331:\n                /* \"#utility.yul\":10913:10938   */\n              swap3\n              pop\n                /* \"#utility.yul\":10957:10958   */\n              dup3\n                /* \"#utility.yul\":10954:10955   */\n              dup3\n                /* \"#utility.yul\":10951:10959   */\n              lt\n                /* \"#utility.yul\":10948:10982   */\n              iszero\n              tag_332\n              jumpi\n                /* \"#utility.yul\":10962:10980   */\n              tag_333\n              tag_208\n              jump\t// in\n            tag_333:\n                /* \"#utility.yul\":10948:10982   */\n            tag_332:\n                /* \"#utility.yul\":11007:11008   */\n              dup3\n                /* \"#utility.yul\":11004:11005   */\n              dup3\n                /* \"#utility.yul\":11000:11009   */\n              sub\n                /* \"#utility.yul\":10992:11009   */\n              swap1\n              pop\n                /* \"#utility.yul\":10824:11015   */\n              swap3\n              swap2\n              pop\n              pop\n              jump\t// out\n\n            auxdata: 0xa264697066735822122027b21ecf1223810d12d1dbed62dd1291268cbcc9b5666d6f8b2609c7073cc7ac64736f6c634300080d0033\n        }\n    }\n\n    auxdata: 0xa2646970667358221220a5d28ea78dd5c39bfc3d72cddc95482f2ea25bb37496dc2788c1574198bcd39864736f6c634300080d0033\n}\n","bytecode":{"linkReferences":{},"object":"608060405234801561001057600080fd5b50612148806100206000396000f3fe60806040523480156200001157600080fd5b5060043610620000465760003560e01c8063339d50a5146200004b5780634acb9d4f14620000815780638ef0392814620000a3575b600080fd5b6200006960048036038101906200006391906200029f565b620000c3565b60405162000078919062000316565b60405180910390f35b6200008b62000103565b6040516200009a919062000401565b60405180910390f35b620000c16004803603810190620000bb919062000587565b62000193565b005b60008181548110620000d457600080fd5b906000526020600020016000915054906101000a900473ffffffffffffffffffffffffffffffffffffffff1681565b606060008054806020026020016040519081016040528092919081815260200182805480156200018957602002820191906000526020600020905b8160009054906101000a900473ffffffffffffffffffffffffffffffffffffffff1673ffffffffffffffffffffffffffffffffffffffff16815260200190600101908083116200013e575b5050505050905090565b60008433858585604051620001a89062000242565b620001b8959493929190620006fa565b604051809103906000f080158015620001d5573d6000803e3d6000fd5b5090506000819080600181540180825580915050600190039060005260206000200160009091909190916101000a81548173ffffffffffffffffffffffffffffffffffffffff021916908373ffffffffffffffffffffffffffffffffffffffff1602179055505050505050565b6119a6806200076d83390190565b6000604051905090565b600080fd5b600080fd5b6000819050919050565b620002798162000264565b81146200028557600080fd5b50565b60008135905062000299816200026e565b92915050565b600060208284031215620002b857620002b76200025a565b5b6000620002c88482850162000288565b91505092915050565b600073ffffffffffffffffffffffffffffffffffffffff82169050919050565b6000620002fe82620002d1565b9050919050565b6200031081620002f1565b82525050565b60006020820190506200032d600083018462000305565b92915050565b600081519050919050565b600082825260208201905092915050565b6000819050602082019050919050565b6200036a81620002f1565b82525050565b60006200037e83836200035f565b60208301905092915050565b6000602082019050919050565b6000620003a48262000333565b620003b081856200033e565b9350620003bd836200034f565b8060005b83811015620003f4578151620003d8888262000370565b9750620003e5836200038a565b925050600181019050620003c1565b5085935050505092915050565b600060208201905081810360008301526200041d818462000397565b905092915050565b600080fd5b600080fd5b6000601f19601f8301169050919050565b7f4e487b7100000000000000000000000000000000000000000000000000000000600052604160045260246000fd5b6200047a826200042f565b810181811067ffffffffffffffff821117156200049c576200049b62000440565b5b80604052505050565b6000620004b162000250565b9050620004bf82826200046f565b919050565b600067ffffffffffffffff821115620004e257620004e162000440565b5b620004ed826200042f565b9050602081019050919050565b82818337600083830152505050565b6000620005206200051a84620004c4565b620004a5565b9050828152602081018484840111156200053f576200053e6200042a565b5b6200054c848285620004fa565b509392505050565b600082601f8301126200056c576200056b62000425565b5b81356200057e84826020860162000509565b91505092915050565b60008060008060808587031215620005a457620005a36200025a565b5b6000620005b48782880162000288565b945050602085013567ffffffffffffffff811115620005d857620005d76200025f565b5b620005e68782880162000554565b935050604085013567ffffffffffffffff8111156200060a57620006096200025f565b5b620006188782880162000554565b925050606085013567ffffffffffffffff8111156200063c576200063b6200025f565b5b6200064a8782880162000554565b91505092959194509250565b620006618162000264565b82525050565b600081519050919050565b600082825260208201905092915050565b60005b83811015620006a357808201518184015260208101905062000686565b83811115620006b3576000848401525b50505050565b6000620006c68262000667565b620006d2818562000672565b9350620006e481856020860162000683565b620006ef816200042f565b840191505092915050565b600060a08201905062000711600083018862000656565b62000720602083018762000305565b8181036040830152620007348186620006b9565b905081810360608301526200074a8185620006b9565b90508181036080830152620007608184620006b9565b9050969550505050505056fe60806040523480156200001157600080fd5b50604051620019a6380380620019a68339818101604052810190620000379190620003c2565b8460028190555083600160006101000a81548173ffffffffffffffffffffffffffffffffffffffff021916908373ffffffffffffffffffffffffffffffffffffffff160217905550826005908051906020019062000097929190620000d5565b508160069080519060200190620000b0929190620000d5565b508060079080519060200190620000c9929190620000d5565b5050505050506200050b565b828054620000e390620004d6565b90600052602060002090601f01602090048101928262000107576000855562000153565b82601f106200012257805160ff191683800117855562000153565b8280016001018555821562000153579182015b828111156200015257825182559160200191906001019062000135565b5b50905062000162919062000166565b5090565b5b808211156200018157600081600090555060010162000167565b5090565b6000604051905090565b600080fd5b600080fd5b6000819050919050565b620001ae8162000199565b8114620001ba57600080fd5b50565b600081519050620001ce81620001a3565b92915050565b600073ffffffffffffffffffffffffffffffffffffffff82169050919050565b60006200020182620001d4565b9050919050565b6200021381620001f4565b81146200021f57600080fd5b50565b600081519050620002338162000208565b92915050565b600080fd5b600080fd5b6000601f19601f8301169050919050565b7f4e487b7100000000000000000000000000000000000000000000000000000000600052604160045260246000fd5b6200028e8262000243565b810181811067ffffffffffffffff82111715620002b057620002af62000254565b5b80604052505050565b6000620002c562000185565b9050620002d3828262000283565b919050565b600067ffffffffffffffff821115620002f657620002f562000254565b5b620003018262000243565b9050602081019050919050565b60005b838110156200032e57808201518184015260208101905062000311565b838111156200033e576000848401525b50505050565b60006200035b6200035584620002d8565b620002b9565b9050828152602081018484840111156200037a57620003796200023e565b5b620003878482856200030e565b509392505050565b600082601f830112620003a757620003a662000239565b5b8151620003b984826020860162000344565b91505092915050565b600080600080600060a08688031215620003e157620003e06200018f565b5b6000620003f188828901620001bd565b9550506020620004048882890162000222565b945050604086015167ffffffffffffffff81111562000428576200042762000194565b5b62000436888289016200038f565b935050606086015167ffffffffffffffff8111156200045a576200045962000194565b5b62000468888289016200038f565b925050608086015167ffffffffffffffff8111156200048c576200048b62000194565b5b6200049a888289016200038f565b9150509295509295909350565b7f4e487b7100000000000000000000000000000000000000000000000000000000600052602260045260246000fd5b60006002820490506001821680620004ef57607f821691505b602082108103620005055762000504620004a7565b5b50919050565b61148b806200051b6000396000f3fe6080604052600436106100e85760003560e01c80637b6c80781161008a578063937e09b111610059578063937e09b1146102f1578063af06f5f71461031c578063d7bb99ba14610347578063d7d1bbdb14610351576100e8565b80637b6c80781461023157806381d12c581461025c57806382fde0931461029d5780638a9cfd55146102c8576100e8565b8063110842cb116100c6578063110842cb1461017e5780633410452a146101a95780634051ddac146101d4578063481c6a7514610206576100e8565b806303441006146100ed5780630724fda9146101165780630a14439114610141575b600080fd5b3480156100f957600080fd5b50610114600480360381019061010f9190610e2d565b61037a565b005b34801561012257600080fd5b5061012b6104cc565b6040516101389190610ef3565b60405180910390f35b34801561014d57600080fd5b5061016860048036038101906101639190610f73565b61055a565b6040516101759190610fbb565b60405180910390f35b34801561018a57600080fd5b5061019361057a565b6040516101a09190610ef3565b60405180910390f35b3480156101b557600080fd5b506101be610608565b6040516101cb9190610fe5565b60405180910390f35b3480156101e057600080fd5b506101e9610614565b6040516101fd98979695949392919061100f565b60405180910390f35b34801561021257600080fd5b5061021b610815565b60405161022891906110a2565b60405180910390f35b34801561023d57600080fd5b5061024661083b565b6040516102539190610fe5565b60405180910390f35b34801561026857600080fd5b50610283600480360381019061027e9190610e2d565b610843565b6040516102949594939291906110bd565b60405180910390f35b3480156102a957600080fd5b506102b261093e565b6040516102bf9190610fe5565b60405180910390f35b3480156102d457600080fd5b506102ef60048036038101906102ea919061124c565b610944565b005b3480156102fd57600080fd5b50610306610a53565b6040516103139190610fe5565b60405180910390f35b34801561032857600080fd5b50610331610a59565b60405161033e9190610ef3565b60405180910390f35b61034f610ae7565b005b34801561035d57600080fd5b5061037860048036038101906103739190610e2d565b610bb9565b005b600160009054906101000a900473ffffffffffffffffffffffffffffffffffffffff1673ffffffffffffffffffffffffffffffffffffffff163373ffffffffffffffffffffffffffffffffffffffff16146103d457600080fd5b6103dd81610d0e565b60008082815481106103f2576103f16112bb565b5b9060005260206000209060050201905060026004546104119190611348565b81600301541161042057600080fd5b8060020160149054906101000a900460ff161561043c57600080fd5b8060020160009054906101000a900473ffffffffffffffffffffffffffffffffffffffff1673ffffffffffffffffffffffffffffffffffffffff166108fc82600101549081150290604051600060405180830381858888f193505050501580156104aa573d6000803e3d6000fd5b5060018160020160146101000a81548160ff0219169083151502179055505050565b600580546104d9906113a8565b80601f0160208091040260200160405190810160405280929190818152602001828054610505906113a8565b80156105525780601f1061052757610100808354040283529160200191610552565b820191906000526020600020905b81548152906001019060200180831161053557829003601f168201915b505050505081565b60036020528060005260406000206000915054906101000a900460ff1681565b60068054610587906113a8565b80601f01602080910402602001604051908101604052809291908181526020018280546105b3906113a8565b80156106005780601f106105d557610100808354040283529160200191610600565b820191906000526020600020905b8154815290600101906020018083116105e357829003601f168201915b505050505081565b60008080549050905090565b6000806000806000606080606060025447600080549050600454600160009054906101000a900473ffffffffffffffffffffffffffffffffffffffff16600560066007828054610663906113a8565b80601f016020809104026020016040519081016040528092919081815260200182805461068f906113a8565b80156106dc5780601f106106b1576101008083540402835291602001916106dc565b820191906000526020600020905b8154815290600101906020018083116106bf57829003601f168201915b505050505092508180546106ef906113a8565b80601f016020809104026020016040519081016040528092919081815260200182805461071b906113a8565b80156107685780601f1061073d57610100808354040283529160200191610768565b820191906000526020600020905b81548152906001019060200180831161074b57829003601f168201915b5050505050915080805461077b906113a8565b80601f01602080910402602001604051908101604052809291908181526020018280546107a7906113a8565b80156107f45780601f106107c9576101008083540402835291602001916107f4565b820191906000526020600020905b8154815290600101906020018083116107d757829003601f168201915b50505050509050975097509750975097509750975097509091929394959697565b600160009054906101000a900473ffffffffffffffffffffffffffffffffffffffff1681565b600047905090565b6000818154811061085357600080fd5b9060005260206000209060050201600091509050806000018054610876906113a8565b80601f01602080910402602001604051908101604052809291908181526020018280546108a2906113a8565b80156108ef5780601f106108c4576101008083540402835291602001916108ef565b820191906000526020600020905b8154815290600101906020018083116108d257829003601f168201915b5050505050908060010154908060020160009054906101000a900473ffffffffffffffffffffffffffffffffffffffff16908060020160149054906101000a900460ff16908060030154905085565b60045481565b600160009054906101000a900473ffffffffffffffffffffffffffffffffffffffff1673ffffffffffffffffffffffffffffffffffffffff163373ffffffffffffffffffffffffffffffffffffffff161461099e57600080fd5b6000806001816001815401808255809150500390600052602060002090600502019050838160000190805190602001906109d9929190610d40565b50828160010181905550818160020160006101000a81548173ffffffffffffffffffffffffffffffffffffffff021916908373ffffffffffffffffffffffffffffffffffffffff16021790555060008160020160146101000a81548160ff0219169083151502179055506000816003018190555050505050565b60025481565b60078054610a66906113a8565b80601f0160208091040260200160405190810160405280929190818152602001828054610a92906113a8565b8015610adf5780601f10610ab457610100808354040283529160200191610adf565b820191906000526020600020905b815481529060010190602001808311610ac257829003601f168201915b505050505081565b6002543411610af557600080fd5b600360003373ffffffffffffffffffffffffffffffffffffffff1673ffffffffffffffffffffffffffffffffffffffff16815260200190815260200160002060009054906101000a900460ff16610bb7576001600360003373ffffffffffffffffffffffffffffffffffffffff1673ffffffffffffffffffffffffffffffffffffffff16815260200190815260200160002060006101000a81548160ff02191690831515021790555060046000815480929190610bb1906113d9565b91905055505b565b610bc281610d0e565b6000808281548110610bd757610bd66112bb565b5b90600052602060002090600502019050600360003373ffffffffffffffffffffffffffffffffffffffff1673ffffffffffffffffffffffffffffffffffffffff16815260200190815260200160002060009054906101000a900460ff16610c3d57600080fd5b8060040160003373ffffffffffffffffffffffffffffffffffffffff1673ffffffffffffffffffffffffffffffffffffffff16815260200190815260200160002060009054906101000a900460ff1615610c9657600080fd5b60018160040160003373ffffffffffffffffffffffffffffffffffffffff1673ffffffffffffffffffffffffffffffffffffffff16815260200190815260200160002060006101000a81548160ff021916908315150217905550806003016000815480929190610d05906113d9565b91905055505050565b6000808054905011610d1f57600080fd5b6001600080549050610d319190611421565b811115610d3d57600080fd5b50565b828054610d4c906113a8565b90600052602060002090601f016020900481019282610d6e5760008555610db5565b82601f10610d8757805160ff1916838001178555610db5565b82800160010185558215610db5579182015b82811115610db4578251825591602001919060010190610d99565b5b509050610dc29190610dc6565b5090565b5b80821115610ddf576000816000905550600101610dc7565b5090565b6000604051905090565b600080fd5b600080fd5b6000819050919050565b610e0a81610df7565b8114610e1557600080fd5b50565b600081359050610e2781610e01565b92915050565b600060208284031215610e4357610e42610ded565b5b6000610e5184828501610e18565b91505092915050565b600081519050919050565b600082825260208201905092915050565b60005b83811015610e94578082015181840152602081019050610e79565b83811115610ea3576000848401525b50505050565b6000601f19601f8301169050919050565b6000610ec582610e5a565b610ecf8185610e65565b9350610edf818560208601610e76565b610ee881610ea9565b840191505092915050565b60006020820190508181036000830152610f0d8184610eba565b905092915050565b600073ffffffffffffffffffffffffffffffffffffffff82169050919050565b6000610f4082610f15565b9050919050565b610f5081610f35565b8114610f5b57600080fd5b50565b600081359050610f6d81610f47565b92915050565b600060208284031215610f8957610f88610ded565b5b6000610f9784828501610f5e565b91505092915050565b60008115159050919050565b610fb581610fa0565b82525050565b6000602082019050610fd06000830184610fac565b92915050565b610fdf81610df7565b82525050565b6000602082019050610ffa6000830184610fd6565b92915050565b61100981610f35565b82525050565b600061010082019050611025600083018b610fd6565b611032602083018a610fd6565b61103f6040830189610fd6565b61104c6060830188610fd6565b6110596080830187611000565b81810360a083015261106b8186610eba565b905081810360c083015261107f8185610eba565b905081810360e08301526110938184610eba565b90509998505050505050505050565b60006020820190506110b76000830184611000565b92915050565b600060a08201905081810360008301526110d78188610eba565b90506110e66020830187610fd6565b6110f36040830186611000565b6111006060830185610fac565b61110d6080830184610fd6565b9695505050505050565b600080fd5b600080fd5b7f4e487b7100000000000000000000000000000000000000000000000000000000600052604160045260246000fd5b61115982610ea9565b810181811067ffffffffffffffff8211171561117857611177611121565b5b80604052505050565b600061118b610de3565b90506111978282611150565b919050565b600067ffffffffffffffff8211156111b7576111b6611121565b5b6111c082610ea9565b9050602081019050919050565b82818337600083830152505050565b60006111ef6111ea8461119c565b611181565b90508281526020810184848401111561120b5761120a61111c565b5b6112168482856111cd565b509392505050565b600082601f83011261123357611232611117565b5b81356112438482602086016111dc565b91505092915050565b60008060006060848603121561126557611264610ded565b5b600084013567ffffffffffffffff81111561128357611282610df2565b5b61128f8682870161121e565b93505060206112a086828701610e18565b92505060406112b186828701610f5e565b9150509250925092565b7f4e487b7100000000000000000000000000000000000000000000000000000000600052603260045260246000fd5b7f4e487b7100000000000000000000000000000000000000000000000000000000600052601260045260246000fd5b7f4e487b7100000000000000000000000000000000000000000000000000000000600052601160045260246000fd5b600061135382610df7565b915061135e83610df7565b92508261136e5761136d6112ea565b5b828204905092915050565b7f4e487b7100000000000000000000000000000000000000000000000000000000600052602260045260246000fd5b600060028204905060018216806113c057607f821691505b6020821081036113d3576113d2611379565b5b50919050565b60006113e482610df7565b91507fffffffffffffffffffffffffffffffffffffffffffffffffffffffffffffffff820361141657611415611319565b5b600182019050919050565b600061142c82610df7565b915061143783610df7565b92508282101561144a57611449611319565b5b82820390509291505056fea264697066735822122027b21ecf1223810d12d1dbed62dd1291268cbcc9b5666d6f8b2609c7073cc7ac64736f6c634300080d0033a2646970667358221220a5d28ea78dd5c39bfc3d72cddc95482f2ea25bb37496dc2788c1574198bcd39864736f6c634300080d0033","opcodes":"PUSH1 0x80 PUSH1 0x40 MSTORE CALLVALUE DUP1 ISZERO PUSH2 0x10 JUMPI PUSH1 0x0 DUP1 REVERT JUMPDEST POP PUSH2 0x2148 DUP1 PUSH2 0x20 PUSH1 0x0 CODECOPY PUSH1 0x0 RETURN INVALID PUSH1 0x80 PUSH1 0x40 MSTORE CALLVALUE DUP1 ISZERO PUSH3 0x11 JUMPI PUSH1 0x0 DUP1 REVERT JUMPDEST POP PUSH1 0x4 CALLDATASIZE LT PUSH3 0x46 JUMPI PUSH1 0x0 CALLDATALOAD PUSH1 0xE0 SHR DUP1 PUSH4 0x339D50A5 EQ PUSH3 0x4B JUMPI DUP1 PUSH4 0x4ACB9D4F EQ PUSH3 0x81 JUMPI DUP1 PUSH4 0x8EF03928 EQ PUSH3 0xA3 JUMPI JUMPDEST PUSH1 0x0 DUP1 REVERT JUMPDEST PUSH3 0x69 PUSH1 0x4 DUP1 CALLDATASIZE SUB DUP2 ADD SWAP1 PUSH3 0x63 SWAP2 SWAP1 PUSH3 0x29F JUMP JUMPDEST PUSH3 0xC3 JUMP JUMPDEST PUSH1 0x40 MLOAD PUSH3 0x78 SWAP2 SWAP1 PUSH3 0x316 JUMP JUMPDEST PUSH1 0x40 MLOAD DUP1 SWAP2 SUB SWAP1 RETURN JUMPDEST PUSH3 0x8B PUSH3 0x103 JUMP JUMPDEST PUSH1 0x40 MLOAD PUSH3 0x9A SWAP2 SWAP1 PUSH3 0x401 JUMP JUMPDEST PUSH1 0x40 MLOAD DUP1 SWAP2 SUB SWAP1 RETURN JUMPDEST PUSH3 0xC1 PUSH1 0x4 DUP1 CALLDATASIZE SUB DUP2 ADD SWAP1 PUSH3 0xBB SWAP2 SWAP1 PUSH3 0x587 JUMP JUMPDEST PUSH3 0x193 JUMP JUMPDEST STOP JUMPDEST PUSH1 0x0 DUP2 DUP2 SLOAD DUP2 LT PUSH3 0xD4 JUMPI PUSH1 0x0 DUP1 REVERT JUMPDEST SWAP1 PUSH1 0x0 MSTORE PUSH1 0x20 PUSH1 0x0 KECCAK256 ADD PUSH1 0x0 SWAP2 POP SLOAD SWAP1 PUSH2 0x100 EXP SWAP1 DIV PUSH20 0xFFFFFFFFFFFFFFFFFFFFFFFFFFFFFFFFFFFFFFFF AND DUP2 JUMP JUMPDEST PUSH1 0x60 PUSH1 0x0 DUP1 SLOAD DUP1 PUSH1 0x20 MUL PUSH1 0x20 ADD PUSH1 0x40 MLOAD SWAP1 DUP2 ADD PUSH1 0x40 MSTORE DUP1 SWAP3 SWAP2 SWAP1 DUP2 DUP2 MSTORE PUSH1 0x20 ADD DUP3 DUP1 SLOAD DUP1 ISZERO PUSH3 0x189 JUMPI PUSH1 0x20 MUL DUP3 ADD SWAP2 SWAP1 PUSH1 0x0 MSTORE PUSH1 0x20 PUSH1 0x0 KECCAK256 SWAP1 JUMPDEST DUP2 PUSH1 0x0 SWAP1 SLOAD SWAP1 PUSH2 0x100 EXP SWAP1 DIV PUSH20 0xFFFFFFFFFFFFFFFFFFFFFFFFFFFFFFFFFFFFFFFF AND PUSH20 0xFFFFFFFFFFFFFFFFFFFFFFFFFFFFFFFFFFFFFFFF AND DUP2 MSTORE PUSH1 0x20 ADD SWAP1 PUSH1 0x1 ADD SWAP1 DUP1 DUP4 GT PUSH3 0x13E JUMPI JUMPDEST POP POP POP POP POP SWAP1 POP SWAP1 JUMP JUMPDEST PUSH1 0x0 DUP5 CALLER DUP6 DUP6 DUP6 PUSH1 0x40 MLOAD PUSH3 0x1A8 SWAP1 PUSH3 0x242 JUMP JUMPDEST PUSH3 0x1B8 SWAP6 SWAP5 SWAP4 SWAP3 SWAP2 SWAP1 PUSH3 0x6FA JUMP JUMPDEST PUSH1 0x40 MLOAD DUP1 SWAP2 SUB SWAP1 PUSH1 0x0 CREATE DUP1 ISZERO DUP1 ISZERO PUSH3 0x1D5 JUMPI RETURNDATASIZE PUSH1 0x0 DUP1 RETURNDATACOPY RETURNDATASIZE PUSH1 0x0 REVERT JUMPDEST POP SWAP1 POP PUSH1 0x0 DUP2 SWAP1 DUP1 PUSH1 0x1 DUP2 SLOAD ADD DUP1 DUP3 SSTORE DUP1 SWAP2 POP POP PUSH1 0x1 SWAP1 SUB SWAP1 PUSH1 0x0 MSTORE PUSH1 0x20 PUSH1 0x0 KECCAK256 ADD PUSH1 0x0 SWAP1 SWAP2 SWAP1 SWAP2 SWAP1 SWAP2 PUSH2 0x100 EXP DUP2 SLOAD DUP2 PUSH20 0xFFFFFFFFFFFFFFFFFFFFFFFFFFFFFFFFFFFFFFFF MUL NOT AND SWAP1 DUP4 PUSH20 0xFFFFFFFFFFFFFFFFFFFFFFFFFFFFFFFFFFFFFFFF AND MUL OR SWAP1 SSTORE POP POP POP POP POP POP JUMP JUMPDEST PUSH2 0x19A6 DUP1 PUSH3 0x76D DUP4 CODECOPY ADD SWAP1 JUMP JUMPDEST PUSH1 0x0 PUSH1 0x40 MLOAD SWAP1 POP SWAP1 JUMP JUMPDEST PUSH1 0x0 DUP1 REVERT JUMPDEST PUSH1 0x0 DUP1 REVERT JUMPDEST PUSH1 0x0 DUP2 SWAP1 POP SWAP2 SWAP1 POP JUMP JUMPDEST PUSH3 0x279 DUP2 PUSH3 0x264 JUMP JUMPDEST DUP2 EQ PUSH3 0x285 JUMPI PUSH1 0x0 DUP1 REVERT JUMPDEST POP JUMP JUMPDEST PUSH1 0x0 DUP2 CALLDATALOAD SWAP1 POP PUSH3 0x299 DUP2 PUSH3 0x26E JUMP JUMPDEST SWAP3 SWAP2 POP POP JUMP JUMPDEST PUSH1 0x0 PUSH1 0x20 DUP3 DUP5 SUB SLT ISZERO PUSH3 0x2B8 JUMPI PUSH3 0x2B7 PUSH3 0x25A JUMP JUMPDEST JUMPDEST PUSH1 0x0 PUSH3 0x2C8 DUP5 DUP3 DUP6 ADD PUSH3 0x288 JUMP JUMPDEST SWAP2 POP POP SWAP3 SWAP2 POP POP JUMP JUMPDEST PUSH1 0x0 PUSH20 0xFFFFFFFFFFFFFFFFFFFFFFFFFFFFFFFFFFFFFFFF DUP3 AND SWAP1 POP SWAP2 SWAP1 POP JUMP JUMPDEST PUSH1 0x0 PUSH3 0x2FE DUP3 PUSH3 0x2D1 JUMP JUMPDEST SWAP1 POP SWAP2 SWAP1 POP JUMP JUMPDEST PUSH3 0x310 DUP2 PUSH3 0x2F1 JUMP JUMPDEST DUP3 MSTORE POP POP JUMP JUMPDEST PUSH1 0x0 PUSH1 0x20 DUP3 ADD SWAP1 POP PUSH3 0x32D PUSH1 0x0 DUP4 ADD DUP5 PUSH3 0x305 JUMP JUMPDEST SWAP3 SWAP2 POP POP JUMP JUMPDEST PUSH1 0x0 DUP2 MLOAD SWAP1 POP SWAP2 SWAP1 POP JUMP JUMPDEST PUSH1 0x0 DUP3 DUP3 MSTORE PUSH1 0x20 DUP3 ADD SWAP1 POP SWAP3 SWAP2 POP POP JUMP JUMPDEST PUSH1 0x0 DUP2 SWAP1 POP PUSH1 0x20 DUP3 ADD SWAP1 POP SWAP2 SWAP1 POP JUMP JUMPDEST PUSH3 0x36A DUP2 PUSH3 0x2F1 JUMP JUMPDEST DUP3 MSTORE POP POP JUMP JUMPDEST PUSH1 0x0 PUSH3 0x37E DUP4 DUP4 PUSH3 0x35F JUMP JUMPDEST PUSH1 0x20 DUP4 ADD SWAP1 POP SWAP3 SWAP2 POP POP JUMP JUMPDEST PUSH1 0x0 PUSH1 0x20 DUP3 ADD SWAP1 POP SWAP2 SWAP1 POP JUMP JUMPDEST PUSH1 0x0 PUSH3 0x3A4 DUP3 PUSH3 0x333 JUMP JUMPDEST PUSH3 0x3B0 DUP2 DUP6 PUSH3 0x33E JUMP JUMPDEST SWAP4 POP PUSH3 0x3BD DUP4 PUSH3 0x34F JUMP JUMPDEST DUP1 PUSH1 0x0 JUMPDEST DUP4 DUP2 LT ISZERO PUSH3 0x3F4 JUMPI DUP2 MLOAD PUSH3 0x3D8 DUP9 DUP3 PUSH3 0x370 JUMP JUMPDEST SWAP8 POP PUSH3 0x3E5 DUP4 PUSH3 0x38A JUMP JUMPDEST SWAP3 POP POP PUSH1 0x1 DUP2 ADD SWAP1 POP PUSH3 0x3C1 JUMP JUMPDEST POP DUP6 SWAP4 POP POP POP POP SWAP3 SWAP2 POP POP JUMP JUMPDEST PUSH1 0x0 PUSH1 0x20 DUP3 ADD SWAP1 POP DUP2 DUP2 SUB PUSH1 0x0 DUP4 ADD MSTORE PUSH3 0x41D DUP2 DUP5 PUSH3 0x397 JUMP JUMPDEST SWAP1 POP SWAP3 SWAP2 POP POP JUMP JUMPDEST PUSH1 0x0 DUP1 REVERT JUMPDEST PUSH1 0x0 DUP1 REVERT JUMPDEST PUSH1 0x0 PUSH1 0x1F NOT PUSH1 0x1F DUP4 ADD AND SWAP1 POP SWAP2 SWAP1 POP JUMP JUMPDEST PUSH32 0x4E487B7100000000000000000000000000000000000000000000000000000000 PUSH1 0x0 MSTORE PUSH1 0x41 PUSH1 0x4 MSTORE PUSH1 0x24 PUSH1 0x0 REVERT JUMPDEST PUSH3 0x47A DUP3 PUSH3 0x42F JUMP JUMPDEST DUP2 ADD DUP2 DUP2 LT PUSH8 0xFFFFFFFFFFFFFFFF DUP3 GT OR ISZERO PUSH3 0x49C JUMPI PUSH3 0x49B PUSH3 0x440 JUMP JUMPDEST JUMPDEST DUP1 PUSH1 0x40 MSTORE POP POP POP JUMP JUMPDEST PUSH1 0x0 PUSH3 0x4B1 PUSH3 0x250 JUMP JUMPDEST SWAP1 POP PUSH3 0x4BF DUP3 DUP3 PUSH3 0x46F JUMP JUMPDEST SWAP2 SWAP1 POP JUMP JUMPDEST PUSH1 0x0 PUSH8 0xFFFFFFFFFFFFFFFF DUP3 GT ISZERO PUSH3 0x4E2 JUMPI PUSH3 0x4E1 PUSH3 0x440 JUMP JUMPDEST JUMPDEST PUSH3 0x4ED DUP3 PUSH3 0x42F JUMP JUMPDEST SWAP1 POP PUSH1 0x20 DUP2 ADD SWAP1 POP SWAP2 SWAP1 POP JUMP JUMPDEST DUP3 DUP2 DUP4 CALLDATACOPY PUSH1 0x0 DUP4 DUP4 ADD MSTORE POP POP POP JUMP JUMPDEST PUSH1 0x0 PUSH3 0x520 PUSH3 0x51A DUP5 PUSH3 0x4C4 JUMP JUMPDEST PUSH3 0x4A5 JUMP JUMPDEST SWAP1 POP DUP3 DUP2 MSTORE PUSH1 0x20 DUP2 ADD DUP5 DUP5 DUP5 ADD GT ISZERO PUSH3 0x53F JUMPI PUSH3 0x53E PUSH3 0x42A JUMP JUMPDEST JUMPDEST PUSH3 0x54C DUP5 DUP3 DUP6 PUSH3 0x4FA JUMP JUMPDEST POP SWAP4 SWAP3 POP POP POP JUMP JUMPDEST PUSH1 0x0 DUP3 PUSH1 0x1F DUP4 ADD SLT PUSH3 0x56C JUMPI PUSH3 0x56B PUSH3 0x425 JUMP JUMPDEST JUMPDEST DUP2 CALLDATALOAD PUSH3 0x57E DUP5 DUP3 PUSH1 0x20 DUP7 ADD PUSH3 0x509 JUMP JUMPDEST SWAP2 POP POP SWAP3 SWAP2 POP POP JUMP JUMPDEST PUSH1 0x0 DUP1 PUSH1 0x0 DUP1 PUSH1 0x80 DUP6 DUP8 SUB SLT ISZERO PUSH3 0x5A4 JUMPI PUSH3 0x5A3 PUSH3 0x25A JUMP JUMPDEST JUMPDEST PUSH1 0x0 PUSH3 0x5B4 DUP8 DUP3 DUP9 ADD PUSH3 0x288 JUMP JUMPDEST SWAP5 POP POP PUSH1 0x20 DUP6 ADD CALLDATALOAD PUSH8 0xFFFFFFFFFFFFFFFF DUP2 GT ISZERO PUSH3 0x5D8 JUMPI PUSH3 0x5D7 PUSH3 0x25F JUMP JUMPDEST JUMPDEST PUSH3 0x5E6 DUP8 DUP3 DUP9 ADD PUSH3 0x554 JUMP JUMPDEST SWAP4 POP POP PUSH1 0x40 DUP6 ADD CALLDATALOAD PUSH8 0xFFFFFFFFFFFFFFFF DUP2 GT ISZERO PUSH3 0x60A JUMPI PUSH3 0x609 PUSH3 0x25F JUMP JUMPDEST JUMPDEST PUSH3 0x618 DUP8 DUP3 DUP9 ADD PUSH3 0x554 JUMP JUMPDEST SWAP3 POP POP PUSH1 0x60 DUP6 ADD CALLDATALOAD PUSH8 0xFFFFFFFFFFFFFFFF DUP2 GT ISZERO PUSH3 0x63C JUMPI PUSH3 0x63B PUSH3 0x25F JUMP JUMPDEST JUMPDEST PUSH3 0x64A DUP8 DUP3 DUP9 ADD PUSH3 0x554 JUMP JUMPDEST SWAP2 POP POP SWAP3 SWAP6 SWAP2 SWAP5 POP SWAP3 POP JUMP JUMPDEST PUSH3 0x661 DUP2 PUSH3 0x264 JUMP JUMPDEST DUP3 MSTORE POP POP JUMP JUMPDEST PUSH1 0x0 DUP2 MLOAD SWAP1 POP SWAP2 SWAP1 POP JUMP JUMPDEST PUSH1 0x0 DUP3 DUP3 MSTORE PUSH1 0x20 DUP3 ADD SWAP1 POP SWAP3 SWAP2 POP POP JUMP JUMPDEST PUSH1 0x0 JUMPDEST DUP4 DUP2 LT ISZERO PUSH3 0x6A3 JUMPI DUP1 DUP3 ADD MLOAD DUP2 DUP5 ADD MSTORE PUSH1 0x20 DUP2 ADD SWAP1 POP PUSH3 0x686 JUMP JUMPDEST DUP4 DUP2 GT ISZERO PUSH3 0x6B3 JUMPI PUSH1 0x0 DUP5 DUP5 ADD MSTORE JUMPDEST POP POP POP POP JUMP JUMPDEST PUSH1 0x0 PUSH3 0x6C6 DUP3 PUSH3 0x667 JUMP JUMPDEST PUSH3 0x6D2 DUP2 DUP6 PUSH3 0x672 JUMP JUMPDEST SWAP4 POP PUSH3 0x6E4 DUP2 DUP6 PUSH1 0x20 DUP7 ADD PUSH3 0x683 JUMP JUMPDEST PUSH3 0x6EF DUP2 PUSH3 0x42F JUMP JUMPDEST DUP5 ADD SWAP2 POP POP SWAP3 SWAP2 POP POP JUMP JUMPDEST PUSH1 0x0 PUSH1 0xA0 DUP3 ADD SWAP1 POP PUSH3 0x711 PUSH1 0x0 DUP4 ADD DUP9 PUSH3 0x656 JUMP JUMPDEST PUSH3 0x720 PUSH1 0x20 DUP4 ADD DUP8 PUSH3 0x305 JUMP JUMPDEST DUP2 DUP2 SUB PUSH1 0x40 DUP4 ADD MSTORE PUSH3 0x734 DUP2 DUP7 PUSH3 0x6B9 JUMP JUMPDEST SWAP1 POP DUP2 DUP2 SUB PUSH1 0x60 DUP4 ADD MSTORE PUSH3 0x74A DUP2 DUP6 PUSH3 0x6B9 JUMP JUMPDEST SWAP1 POP DUP2 DUP2 SUB PUSH1 0x80 DUP4 ADD MSTORE PUSH3 0x760 DUP2 DUP5 PUSH3 0x6B9 JUMP JUMPDEST SWAP1 POP SWAP7 SWAP6 POP POP POP POP POP POP JUMP INVALID PUSH1 0x80 PUSH1 0x40 MSTORE CALLVALUE DUP1 ISZERO PUSH3 0x11 JUMPI PUSH1 0x0 DUP1 REVERT JUMPDEST POP PUSH1 0x40 MLOAD PUSH3 0x19A6 CODESIZE SUB DUP1 PUSH3 0x19A6 DUP4 CODECOPY DUP2 DUP2 ADD PUSH1 0x40 MSTORE DUP2 ADD SWAP1 PUSH3 0x37 SWAP2 SWAP1 PUSH3 0x3C2 JUMP JUMPDEST DUP5 PUSH1 0x2 DUP2 SWAP1 SSTORE POP DUP4 PUSH1 0x1 PUSH1 0x0 PUSH2 0x100 EXP DUP2 SLOAD DUP2 PUSH20 0xFFFFFFFFFFFFFFFFFFFFFFFFFFFFFFFFFFFFFFFF MUL NOT AND SWAP1 DUP4 PUSH20 0xFFFFFFFFFFFFFFFFFFFFFFFFFFFFFFFFFFFFFFFF AND MUL OR SWAP1 SSTORE POP DUP3 PUSH1 0x5 SWAP1 DUP1 MLOAD SWAP1 PUSH1 0x20 ADD SWAP1 PUSH3 0x97 SWAP3 SWAP2 SWAP1 PUSH3 0xD5 JUMP JUMPDEST POP DUP2 PUSH1 0x6 SWAP1 DUP1 MLOAD SWAP1 PUSH1 0x20 ADD SWAP1 PUSH3 0xB0 SWAP3 SWAP2 SWAP1 PUSH3 0xD5 JUMP JUMPDEST POP DUP1 PUSH1 0x7 SWAP1 DUP1 MLOAD SWAP1 PUSH1 0x20 ADD SWAP1 PUSH3 0xC9 SWAP3 SWAP2 SWAP1 PUSH3 0xD5 JUMP JUMPDEST POP POP POP POP POP POP PUSH3 0x50B JUMP JUMPDEST DUP3 DUP1 SLOAD PUSH3 0xE3 SWAP1 PUSH3 0x4D6 JUMP JUMPDEST SWAP1 PUSH1 0x0 MSTORE PUSH1 0x20 PUSH1 0x0 KECCAK256 SWAP1 PUSH1 0x1F ADD PUSH1 0x20 SWAP1 DIV DUP2 ADD SWAP3 DUP3 PUSH3 0x107 JUMPI PUSH1 0x0 DUP6 SSTORE PUSH3 0x153 JUMP JUMPDEST DUP3 PUSH1 0x1F LT PUSH3 0x122 JUMPI DUP1 MLOAD PUSH1 0xFF NOT AND DUP4 DUP1 ADD OR DUP6 SSTORE PUSH3 0x153 JUMP JUMPDEST DUP3 DUP1 ADD PUSH1 0x1 ADD DUP6 SSTORE DUP3 ISZERO PUSH3 0x153 JUMPI SWAP2 DUP3 ADD JUMPDEST DUP3 DUP2 GT ISZERO PUSH3 0x152 JUMPI DUP3 MLOAD DUP3 SSTORE SWAP2 PUSH1 0x20 ADD SWAP2 SWAP1 PUSH1 0x1 ADD SWAP1 PUSH3 0x135 JUMP JUMPDEST JUMPDEST POP SWAP1 POP PUSH3 0x162 SWAP2 SWAP1 PUSH3 0x166 JUMP JUMPDEST POP SWAP1 JUMP JUMPDEST JUMPDEST DUP1 DUP3 GT ISZERO PUSH3 0x181 JUMPI PUSH1 0x0 DUP2 PUSH1 0x0 SWAP1 SSTORE POP PUSH1 0x1 ADD PUSH3 0x167 JUMP JUMPDEST POP SWAP1 JUMP JUMPDEST PUSH1 0x0 PUSH1 0x40 MLOAD SWAP1 POP SWAP1 JUMP JUMPDEST PUSH1 0x0 DUP1 REVERT JUMPDEST PUSH1 0x0 DUP1 REVERT JUMPDEST PUSH1 0x0 DUP2 SWAP1 POP SWAP2 SWAP1 POP JUMP JUMPDEST PUSH3 0x1AE DUP2 PUSH3 0x199 JUMP JUMPDEST DUP2 EQ PUSH3 0x1BA JUMPI PUSH1 0x0 DUP1 REVERT JUMPDEST POP JUMP JUMPDEST PUSH1 0x0 DUP2 MLOAD SWAP1 POP PUSH3 0x1CE DUP2 PUSH3 0x1A3 JUMP JUMPDEST SWAP3 SWAP2 POP POP JUMP JUMPDEST PUSH1 0x0 PUSH20 0xFFFFFFFFFFFFFFFFFFFFFFFFFFFFFFFFFFFFFFFF DUP3 AND SWAP1 POP SWAP2 SWAP1 POP JUMP JUMPDEST PUSH1 0x0 PUSH3 0x201 DUP3 PUSH3 0x1D4 JUMP JUMPDEST SWAP1 POP SWAP2 SWAP1 POP JUMP JUMPDEST PUSH3 0x213 DUP2 PUSH3 0x1F4 JUMP JUMPDEST DUP2 EQ PUSH3 0x21F JUMPI PUSH1 0x0 DUP1 REVERT JUMPDEST POP JUMP JUMPDEST PUSH1 0x0 DUP2 MLOAD SWAP1 POP PUSH3 0x233 DUP2 PUSH3 0x208 JUMP JUMPDEST SWAP3 SWAP2 POP POP JUMP JUMPDEST PUSH1 0x0 DUP1 REVERT JUMPDEST PUSH1 0x0 DUP1 REVERT JUMPDEST PUSH1 0x0 PUSH1 0x1F NOT PUSH1 0x1F DUP4 ADD AND SWAP1 POP SWAP2 SWAP1 POP JUMP JUMPDEST PUSH32 0x4E487B7100000000000000000000000000000000000000000000000000000000 PUSH1 0x0 MSTORE PUSH1 0x41 PUSH1 0x4 MSTORE PUSH1 0x24 PUSH1 0x0 REVERT JUMPDEST PUSH3 0x28E DUP3 PUSH3 0x243 JUMP JUMPDEST DUP2 ADD DUP2 DUP2 LT PUSH8 0xFFFFFFFFFFFFFFFF DUP3 GT OR ISZERO PUSH3 0x2B0 JUMPI PUSH3 0x2AF PUSH3 0x254 JUMP JUMPDEST JUMPDEST DUP1 PUSH1 0x40 MSTORE POP POP POP JUMP JUMPDEST PUSH1 0x0 PUSH3 0x2C5 PUSH3 0x185 JUMP JUMPDEST SWAP1 POP PUSH3 0x2D3 DUP3 DUP3 PUSH3 0x283 JUMP JUMPDEST SWAP2 SWAP1 POP JUMP JUMPDEST PUSH1 0x0 PUSH8 0xFFFFFFFFFFFFFFFF DUP3 GT ISZERO PUSH3 0x2F6 JUMPI PUSH3 0x2F5 PUSH3 0x254 JUMP JUMPDEST JUMPDEST PUSH3 0x301 DUP3 PUSH3 0x243 JUMP JUMPDEST SWAP1 POP PUSH1 0x20 DUP2 ADD SWAP1 POP SWAP2 SWAP1 POP JUMP JUMPDEST PUSH1 0x0 JUMPDEST DUP4 DUP2 LT ISZERO PUSH3 0x32E JUMPI DUP1 DUP3 ADD MLOAD DUP2 DUP5 ADD MSTORE PUSH1 0x20 DUP2 ADD SWAP1 POP PUSH3 0x311 JUMP JUMPDEST DUP4 DUP2 GT ISZERO PUSH3 0x33E JUMPI PUSH1 0x0 DUP5 DUP5 ADD MSTORE JUMPDEST POP POP POP POP JUMP JUMPDEST PUSH1 0x0 PUSH3 0x35B PUSH3 0x355 DUP5 PUSH3 0x2D8 JUMP JUMPDEST PUSH3 0x2B9 JUMP JUMPDEST SWAP1 POP DUP3 DUP2 MSTORE PUSH1 0x20 DUP2 ADD DUP5 DUP5 DUP5 ADD GT ISZERO PUSH3 0x37A JUMPI PUSH3 0x379 PUSH3 0x23E JUMP JUMPDEST JUMPDEST PUSH3 0x387 DUP5 DUP3 DUP6 PUSH3 0x30E JUMP JUMPDEST POP SWAP4 SWAP3 POP POP POP JUMP JUMPDEST PUSH1 0x0 DUP3 PUSH1 0x1F DUP4 ADD SLT PUSH3 0x3A7 JUMPI PUSH3 0x3A6 PUSH3 0x239 JUMP JUMPDEST JUMPDEST DUP2 MLOAD PUSH3 0x3B9 DUP5 DUP3 PUSH1 0x20 DUP7 ADD PUSH3 0x344 JUMP JUMPDEST SWAP2 POP POP SWAP3 SWAP2 POP POP JUMP JUMPDEST PUSH1 0x0 DUP1 PUSH1 0x0 DUP1 PUSH1 0x0 PUSH1 0xA0 DUP7 DUP9 SUB SLT ISZERO PUSH3 0x3E1 JUMPI PUSH3 0x3E0 PUSH3 0x18F JUMP JUMPDEST JUMPDEST PUSH1 0x0 PUSH3 0x3F1 DUP9 DUP3 DUP10 ADD PUSH3 0x1BD JUMP JUMPDEST SWAP6 POP POP PUSH1 0x20 PUSH3 0x404 DUP9 DUP3 DUP10 ADD PUSH3 0x222 JUMP JUMPDEST SWAP5 POP POP PUSH1 0x40 DUP7 ADD MLOAD PUSH8 0xFFFFFFFFFFFFFFFF DUP2 GT ISZERO PUSH3 0x428 JUMPI PUSH3 0x427 PUSH3 0x194 JUMP JUMPDEST JUMPDEST PUSH3 0x436 DUP9 DUP3 DUP10 ADD PUSH3 0x38F JUMP JUMPDEST SWAP4 POP POP PUSH1 0x60 DUP7 ADD MLOAD PUSH8 0xFFFFFFFFFFFFFFFF DUP2 GT ISZERO PUSH3 0x45A JUMPI PUSH3 0x459 PUSH3 0x194 JUMP JUMPDEST JUMPDEST PUSH3 0x468 DUP9 DUP3 DUP10 ADD PUSH3 0x38F JUMP JUMPDEST SWAP3 POP POP PUSH1 0x80 DUP7 ADD MLOAD PUSH8 0xFFFFFFFFFFFFFFFF DUP2 GT ISZERO PUSH3 0x48C JUMPI PUSH3 0x48B PUSH3 0x194 JUMP JUMPDEST JUMPDEST PUSH3 0x49A DUP9 DUP3 DUP10 ADD PUSH3 0x38F JUMP JUMPDEST SWAP2 POP POP SWAP3 SWAP6 POP SWAP3 SWAP6 SWAP1 SWAP4 POP JUMP JUMPDEST PUSH32 0x4E487B7100000000000000000000000000000000000000000000000000000000 PUSH1 0x0 MSTORE PUSH1 0x22 PUSH1 0x4 MSTORE PUSH1 0x24 PUSH1 0x0 REVERT JUMPDEST PUSH1 0x0 PUSH1 0x2 DUP3 DIV SWAP1 POP PUSH1 0x1 DUP3 AND DUP1 PUSH3 0x4EF JUMPI PUSH1 0x7F DUP3 AND SWAP2 POP JUMPDEST PUSH1 0x20 DUP3 LT DUP2 SUB PUSH3 0x505 JUMPI PUSH3 0x504 PUSH3 0x4A7 JUMP JUMPDEST JUMPDEST POP SWAP2 SWAP1 POP JUMP JUMPDEST PUSH2 0x148B DUP1 PUSH3 0x51B PUSH1 0x0 CODECOPY PUSH1 0x0 RETURN INVALID PUSH1 0x80 PUSH1 0x40 MSTORE PUSH1 0x4 CALLDATASIZE LT PUSH2 0xE8 JUMPI PUSH1 0x0 CALLDATALOAD PUSH1 0xE0 SHR DUP1 PUSH4 0x7B6C8078 GT PUSH2 0x8A JUMPI DUP1 PUSH4 0x937E09B1 GT PUSH2 0x59 JUMPI DUP1 PUSH4 0x937E09B1 EQ PUSH2 0x2F1 JUMPI DUP1 PUSH4 0xAF06F5F7 EQ PUSH2 0x31C JUMPI DUP1 PUSH4 0xD7BB99BA EQ PUSH2 0x347 JUMPI DUP1 PUSH4 0xD7D1BBDB EQ PUSH2 0x351 JUMPI PUSH2 0xE8 JUMP JUMPDEST DUP1 PUSH4 0x7B6C8078 EQ PUSH2 0x231 JUMPI DUP1 PUSH4 0x81D12C58 EQ PUSH2 0x25C JUMPI DUP1 PUSH4 0x82FDE093 EQ PUSH2 0x29D JUMPI DUP1 PUSH4 0x8A9CFD55 EQ PUSH2 0x2C8 JUMPI PUSH2 0xE8 JUMP JUMPDEST DUP1 PUSH4 0x110842CB GT PUSH2 0xC6 JUMPI DUP1 PUSH4 0x110842CB EQ PUSH2 0x17E JUMPI DUP1 PUSH4 0x3410452A EQ PUSH2 0x1A9 JUMPI DUP1 PUSH4 0x4051DDAC EQ PUSH2 0x1D4 JUMPI DUP1 PUSH4 0x481C6A75 EQ PUSH2 0x206 JUMPI PUSH2 0xE8 JUMP JUMPDEST DUP1 PUSH4 0x3441006 EQ PUSH2 0xED JUMPI DUP1 PUSH4 0x724FDA9 EQ PUSH2 0x116 JUMPI DUP1 PUSH4 0xA144391 EQ PUSH2 0x141 JUMPI JUMPDEST PUSH1 0x0 DUP1 REVERT JUMPDEST CALLVALUE DUP1 ISZERO PUSH2 0xF9 JUMPI PUSH1 0x0 DUP1 REVERT JUMPDEST POP PUSH2 0x114 PUSH1 0x4 DUP1 CALLDATASIZE SUB DUP2 ADD SWAP1 PUSH2 0x10F SWAP2 SWAP1 PUSH2 0xE2D JUMP JUMPDEST PUSH2 0x37A JUMP JUMPDEST STOP JUMPDEST CALLVALUE DUP1 ISZERO PUSH2 0x122 JUMPI PUSH1 0x0 DUP1 REVERT JUMPDEST POP PUSH2 0x12B PUSH2 0x4CC JUMP JUMPDEST PUSH1 0x40 MLOAD PUSH2 0x138 SWAP2 SWAP1 PUSH2 0xEF3 JUMP JUMPDEST PUSH1 0x40 MLOAD DUP1 SWAP2 SUB SWAP1 RETURN JUMPDEST CALLVALUE DUP1 ISZERO PUSH2 0x14D JUMPI PUSH1 0x0 DUP1 REVERT JUMPDEST POP PUSH2 0x168 PUSH1 0x4 DUP1 CALLDATASIZE SUB DUP2 ADD SWAP1 PUSH2 0x163 SWAP2 SWAP1 PUSH2 0xF73 JUMP JUMPDEST PUSH2 0x55A JUMP JUMPDEST PUSH1 0x40 MLOAD PUSH2 0x175 SWAP2 SWAP1 PUSH2 0xFBB JUMP JUMPDEST PUSH1 0x40 MLOAD DUP1 SWAP2 SUB SWAP1 RETURN JUMPDEST CALLVALUE DUP1 ISZERO PUSH2 0x18A JUMPI PUSH1 0x0 DUP1 REVERT JUMPDEST POP PUSH2 0x193 PUSH2 0x57A JUMP JUMPDEST PUSH1 0x40 MLOAD PUSH2 0x1A0 SWAP2 SWAP1 PUSH2 0xEF3 JUMP JUMPDEST PUSH1 0x40 MLOAD DUP1 SWAP2 SUB SWAP1 RETURN JUMPDEST CALLVALUE DUP1 ISZERO PUSH2 0x1B5 JUMPI PUSH1 0x0 DUP1 REVERT JUMPDEST POP PUSH2 0x1BE PUSH2 0x608 JUMP JUMPDEST PUSH1 0x40 MLOAD PUSH2 0x1CB SWAP2 SWAP1 PUSH2 0xFE5 JUMP JUMPDEST PUSH1 0x40 MLOAD DUP1 SWAP2 SUB SWAP1 RETURN JUMPDEST CALLVALUE DUP1 ISZERO PUSH2 0x1E0 JUMPI PUSH1 0x0 DUP1 REVERT JUMPDEST POP PUSH2 0x1E9 PUSH2 0x614 JUMP JUMPDEST PUSH1 0x40 MLOAD PUSH2 0x1FD SWAP9 SWAP8 SWAP7 SWAP6 SWAP5 SWAP4 SWAP3 SWAP2 SWAP1 PUSH2 0x100F JUMP JUMPDEST PUSH1 0x40 MLOAD DUP1 SWAP2 SUB SWAP1 RETURN JUMPDEST CALLVALUE DUP1 ISZERO PUSH2 0x212 JUMPI PUSH1 0x0 DUP1 REVERT JUMPDEST POP PUSH2 0x21B PUSH2 0x815 JUMP JUMPDEST PUSH1 0x40 MLOAD PUSH2 0x228 SWAP2 SWAP1 PUSH2 0x10A2 JUMP JUMPDEST PUSH1 0x40 MLOAD DUP1 SWAP2 SUB SWAP1 RETURN JUMPDEST CALLVALUE DUP1 ISZERO PUSH2 0x23D JUMPI PUSH1 0x0 DUP1 REVERT JUMPDEST POP PUSH2 0x246 PUSH2 0x83B JUMP JUMPDEST PUSH1 0x40 MLOAD PUSH2 0x253 SWAP2 SWAP1 PUSH2 0xFE5 JUMP JUMPDEST PUSH1 0x40 MLOAD DUP1 SWAP2 SUB SWAP1 RETURN JUMPDEST CALLVALUE DUP1 ISZERO PUSH2 0x268 JUMPI PUSH1 0x0 DUP1 REVERT JUMPDEST POP PUSH2 0x283 PUSH1 0x4 DUP1 CALLDATASIZE SUB DUP2 ADD SWAP1 PUSH2 0x27E SWAP2 SWAP1 PUSH2 0xE2D JUMP JUMPDEST PUSH2 0x843 JUMP JUMPDEST PUSH1 0x40 MLOAD PUSH2 0x294 SWAP6 SWAP5 SWAP4 SWAP3 SWAP2 SWAP1 PUSH2 0x10BD JUMP JUMPDEST PUSH1 0x40 MLOAD DUP1 SWAP2 SUB SWAP1 RETURN JUMPDEST CALLVALUE DUP1 ISZERO PUSH2 0x2A9 JUMPI PUSH1 0x0 DUP1 REVERT JUMPDEST POP PUSH2 0x2B2 PUSH2 0x93E JUMP JUMPDEST PUSH1 0x40 MLOAD PUSH2 0x2BF SWAP2 SWAP1 PUSH2 0xFE5 JUMP JUMPDEST PUSH1 0x40 MLOAD DUP1 SWAP2 SUB SWAP1 RETURN JUMPDEST CALLVALUE DUP1 ISZERO PUSH2 0x2D4 JUMPI PUSH1 0x0 DUP1 REVERT JUMPDEST POP PUSH2 0x2EF PUSH1 0x4 DUP1 CALLDATASIZE SUB DUP2 ADD SWAP1 PUSH2 0x2EA SWAP2 SWAP1 PUSH2 0x124C JUMP JUMPDEST PUSH2 0x944 JUMP JUMPDEST STOP JUMPDEST CALLVALUE DUP1 ISZERO PUSH2 0x2FD JUMPI PUSH1 0x0 DUP1 REVERT JUMPDEST POP PUSH2 0x306 PUSH2 0xA53 JUMP JUMPDEST PUSH1 0x40 MLOAD PUSH2 0x313 SWAP2 SWAP1 PUSH2 0xFE5 JUMP JUMPDEST PUSH1 0x40 MLOAD DUP1 SWAP2 SUB SWAP1 RETURN JUMPDEST CALLVALUE DUP1 ISZERO PUSH2 0x328 JUMPI PUSH1 0x0 DUP1 REVERT JUMPDEST POP PUSH2 0x331 PUSH2 0xA59 JUMP JUMPDEST PUSH1 0x40 MLOAD PUSH2 0x33E SWAP2 SWAP1 PUSH2 0xEF3 JUMP JUMPDEST PUSH1 0x40 MLOAD DUP1 SWAP2 SUB SWAP1 RETURN JUMPDEST PUSH2 0x34F PUSH2 0xAE7 JUMP JUMPDEST STOP JUMPDEST CALLVALUE DUP1 ISZERO PUSH2 0x35D JUMPI PUSH1 0x0 DUP1 REVERT JUMPDEST POP PUSH2 0x378 PUSH1 0x4 DUP1 CALLDATASIZE SUB DUP2 ADD SWAP1 PUSH2 0x373 SWAP2 SWAP1 PUSH2 0xE2D JUMP JUMPDEST PUSH2 0xBB9 JUMP JUMPDEST STOP JUMPDEST PUSH1 0x1 PUSH1 0x0 SWAP1 SLOAD SWAP1 PUSH2 0x100 EXP SWAP1 DIV PUSH20 0xFFFFFFFFFFFFFFFFFFFFFFFFFFFFFFFFFFFFFFFF AND PUSH20 0xFFFFFFFFFFFFFFFFFFFFFFFFFFFFFFFFFFFFFFFF AND CALLER PUSH20 0xFFFFFFFFFFFFFFFFFFFFFFFFFFFFFFFFFFFFFFFF AND EQ PUSH2 0x3D4 JUMPI PUSH1 0x0 DUP1 REVERT JUMPDEST PUSH2 0x3DD DUP2 PUSH2 0xD0E JUMP JUMPDEST PUSH1 0x0 DUP1 DUP3 DUP2 SLOAD DUP2 LT PUSH2 0x3F2 JUMPI PUSH2 0x3F1 PUSH2 0x12BB JUMP JUMPDEST JUMPDEST SWAP1 PUSH1 0x0 MSTORE PUSH1 0x20 PUSH1 0x0 KECCAK256 SWAP1 PUSH1 0x5 MUL ADD SWAP1 POP PUSH1 0x2 PUSH1 0x4 SLOAD PUSH2 0x411 SWAP2 SWAP1 PUSH2 0x1348 JUMP JUMPDEST DUP2 PUSH1 0x3 ADD SLOAD GT PUSH2 0x420 JUMPI PUSH1 0x0 DUP1 REVERT JUMPDEST DUP1 PUSH1 0x2 ADD PUSH1 0x14 SWAP1 SLOAD SWAP1 PUSH2 0x100 EXP SWAP1 DIV PUSH1 0xFF AND ISZERO PUSH2 0x43C JUMPI PUSH1 0x0 DUP1 REVERT JUMPDEST DUP1 PUSH1 0x2 ADD PUSH1 0x0 SWAP1 SLOAD SWAP1 PUSH2 0x100 EXP SWAP1 DIV PUSH20 0xFFFFFFFFFFFFFFFFFFFFFFFFFFFFFFFFFFFFFFFF AND PUSH20 0xFFFFFFFFFFFFFFFFFFFFFFFFFFFFFFFFFFFFFFFF AND PUSH2 0x8FC DUP3 PUSH1 0x1 ADD SLOAD SWAP1 DUP2 ISZERO MUL SWAP1 PUSH1 0x40 MLOAD PUSH1 0x0 PUSH1 0x40 MLOAD DUP1 DUP4 SUB DUP2 DUP6 DUP9 DUP9 CALL SWAP4 POP POP POP POP ISZERO DUP1 ISZERO PUSH2 0x4AA JUMPI RETURNDATASIZE PUSH1 0x0 DUP1 RETURNDATACOPY RETURNDATASIZE PUSH1 0x0 REVERT JUMPDEST POP PUSH1 0x1 DUP2 PUSH1 0x2 ADD PUSH1 0x14 PUSH2 0x100 EXP DUP2 SLOAD DUP2 PUSH1 0xFF MUL NOT AND SWAP1 DUP4 ISZERO ISZERO MUL OR SWAP1 SSTORE POP POP POP JUMP JUMPDEST PUSH1 0x5 DUP1 SLOAD PUSH2 0x4D9 SWAP1 PUSH2 0x13A8 JUMP JUMPDEST DUP1 PUSH1 0x1F ADD PUSH1 0x20 DUP1 SWAP2 DIV MUL PUSH1 0x20 ADD PUSH1 0x40 MLOAD SWAP1 DUP2 ADD PUSH1 0x40 MSTORE DUP1 SWAP3 SWAP2 SWAP1 DUP2 DUP2 MSTORE PUSH1 0x20 ADD DUP3 DUP1 SLOAD PUSH2 0x505 SWAP1 PUSH2 0x13A8 JUMP JUMPDEST DUP1 ISZERO PUSH2 0x552 JUMPI DUP1 PUSH1 0x1F LT PUSH2 0x527 JUMPI PUSH2 0x100 DUP1 DUP4 SLOAD DIV MUL DUP4 MSTORE SWAP2 PUSH1 0x20 ADD SWAP2 PUSH2 0x552 JUMP JUMPDEST DUP3 ADD SWAP2 SWAP1 PUSH1 0x0 MSTORE PUSH1 0x20 PUSH1 0x0 KECCAK256 SWAP1 JUMPDEST DUP2 SLOAD DUP2 MSTORE SWAP1 PUSH1 0x1 ADD SWAP1 PUSH1 0x20 ADD DUP1 DUP4 GT PUSH2 0x535 JUMPI DUP3 SWAP1 SUB PUSH1 0x1F AND DUP3 ADD SWAP2 JUMPDEST POP POP POP POP POP DUP2 JUMP JUMPDEST PUSH1 0x3 PUSH1 0x20 MSTORE DUP1 PUSH1 0x0 MSTORE PUSH1 0x40 PUSH1 0x0 KECCAK256 PUSH1 0x0 SWAP2 POP SLOAD SWAP1 PUSH2 0x100 EXP SWAP1 DIV PUSH1 0xFF AND DUP2 JUMP JUMPDEST PUSH1 0x6 DUP1 SLOAD PUSH2 0x587 SWAP1 PUSH2 0x13A8 JUMP JUMPDEST DUP1 PUSH1 0x1F ADD PUSH1 0x20 DUP1 SWAP2 DIV MUL PUSH1 0x20 ADD PUSH1 0x40 MLOAD SWAP1 DUP2 ADD PUSH1 0x40 MSTORE DUP1 SWAP3 SWAP2 SWAP1 DUP2 DUP2 MSTORE PUSH1 0x20 ADD DUP3 DUP1 SLOAD PUSH2 0x5B3 SWAP1 PUSH2 0x13A8 JUMP JUMPDEST DUP1 ISZERO PUSH2 0x600 JUMPI DUP1 PUSH1 0x1F LT PUSH2 0x5D5 JUMPI PUSH2 0x100 DUP1 DUP4 SLOAD DIV MUL DUP4 MSTORE SWAP2 PUSH1 0x20 ADD SWAP2 PUSH2 0x600 JUMP JUMPDEST DUP3 ADD SWAP2 SWAP1 PUSH1 0x0 MSTORE PUSH1 0x20 PUSH1 0x0 KECCAK256 SWAP1 JUMPDEST DUP2 SLOAD DUP2 MSTORE SWAP1 PUSH1 0x1 ADD SWAP1 PUSH1 0x20 ADD DUP1 DUP4 GT PUSH2 0x5E3 JUMPI DUP3 SWAP1 SUB PUSH1 0x1F AND DUP3 ADD SWAP2 JUMPDEST POP POP POP POP POP DUP2 JUMP JUMPDEST PUSH1 0x0 DUP1 DUP1 SLOAD SWAP1 POP SWAP1 POP SWAP1 JUMP JUMPDEST PUSH1 0x0 DUP1 PUSH1 0x0 DUP1 PUSH1 0x0 PUSH1 0x60 DUP1 PUSH1 0x60 PUSH1 0x2 SLOAD SELFBALANCE PUSH1 0x0 DUP1 SLOAD SWAP1 POP PUSH1 0x4 SLOAD PUSH1 0x1 PUSH1 0x0 SWAP1 SLOAD SWAP1 PUSH2 0x100 EXP SWAP1 DIV PUSH20 0xFFFFFFFFFFFFFFFFFFFFFFFFFFFFFFFFFFFFFFFF AND PUSH1 0x5 PUSH1 0x6 PUSH1 0x7 DUP3 DUP1 SLOAD PUSH2 0x663 SWAP1 PUSH2 0x13A8 JUMP JUMPDEST DUP1 PUSH1 0x1F ADD PUSH1 0x20 DUP1 SWAP2 DIV MUL PUSH1 0x20 ADD PUSH1 0x40 MLOAD SWAP1 DUP2 ADD PUSH1 0x40 MSTORE DUP1 SWAP3 SWAP2 SWAP1 DUP2 DUP2 MSTORE PUSH1 0x20 ADD DUP3 DUP1 SLOAD PUSH2 0x68F SWAP1 PUSH2 0x13A8 JUMP JUMPDEST DUP1 ISZERO PUSH2 0x6DC JUMPI DUP1 PUSH1 0x1F LT PUSH2 0x6B1 JUMPI PUSH2 0x100 DUP1 DUP4 SLOAD DIV MUL DUP4 MSTORE SWAP2 PUSH1 0x20 ADD SWAP2 PUSH2 0x6DC JUMP JUMPDEST DUP3 ADD SWAP2 SWAP1 PUSH1 0x0 MSTORE PUSH1 0x20 PUSH1 0x0 KECCAK256 SWAP1 JUMPDEST DUP2 SLOAD DUP2 MSTORE SWAP1 PUSH1 0x1 ADD SWAP1 PUSH1 0x20 ADD DUP1 DUP4 GT PUSH2 0x6BF JUMPI DUP3 SWAP1 SUB PUSH1 0x1F AND DUP3 ADD SWAP2 JUMPDEST POP POP POP POP POP SWAP3 POP DUP2 DUP1 SLOAD PUSH2 0x6EF SWAP1 PUSH2 0x13A8 JUMP JUMPDEST DUP1 PUSH1 0x1F ADD PUSH1 0x20 DUP1 SWAP2 DIV MUL PUSH1 0x20 ADD PUSH1 0x40 MLOAD SWAP1 DUP2 ADD PUSH1 0x40 MSTORE DUP1 SWAP3 SWAP2 SWAP1 DUP2 DUP2 MSTORE PUSH1 0x20 ADD DUP3 DUP1 SLOAD PUSH2 0x71B SWAP1 PUSH2 0x13A8 JUMP JUMPDEST DUP1 ISZERO PUSH2 0x768 JUMPI DUP1 PUSH1 0x1F LT PUSH2 0x73D JUMPI PUSH2 0x100 DUP1 DUP4 SLOAD DIV MUL DUP4 MSTORE SWAP2 PUSH1 0x20 ADD SWAP2 PUSH2 0x768 JUMP JUMPDEST DUP3 ADD SWAP2 SWAP1 PUSH1 0x0 MSTORE PUSH1 0x20 PUSH1 0x0 KECCAK256 SWAP1 JUMPDEST DUP2 SLOAD DUP2 MSTORE SWAP1 PUSH1 0x1 ADD SWAP1 PUSH1 0x20 ADD DUP1 DUP4 GT PUSH2 0x74B JUMPI DUP3 SWAP1 SUB PUSH1 0x1F AND DUP3 ADD SWAP2 JUMPDEST POP POP POP POP POP SWAP2 POP DUP1 DUP1 SLOAD PUSH2 0x77B SWAP1 PUSH2 0x13A8 JUMP JUMPDEST DUP1 PUSH1 0x1F ADD PUSH1 0x20 DUP1 SWAP2 DIV MUL PUSH1 0x20 ADD PUSH1 0x40 MLOAD SWAP1 DUP2 ADD PUSH1 0x40 MSTORE DUP1 SWAP3 SWAP2 SWAP1 DUP2 DUP2 MSTORE PUSH1 0x20 ADD DUP3 DUP1 SLOAD PUSH2 0x7A7 SWAP1 PUSH2 0x13A8 JUMP JUMPDEST DUP1 ISZERO PUSH2 0x7F4 JUMPI DUP1 PUSH1 0x1F LT PUSH2 0x7C9 JUMPI PUSH2 0x100 DUP1 DUP4 SLOAD DIV MUL DUP4 MSTORE SWAP2 PUSH1 0x20 ADD SWAP2 PUSH2 0x7F4 JUMP JUMPDEST DUP3 ADD SWAP2 SWAP1 PUSH1 0x0 MSTORE PUSH1 0x20 PUSH1 0x0 KECCAK256 SWAP1 JUMPDEST DUP2 SLOAD DUP2 MSTORE SWAP1 PUSH1 0x1 ADD SWAP1 PUSH1 0x20 ADD DUP1 DUP4 GT PUSH2 0x7D7 JUMPI DUP3 SWAP1 SUB PUSH1 0x1F AND DUP3 ADD SWAP2 JUMPDEST POP POP POP POP POP SWAP1 POP SWAP8 POP SWAP8 POP SWAP8 POP SWAP8 POP SWAP8 POP SWAP8 POP SWAP8 POP SWAP8 POP SWAP1 SWAP2 SWAP3 SWAP4 SWAP5 SWAP6 SWAP7 SWAP8 JUMP JUMPDEST PUSH1 0x1 PUSH1 0x0 SWAP1 SLOAD SWAP1 PUSH2 0x100 EXP SWAP1 DIV PUSH20 0xFFFFFFFFFFFFFFFFFFFFFFFFFFFFFFFFFFFFFFFF AND DUP2 JUMP JUMPDEST PUSH1 0x0 SELFBALANCE SWAP1 POP SWAP1 JUMP JUMPDEST PUSH1 0x0 DUP2 DUP2 SLOAD DUP2 LT PUSH2 0x853 JUMPI PUSH1 0x0 DUP1 REVERT JUMPDEST SWAP1 PUSH1 0x0 MSTORE PUSH1 0x20 PUSH1 0x0 KECCAK256 SWAP1 PUSH1 0x5 MUL ADD PUSH1 0x0 SWAP2 POP SWAP1 POP DUP1 PUSH1 0x0 ADD DUP1 SLOAD PUSH2 0x876 SWAP1 PUSH2 0x13A8 JUMP JUMPDEST DUP1 PUSH1 0x1F ADD PUSH1 0x20 DUP1 SWAP2 DIV MUL PUSH1 0x20 ADD PUSH1 0x40 MLOAD SWAP1 DUP2 ADD PUSH1 0x40 MSTORE DUP1 SWAP3 SWAP2 SWAP1 DUP2 DUP2 MSTORE PUSH1 0x20 ADD DUP3 DUP1 SLOAD PUSH2 0x8A2 SWAP1 PUSH2 0x13A8 JUMP JUMPDEST DUP1 ISZERO PUSH2 0x8EF JUMPI DUP1 PUSH1 0x1F LT PUSH2 0x8C4 JUMPI PUSH2 0x100 DUP1 DUP4 SLOAD DIV MUL DUP4 MSTORE SWAP2 PUSH1 0x20 ADD SWAP2 PUSH2 0x8EF JUMP JUMPDEST DUP3 ADD SWAP2 SWAP1 PUSH1 0x0 MSTORE PUSH1 0x20 PUSH1 0x0 KECCAK256 SWAP1 JUMPDEST DUP2 SLOAD DUP2 MSTORE SWAP1 PUSH1 0x1 ADD SWAP1 PUSH1 0x20 ADD DUP1 DUP4 GT PUSH2 0x8D2 JUMPI DUP3 SWAP1 SUB PUSH1 0x1F AND DUP3 ADD SWAP2 JUMPDEST POP POP POP POP POP SWAP1 DUP1 PUSH1 0x1 ADD SLOAD SWAP1 DUP1 PUSH1 0x2 ADD PUSH1 0x0 SWAP1 SLOAD SWAP1 PUSH2 0x100 EXP SWAP1 DIV PUSH20 0xFFFFFFFFFFFFFFFFFFFFFFFFFFFFFFFFFFFFFFFF AND SWAP1 DUP1 PUSH1 0x2 ADD PUSH1 0x14 SWAP1 SLOAD SWAP1 PUSH2 0x100 EXP SWAP1 DIV PUSH1 0xFF AND SWAP1 DUP1 PUSH1 0x3 ADD SLOAD SWAP1 POP DUP6 JUMP JUMPDEST PUSH1 0x4 SLOAD DUP2 JUMP JUMPDEST PUSH1 0x1 PUSH1 0x0 SWAP1 SLOAD SWAP1 PUSH2 0x100 EXP SWAP1 DIV PUSH20 0xFFFFFFFFFFFFFFFFFFFFFFFFFFFFFFFFFFFFFFFF AND PUSH20 0xFFFFFFFFFFFFFFFFFFFFFFFFFFFFFFFFFFFFFFFF AND CALLER PUSH20 0xFFFFFFFFFFFFFFFFFFFFFFFFFFFFFFFFFFFFFFFF AND EQ PUSH2 0x99E JUMPI PUSH1 0x0 DUP1 REVERT JUMPDEST PUSH1 0x0 DUP1 PUSH1 0x1 DUP2 PUSH1 0x1 DUP2 SLOAD ADD DUP1 DUP3 SSTORE DUP1 SWAP2 POP POP SUB SWAP1 PUSH1 0x0 MSTORE PUSH1 0x20 PUSH1 0x0 KECCAK256 SWAP1 PUSH1 0x5 MUL ADD SWAP1 POP DUP4 DUP2 PUSH1 0x0 ADD SWAP1 DUP1 MLOAD SWAP1 PUSH1 0x20 ADD SWAP1 PUSH2 0x9D9 SWAP3 SWAP2 SWAP1 PUSH2 0xD40 JUMP JUMPDEST POP DUP3 DUP2 PUSH1 0x1 ADD DUP2 SWAP1 SSTORE POP DUP2 DUP2 PUSH1 0x2 ADD PUSH1 0x0 PUSH2 0x100 EXP DUP2 SLOAD DUP2 PUSH20 0xFFFFFFFFFFFFFFFFFFFFFFFFFFFFFFFFFFFFFFFF MUL NOT AND SWAP1 DUP4 PUSH20 0xFFFFFFFFFFFFFFFFFFFFFFFFFFFFFFFFFFFFFFFF AND MUL OR SWAP1 SSTORE POP PUSH1 0x0 DUP2 PUSH1 0x2 ADD PUSH1 0x14 PUSH2 0x100 EXP DUP2 SLOAD DUP2 PUSH1 0xFF MUL NOT AND SWAP1 DUP4 ISZERO ISZERO MUL OR SWAP1 SSTORE POP PUSH1 0x0 DUP2 PUSH1 0x3 ADD DUP2 SWAP1 SSTORE POP POP POP POP POP JUMP JUMPDEST PUSH1 0x2 SLOAD DUP2 JUMP JUMPDEST PUSH1 0x7 DUP1 SLOAD PUSH2 0xA66 SWAP1 PUSH2 0x13A8 JUMP JUMPDEST DUP1 PUSH1 0x1F ADD PUSH1 0x20 DUP1 SWAP2 DIV MUL PUSH1 0x20 ADD PUSH1 0x40 MLOAD SWAP1 DUP2 ADD PUSH1 0x40 MSTORE DUP1 SWAP3 SWAP2 SWAP1 DUP2 DUP2 MSTORE PUSH1 0x20 ADD DUP3 DUP1 SLOAD PUSH2 0xA92 SWAP1 PUSH2 0x13A8 JUMP JUMPDEST DUP1 ISZERO PUSH2 0xADF JUMPI DUP1 PUSH1 0x1F LT PUSH2 0xAB4 JUMPI PUSH2 0x100 DUP1 DUP4 SLOAD DIV MUL DUP4 MSTORE SWAP2 PUSH1 0x20 ADD SWAP2 PUSH2 0xADF JUMP JUMPDEST DUP3 ADD SWAP2 SWAP1 PUSH1 0x0 MSTORE PUSH1 0x20 PUSH1 0x0 KECCAK256 SWAP1 JUMPDEST DUP2 SLOAD DUP2 MSTORE SWAP1 PUSH1 0x1 ADD SWAP1 PUSH1 0x20 ADD DUP1 DUP4 GT PUSH2 0xAC2 JUMPI DUP3 SWAP1 SUB PUSH1 0x1F AND DUP3 ADD SWAP2 JUMPDEST POP POP POP POP POP DUP2 JUMP JUMPDEST PUSH1 0x2 SLOAD CALLVALUE GT PUSH2 0xAF5 JUMPI PUSH1 0x0 DUP1 REVERT JUMPDEST PUSH1 0x3 PUSH1 0x0 CALLER PUSH20 0xFFFFFFFFFFFFFFFFFFFFFFFFFFFFFFFFFFFFFFFF AND PUSH20 0xFFFFFFFFFFFFFFFFFFFFFFFFFFFFFFFFFFFFFFFF AND DUP2 MSTORE PUSH1 0x20 ADD SWAP1 DUP2 MSTORE PUSH1 0x20 ADD PUSH1 0x0 KECCAK256 PUSH1 0x0 SWAP1 SLOAD SWAP1 PUSH2 0x100 EXP SWAP1 DIV PUSH1 0xFF AND PUSH2 0xBB7 JUMPI PUSH1 0x1 PUSH1 0x3 PUSH1 0x0 CALLER PUSH20 0xFFFFFFFFFFFFFFFFFFFFFFFFFFFFFFFFFFFFFFFF AND PUSH20 0xFFFFFFFFFFFFFFFFFFFFFFFFFFFFFFFFFFFFFFFF AND DUP2 MSTORE PUSH1 0x20 ADD SWAP1 DUP2 MSTORE PUSH1 0x20 ADD PUSH1 0x0 KECCAK256 PUSH1 0x0 PUSH2 0x100 EXP DUP2 SLOAD DUP2 PUSH1 0xFF MUL NOT AND SWAP1 DUP4 ISZERO ISZERO MUL OR SWAP1 SSTORE POP PUSH1 0x4 PUSH1 0x0 DUP2 SLOAD DUP1 SWAP3 SWAP2 SWAP1 PUSH2 0xBB1 SWAP1 PUSH2 0x13D9 JUMP JUMPDEST SWAP2 SWAP1 POP SSTORE POP JUMPDEST JUMP JUMPDEST PUSH2 0xBC2 DUP2 PUSH2 0xD0E JUMP JUMPDEST PUSH1 0x0 DUP1 DUP3 DUP2 SLOAD DUP2 LT PUSH2 0xBD7 JUMPI PUSH2 0xBD6 PUSH2 0x12BB JUMP JUMPDEST JUMPDEST SWAP1 PUSH1 0x0 MSTORE PUSH1 0x20 PUSH1 0x0 KECCAK256 SWAP1 PUSH1 0x5 MUL ADD SWAP1 POP PUSH1 0x3 PUSH1 0x0 CALLER PUSH20 0xFFFFFFFFFFFFFFFFFFFFFFFFFFFFFFFFFFFFFFFF AND PUSH20 0xFFFFFFFFFFFFFFFFFFFFFFFFFFFFFFFFFFFFFFFF AND DUP2 MSTORE PUSH1 0x20 ADD SWAP1 DUP2 MSTORE PUSH1 0x20 ADD PUSH1 0x0 KECCAK256 PUSH1 0x0 SWAP1 SLOAD SWAP1 PUSH2 0x100 EXP SWAP1 DIV PUSH1 0xFF AND PUSH2 0xC3D JUMPI PUSH1 0x0 DUP1 REVERT JUMPDEST DUP1 PUSH1 0x4 ADD PUSH1 0x0 CALLER PUSH20 0xFFFFFFFFFFFFFFFFFFFFFFFFFFFFFFFFFFFFFFFF AND PUSH20 0xFFFFFFFFFFFFFFFFFFFFFFFFFFFFFFFFFFFFFFFF AND DUP2 MSTORE PUSH1 0x20 ADD SWAP1 DUP2 MSTORE PUSH1 0x20 ADD PUSH1 0x0 KECCAK256 PUSH1 0x0 SWAP1 SLOAD SWAP1 PUSH2 0x100 EXP SWAP1 DIV PUSH1 0xFF AND ISZERO PUSH2 0xC96 JUMPI PUSH1 0x0 DUP1 REVERT JUMPDEST PUSH1 0x1 DUP2 PUSH1 0x4 ADD PUSH1 0x0 CALLER PUSH20 0xFFFFFFFFFFFFFFFFFFFFFFFFFFFFFFFFFFFFFFFF AND PUSH20 0xFFFFFFFFFFFFFFFFFFFFFFFFFFFFFFFFFFFFFFFF AND DUP2 MSTORE PUSH1 0x20 ADD SWAP1 DUP2 MSTORE PUSH1 0x20 ADD PUSH1 0x0 KECCAK256 PUSH1 0x0 PUSH2 0x100 EXP DUP2 SLOAD DUP2 PUSH1 0xFF MUL NOT AND SWAP1 DUP4 ISZERO ISZERO MUL OR SWAP1 SSTORE POP DUP1 PUSH1 0x3 ADD PUSH1 0x0 DUP2 SLOAD DUP1 SWAP3 SWAP2 SWAP1 PUSH2 0xD05 SWAP1 PUSH2 0x13D9 JUMP JUMPDEST SWAP2 SWAP1 POP SSTORE POP POP POP JUMP JUMPDEST PUSH1 0x0 DUP1 DUP1 SLOAD SWAP1 POP GT PUSH2 0xD1F JUMPI PUSH1 0x0 DUP1 REVERT JUMPDEST PUSH1 0x1 PUSH1 0x0 DUP1 SLOAD SWAP1 POP PUSH2 0xD31 SWAP2 SWAP1 PUSH2 0x1421 JUMP JUMPDEST DUP2 GT ISZERO PUSH2 0xD3D JUMPI PUSH1 0x0 DUP1 REVERT JUMPDEST POP JUMP JUMPDEST DUP3 DUP1 SLOAD PUSH2 0xD4C SWAP1 PUSH2 0x13A8 JUMP JUMPDEST SWAP1 PUSH1 0x0 MSTORE PUSH1 0x20 PUSH1 0x0 KECCAK256 SWAP1 PUSH1 0x1F ADD PUSH1 0x20 SWAP1 DIV DUP2 ADD SWAP3 DUP3 PUSH2 0xD6E JUMPI PUSH1 0x0 DUP6 SSTORE PUSH2 0xDB5 JUMP JUMPDEST DUP3 PUSH1 0x1F LT PUSH2 0xD87 JUMPI DUP1 MLOAD PUSH1 0xFF NOT AND DUP4 DUP1 ADD OR DUP6 SSTORE PUSH2 0xDB5 JUMP JUMPDEST DUP3 DUP1 ADD PUSH1 0x1 ADD DUP6 SSTORE DUP3 ISZERO PUSH2 0xDB5 JUMPI SWAP2 DUP3 ADD JUMPDEST DUP3 DUP2 GT ISZERO PUSH2 0xDB4 JUMPI DUP3 MLOAD DUP3 SSTORE SWAP2 PUSH1 0x20 ADD SWAP2 SWAP1 PUSH1 0x1 ADD SWAP1 PUSH2 0xD99 JUMP JUMPDEST JUMPDEST POP SWAP1 POP PUSH2 0xDC2 SWAP2 SWAP1 PUSH2 0xDC6 JUMP JUMPDEST POP SWAP1 JUMP JUMPDEST JUMPDEST DUP1 DUP3 GT ISZERO PUSH2 0xDDF JUMPI PUSH1 0x0 DUP2 PUSH1 0x0 SWAP1 SSTORE POP PUSH1 0x1 ADD PUSH2 0xDC7 JUMP JUMPDEST POP SWAP1 JUMP JUMPDEST PUSH1 0x0 PUSH1 0x40 MLOAD SWAP1 POP SWAP1 JUMP JUMPDEST PUSH1 0x0 DUP1 REVERT JUMPDEST PUSH1 0x0 DUP1 REVERT JUMPDEST PUSH1 0x0 DUP2 SWAP1 POP SWAP2 SWAP1 POP JUMP JUMPDEST PUSH2 0xE0A DUP2 PUSH2 0xDF7 JUMP JUMPDEST DUP2 EQ PUSH2 0xE15 JUMPI PUSH1 0x0 DUP1 REVERT JUMPDEST POP JUMP JUMPDEST PUSH1 0x0 DUP2 CALLDATALOAD SWAP1 POP PUSH2 0xE27 DUP2 PUSH2 0xE01 JUMP JUMPDEST SWAP3 SWAP2 POP POP JUMP JUMPDEST PUSH1 0x0 PUSH1 0x20 DUP3 DUP5 SUB SLT ISZERO PUSH2 0xE43 JUMPI PUSH2 0xE42 PUSH2 0xDED JUMP JUMPDEST JUMPDEST PUSH1 0x0 PUSH2 0xE51 DUP5 DUP3 DUP6 ADD PUSH2 0xE18 JUMP JUMPDEST SWAP2 POP POP SWAP3 SWAP2 POP POP JUMP JUMPDEST PUSH1 0x0 DUP2 MLOAD SWAP1 POP SWAP2 SWAP1 POP JUMP JUMPDEST PUSH1 0x0 DUP3 DUP3 MSTORE PUSH1 0x20 DUP3 ADD SWAP1 POP SWAP3 SWAP2 POP POP JUMP JUMPDEST PUSH1 0x0 JUMPDEST DUP4 DUP2 LT ISZERO PUSH2 0xE94 JUMPI DUP1 DUP3 ADD MLOAD DUP2 DUP5 ADD MSTORE PUSH1 0x20 DUP2 ADD SWAP1 POP PUSH2 0xE79 JUMP JUMPDEST DUP4 DUP2 GT ISZERO PUSH2 0xEA3 JUMPI PUSH1 0x0 DUP5 DUP5 ADD MSTORE JUMPDEST POP POP POP POP JUMP JUMPDEST PUSH1 0x0 PUSH1 0x1F NOT PUSH1 0x1F DUP4 ADD AND SWAP1 POP SWAP2 SWAP1 POP JUMP JUMPDEST PUSH1 0x0 PUSH2 0xEC5 DUP3 PUSH2 0xE5A JUMP JUMPDEST PUSH2 0xECF DUP2 DUP6 PUSH2 0xE65 JUMP JUMPDEST SWAP4 POP PUSH2 0xEDF DUP2 DUP6 PUSH1 0x20 DUP7 ADD PUSH2 0xE76 JUMP JUMPDEST PUSH2 0xEE8 DUP2 PUSH2 0xEA9 JUMP JUMPDEST DUP5 ADD SWAP2 POP POP SWAP3 SWAP2 POP POP JUMP JUMPDEST PUSH1 0x0 PUSH1 0x20 DUP3 ADD SWAP1 POP DUP2 DUP2 SUB PUSH1 0x0 DUP4 ADD MSTORE PUSH2 0xF0D DUP2 DUP5 PUSH2 0xEBA JUMP JUMPDEST SWAP1 POP SWAP3 SWAP2 POP POP JUMP JUMPDEST PUSH1 0x0 PUSH20 0xFFFFFFFFFFFFFFFFFFFFFFFFFFFFFFFFFFFFFFFF DUP3 AND SWAP1 POP SWAP2 SWAP1 POP JUMP JUMPDEST PUSH1 0x0 PUSH2 0xF40 DUP3 PUSH2 0xF15 JUMP JUMPDEST SWAP1 POP SWAP2 SWAP1 POP JUMP JUMPDEST PUSH2 0xF50 DUP2 PUSH2 0xF35 JUMP JUMPDEST DUP2 EQ PUSH2 0xF5B JUMPI PUSH1 0x0 DUP1 REVERT JUMPDEST POP JUMP JUMPDEST PUSH1 0x0 DUP2 CALLDATALOAD SWAP1 POP PUSH2 0xF6D DUP2 PUSH2 0xF47 JUMP JUMPDEST SWAP3 SWAP2 POP POP JUMP JUMPDEST PUSH1 0x0 PUSH1 0x20 DUP3 DUP5 SUB SLT ISZERO PUSH2 0xF89 JUMPI PUSH2 0xF88 PUSH2 0xDED JUMP JUMPDEST JUMPDEST PUSH1 0x0 PUSH2 0xF97 DUP5 DUP3 DUP6 ADD PUSH2 0xF5E JUMP JUMPDEST SWAP2 POP POP SWAP3 SWAP2 POP POP JUMP JUMPDEST PUSH1 0x0 DUP2 ISZERO ISZERO SWAP1 POP SWAP2 SWAP1 POP JUMP JUMPDEST PUSH2 0xFB5 DUP2 PUSH2 0xFA0 JUMP JUMPDEST DUP3 MSTORE POP POP JUMP JUMPDEST PUSH1 0x0 PUSH1 0x20 DUP3 ADD SWAP1 POP PUSH2 0xFD0 PUSH1 0x0 DUP4 ADD DUP5 PUSH2 0xFAC JUMP JUMPDEST SWAP3 SWAP2 POP POP JUMP JUMPDEST PUSH2 0xFDF DUP2 PUSH2 0xDF7 JUMP JUMPDEST DUP3 MSTORE POP POP JUMP JUMPDEST PUSH1 0x0 PUSH1 0x20 DUP3 ADD SWAP1 POP PUSH2 0xFFA PUSH1 0x0 DUP4 ADD DUP5 PUSH2 0xFD6 JUMP JUMPDEST SWAP3 SWAP2 POP POP JUMP JUMPDEST PUSH2 0x1009 DUP2 PUSH2 0xF35 JUMP JUMPDEST DUP3 MSTORE POP POP JUMP JUMPDEST PUSH1 0x0 PUSH2 0x100 DUP3 ADD SWAP1 POP PUSH2 0x1025 PUSH1 0x0 DUP4 ADD DUP12 PUSH2 0xFD6 JUMP JUMPDEST PUSH2 0x1032 PUSH1 0x20 DUP4 ADD DUP11 PUSH2 0xFD6 JUMP JUMPDEST PUSH2 0x103F PUSH1 0x40 DUP4 ADD DUP10 PUSH2 0xFD6 JUMP JUMPDEST PUSH2 0x104C PUSH1 0x60 DUP4 ADD DUP9 PUSH2 0xFD6 JUMP JUMPDEST PUSH2 0x1059 PUSH1 0x80 DUP4 ADD DUP8 PUSH2 0x1000 JUMP JUMPDEST DUP2 DUP2 SUB PUSH1 0xA0 DUP4 ADD MSTORE PUSH2 0x106B DUP2 DUP7 PUSH2 0xEBA JUMP JUMPDEST SWAP1 POP DUP2 DUP2 SUB PUSH1 0xC0 DUP4 ADD MSTORE PUSH2 0x107F DUP2 DUP6 PUSH2 0xEBA JUMP JUMPDEST SWAP1 POP DUP2 DUP2 SUB PUSH1 0xE0 DUP4 ADD MSTORE PUSH2 0x1093 DUP2 DUP5 PUSH2 0xEBA JUMP JUMPDEST SWAP1 POP SWAP10 SWAP9 POP POP POP POP POP POP POP POP POP JUMP JUMPDEST PUSH1 0x0 PUSH1 0x20 DUP3 ADD SWAP1 POP PUSH2 0x10B7 PUSH1 0x0 DUP4 ADD DUP5 PUSH2 0x1000 JUMP JUMPDEST SWAP3 SWAP2 POP POP JUMP JUMPDEST PUSH1 0x0 PUSH1 0xA0 DUP3 ADD SWAP1 POP DUP2 DUP2 SUB PUSH1 0x0 DUP4 ADD MSTORE PUSH2 0x10D7 DUP2 DUP9 PUSH2 0xEBA JUMP JUMPDEST SWAP1 POP PUSH2 0x10E6 PUSH1 0x20 DUP4 ADD DUP8 PUSH2 0xFD6 JUMP JUMPDEST PUSH2 0x10F3 PUSH1 0x40 DUP4 ADD DUP7 PUSH2 0x1000 JUMP JUMPDEST PUSH2 0x1100 PUSH1 0x60 DUP4 ADD DUP6 PUSH2 0xFAC JUMP JUMPDEST PUSH2 0x110D PUSH1 0x80 DUP4 ADD DUP5 PUSH2 0xFD6 JUMP JUMPDEST SWAP7 SWAP6 POP POP POP POP POP POP JUMP JUMPDEST PUSH1 0x0 DUP1 REVERT JUMPDEST PUSH1 0x0 DUP1 REVERT JUMPDEST PUSH32 0x4E487B7100000000000000000000000000000000000000000000000000000000 PUSH1 0x0 MSTORE PUSH1 0x41 PUSH1 0x4 MSTORE PUSH1 0x24 PUSH1 0x0 REVERT JUMPDEST PUSH2 0x1159 DUP3 PUSH2 0xEA9 JUMP JUMPDEST DUP2 ADD DUP2 DUP2 LT PUSH8 0xFFFFFFFFFFFFFFFF DUP3 GT OR ISZERO PUSH2 0x1178 JUMPI PUSH2 0x1177 PUSH2 0x1121 JUMP JUMPDEST JUMPDEST DUP1 PUSH1 0x40 MSTORE POP POP POP JUMP JUMPDEST PUSH1 0x0 PUSH2 0x118B PUSH2 0xDE3 JUMP JUMPDEST SWAP1 POP PUSH2 0x1197 DUP3 DUP3 PUSH2 0x1150 JUMP JUMPDEST SWAP2 SWAP1 POP JUMP JUMPDEST PUSH1 0x0 PUSH8 0xFFFFFFFFFFFFFFFF DUP3 GT ISZERO PUSH2 0x11B7 JUMPI PUSH2 0x11B6 PUSH2 0x1121 JUMP JUMPDEST JUMPDEST PUSH2 0x11C0 DUP3 PUSH2 0xEA9 JUMP JUMPDEST SWAP1 POP PUSH1 0x20 DUP2 ADD SWAP1 POP SWAP2 SWAP1 POP JUMP JUMPDEST DUP3 DUP2 DUP4 CALLDATACOPY PUSH1 0x0 DUP4 DUP4 ADD MSTORE POP POP POP JUMP JUMPDEST PUSH1 0x0 PUSH2 0x11EF PUSH2 0x11EA DUP5 PUSH2 0x119C JUMP JUMPDEST PUSH2 0x1181 JUMP JUMPDEST SWAP1 POP DUP3 DUP2 MSTORE PUSH1 0x20 DUP2 ADD DUP5 DUP5 DUP5 ADD GT ISZERO PUSH2 0x120B JUMPI PUSH2 0x120A PUSH2 0x111C JUMP JUMPDEST JUMPDEST PUSH2 0x1216 DUP5 DUP3 DUP6 PUSH2 0x11CD JUMP JUMPDEST POP SWAP4 SWAP3 POP POP POP JUMP JUMPDEST PUSH1 0x0 DUP3 PUSH1 0x1F DUP4 ADD SLT PUSH2 0x1233 JUMPI PUSH2 0x1232 PUSH2 0x1117 JUMP JUMPDEST JUMPDEST DUP2 CALLDATALOAD PUSH2 0x1243 DUP5 DUP3 PUSH1 0x20 DUP7 ADD PUSH2 0x11DC JUMP JUMPDEST SWAP2 POP POP SWAP3 SWAP2 POP POP JUMP JUMPDEST PUSH1 0x0 DUP1 PUSH1 0x0 PUSH1 0x60 DUP5 DUP7 SUB SLT ISZERO PUSH2 0x1265 JUMPI PUSH2 0x1264 PUSH2 0xDED JUMP JUMPDEST JUMPDEST PUSH1 0x0 DUP5 ADD CALLDATALOAD PUSH8 0xFFFFFFFFFFFFFFFF DUP2 GT ISZERO PUSH2 0x1283 JUMPI PUSH2 0x1282 PUSH2 0xDF2 JUMP JUMPDEST JUMPDEST PUSH2 0x128F DUP7 DUP3 DUP8 ADD PUSH2 0x121E JUMP JUMPDEST SWAP4 POP POP PUSH1 0x20 PUSH2 0x12A0 DUP7 DUP3 DUP8 ADD PUSH2 0xE18 JUMP JUMPDEST SWAP3 POP POP PUSH1 0x40 PUSH2 0x12B1 DUP7 DUP3 DUP8 ADD PUSH2 0xF5E JUMP JUMPDEST SWAP2 POP POP SWAP3 POP SWAP3 POP SWAP3 JUMP JUMPDEST PUSH32 0x4E487B7100000000000000000000000000000000000000000000000000000000 PUSH1 0x0 MSTORE PUSH1 0x32 PUSH1 0x4 MSTORE PUSH1 0x24 PUSH1 0x0 REVERT JUMPDEST PUSH32 0x4E487B7100000000000000000000000000000000000000000000000000000000 PUSH1 0x0 MSTORE PUSH1 0x12 PUSH1 0x4 MSTORE PUSH1 0x24 PUSH1 0x0 REVERT JUMPDEST PUSH32 0x4E487B7100000000000000000000000000000000000000000000000000000000 PUSH1 0x0 MSTORE PUSH1 0x11 PUSH1 0x4 MSTORE PUSH1 0x24 PUSH1 0x0 REVERT JUMPDEST PUSH1 0x0 PUSH2 0x1353 DUP3 PUSH2 0xDF7 JUMP JUMPDEST SWAP2 POP PUSH2 0x135E DUP4 PUSH2 0xDF7 JUMP JUMPDEST SWAP3 POP DUP3 PUSH2 0x136E JUMPI PUSH2 0x136D PUSH2 0x12EA JUMP JUMPDEST JUMPDEST DUP3 DUP3 DIV SWAP1 POP SWAP3 SWAP2 POP POP JUMP JUMPDEST PUSH32 0x4E487B7100000000000000000000000000000000000000000000000000000000 PUSH1 0x0 MSTORE PUSH1 0x22 PUSH1 0x4 MSTORE PUSH1 0x24 PUSH1 0x0 REVERT JUMPDEST PUSH1 0x0 PUSH1 0x2 DUP3 DIV SWAP1 POP PUSH1 0x1 DUP3 AND DUP1 PUSH2 0x13C0 JUMPI PUSH1 0x7F DUP3 AND SWAP2 POP JUMPDEST PUSH1 0x20 DUP3 LT DUP2 SUB PUSH2 0x13D3 JUMPI PUSH2 0x13D2 PUSH2 0x1379 JUMP JUMPDEST JUMPDEST POP SWAP2 SWAP1 POP JUMP JUMPDEST PUSH1 0x0 PUSH2 0x13E4 DUP3 PUSH2 0xDF7 JUMP JUMPDEST SWAP2 POP PUSH32 0xFFFFFFFFFFFFFFFFFFFFFFFFFFFFFFFFFFFFFFFFFFFFFFFFFFFFFFFFFFFFFFFF DUP3 SUB PUSH2 0x1416 JUMPI PUSH2 0x1415 PUSH2 0x1319 JUMP JUMPDEST JUMPDEST PUSH1 0x1 DUP3 ADD SWAP1 POP SWAP2 SWAP1 POP JUMP JUMPDEST PUSH1 0x0 PUSH2 0x142C DUP3 PUSH2 0xDF7 JUMP JUMPDEST SWAP2 POP PUSH2 0x1437 DUP4 PUSH2 0xDF7 JUMP JUMPDEST SWAP3 POP DUP3 DUP3 LT ISZERO PUSH2 0x144A JUMPI PUSH2 0x1449 PUSH2 0x1319 JUMP JUMPDEST JUMPDEST DUP3 DUP3 SUB SWAP1 POP SWAP3 SWAP2 POP POP JUMP INVALID LOG2 PUSH5 0x6970667358 0x22 SLT KECCAK256 0x27 0xB2 0x1E 0xCF SLT 0x23 DUP2 0xD SLT 0xD1 0xDB 0xED PUSH3 0xDD1291 0x26 DUP13 0xBC 0xC9 0xB5 PUSH7 0x6D6F8B2609C707 EXTCODECOPY 0xC7 0xAC PUSH5 0x736F6C6343 STOP ADDMOD 0xD STOP CALLER LOG2 PUSH5 0x6970667358 0x22 SLT KECCAK256 0xA5 0xD2 DUP15 0xA7 DUP14 0xD5 0xC3 SWAP12 0xFC RETURNDATASIZE PUSH19 0xCDDC95482F2EA25BB37496DC2788C1574198BC 0xD3 SWAP9 PUSH5 0x736F6C6343 STOP ADDMOD 0xD STOP CALLER "},"gasEstimates":{"creation":{"codeDepositCost":"1704000","executionCost":"1792","totalCost":"1705792"},"external":{"createCampaign(uint256,string,string,string)":"infinite","deployedCampaigns(uint256)":"4934","getDeployedCampaigns()":"infinite"}},"methodIdentifiers":{"createCampaign(uint256,string,string,string)":"8ef03928","deployedCampaigns(uint256)":"339d50a5","getDeployedCampaigns()":"4acb9d4f"}},"storageLayout":{"storage":[{"astId":4,"contract":"Campaign.sol:CampaignFactory","label":"deployedCampaigns","offset":0,"slot":"0","type":"t_array(t_address)dyn_storage"}],"types":{"t_address":{"encoding":"inplace","label":"address","numberOfBytes":"20"},"t_array(t_address)dyn_storage":{"base":"t_address","encoding":"dynamic_array","label":"address[]","numberOfBytes":"32"}}},"userdoc":{"kind":"user","methods":{},"version":1}}